{
  "_format": "hh3-artifact-1",
  "contractName": "BuyItem",
  "sourceName": "contracts/BuyItem.sol",
  "abi": [
    {
      "inputs": [
        {
          "internalType": "uint256",
          "name": "_maxParticipantCount",
          "type": "uint256"
        },
        {
          "internalType": "uint256",
          "name": "_price",
          "type": "uint256"
        },
        {
          "internalType": "string",
          "name": "_title",
          "type": "string"
        },
        {
          "internalType": "string",
          "name": "_description",
          "type": "string"
        },
        {
          "internalType": "string",
          "name": "_creatorName",
          "type": "string"
        },
        {
          "internalType": "string",
          "name": "_creatorAddress",
          "type": "string"
        },
        {
          "internalType": "string",
          "name": "_creatorPhone",
          "type": "string"
        }
      ],
      "stateMutability": "payable",
      "type": "constructor"
    },
    {
      "inputs": [
        {
          "internalType": "address",
          "name": "",
          "type": "address"
        }
      ],
      "name": "deposits",
      "outputs": [
        {
          "internalType": "uint256",
          "name": "",
          "type": "uint256"
        }
      ],
      "stateMutability": "view",
      "type": "function"
    },
    {
      "inputs": [],
      "name": "description",
      "outputs": [
        {
          "internalType": "string",
          "name": "",
          "type": "string"
        }
      ],
      "stateMutability": "view",
      "type": "function"
    },
    {
      "inputs": [],
      "name": "endDate",
      "outputs": [
        {
          "internalType": "uint256",
          "name": "",
          "type": "uint256"
        }
      ],
      "stateMutability": "view",
      "type": "function"
    },
    {
      "inputs": [],
      "name": "finalPrice",
      "outputs": [
        {
          "internalType": "uint256",
          "name": "",
          "type": "uint256"
        }
      ],
      "stateMutability": "view",
      "type": "function"
    },
    {
      "inputs": [],
      "name": "finalize",
      "outputs": [],
      "stateMutability": "nonpayable",
      "type": "function"
    },
    {
      "inputs": [],
      "name": "getAllPurchases",
      "outputs": [
        {
          "components": [
            {
              "internalType": "uint256",
              "name": "amount",
              "type": "uint256"
            },
            {
              "internalType": "uint256",
              "name": "timestamp",
              "type": "uint256"
            },
            {
              "internalType": "string",
              "name": "fullName",
              "type": "string"
            },
            {
              "internalType": "string",
              "name": "userAddress",
              "type": "string"
            },
            {
              "internalType": "string",
              "name": "phoneNumber",
              "type": "string"
            }
          ],
          "internalType": "struct BuyItem.PurchaseInfo[]",
          "name": "",
          "type": "tuple[]"
        }
      ],
      "stateMutability": "view",
      "type": "function"
    },
    {
      "inputs": [],
      "name": "getBalance",
      "outputs": [
        {
          "internalType": "uint256",
          "name": "",
          "type": "uint256"
        }
      ],
      "stateMutability": "view",
      "type": "function"
    },
    {
      "inputs": [],
      "name": "getOffers",
      "outputs": [
        {
          "components": [
            {
              "internalType": "uint256",
              "name": "price",
              "type": "uint256"
            },
            {
              "internalType": "string",
              "name": "productName",
              "type": "string"
            },
            {
              "internalType": "string",
              "name": "productLink",
              "type": "string"
            },
            {
              "internalType": "address",
              "name": "walletAddress",
              "type": "address"
            }
          ],
          "internalType": "struct BuyItem.Offer[]",
          "name": "",
          "type": "tuple[]"
        }
      ],
      "stateMutability": "view",
      "type": "function"
    },
    {
      "inputs": [],
      "name": "getOffersCount",
      "outputs": [
        {
          "internalType": "uint256",
          "name": "",
          "type": "uint256"
        }
      ],
      "stateMutability": "view",
      "type": "function"
    },
    {
      "inputs": [],
      "name": "getParticipantInfo",
      "outputs": [
        {
          "internalType": "uint256",
          "name": "currentParticipants",
          "type": "uint256"
        },
        {
          "internalType": "uint256",
          "name": "maxParticipants",
          "type": "uint256"
        },
        {
          "internalType": "uint256",
          "name": "contractEndDate",
          "type": "uint256"
        },
        {
          "internalType": "string",
          "name": "priceETH",
          "type": "string"
        },
        {
          "internalType": "string",
          "name": "contractTitle",
          "type": "string"
        },
        {
          "internalType": "string",
          "name": "contractDescription",
          "type": "string"
        },
        {
          "internalType": "address",
          "name": "contractSenderCompany",
          "type": "address"
        },
        {
          "internalType": "bool",
          "name": "contractIsFinalized",
          "type": "bool"
        }
      ],
      "stateMutability": "view",
      "type": "function"
    },
    {
      "inputs": [
        {
          "internalType": "address",
          "name": "",
          "type": "address"
        }
      ],
      "name": "hasParticipated",
      "outputs": [
        {
          "internalType": "bool",
          "name": "",
          "type": "bool"
        }
      ],
      "stateMutability": "view",
      "type": "function"
    },
    {
      "inputs": [],
      "name": "isFinalized",
      "outputs": [
        {
          "internalType": "bool",
          "name": "",
          "type": "bool"
        }
      ],
      "stateMutability": "view",
      "type": "function"
    },
    {
      "inputs": [],
      "name": "maxParticipantCount",
      "outputs": [
        {
          "internalType": "uint256",
          "name": "",
          "type": "uint256"
        }
      ],
      "stateMutability": "view",
      "type": "function"
    },
    {
      "inputs": [
        {
          "internalType": "uint256",
          "name": "",
          "type": "uint256"
        }
      ],
      "name": "offers",
      "outputs": [
        {
          "internalType": "uint256",
          "name": "price",
          "type": "uint256"
        },
        {
          "internalType": "string",
          "name": "productName",
          "type": "string"
        },
        {
          "internalType": "string",
          "name": "productLink",
          "type": "string"
        },
        {
          "internalType": "address",
          "name": "walletAddress",
          "type": "address"
        }
      ],
      "stateMutability": "view",
      "type": "function"
    },
    {
      "inputs": [],
      "name": "owner",
      "outputs": [
        {
          "internalType": "address",
          "name": "",
          "type": "address"
        }
      ],
      "stateMutability": "view",
      "type": "function"
    },
    {
      "inputs": [
        {
          "internalType": "uint256",
          "name": "",
          "type": "uint256"
        }
      ],
      "name": "participants",
      "outputs": [
        {
          "internalType": "address",
          "name": "",
          "type": "address"
        }
      ],
      "stateMutability": "view",
      "type": "function"
    },
    {
      "inputs": [],
      "name": "price",
      "outputs": [
        {
          "internalType": "uint256",
          "name": "",
          "type": "uint256"
        }
      ],
      "stateMutability": "view",
      "type": "function"
    },
    {
      "inputs": [
        {
          "internalType": "string",
          "name": "_fullName",
          "type": "string"
        },
        {
          "internalType": "string",
          "name": "_userAddress",
          "type": "string"
        },
        {
          "internalType": "string",
          "name": "_phoneNumber",
          "type": "string"
        }
      ],
      "name": "purchase",
      "outputs": [],
      "stateMutability": "payable",
      "type": "function"
    },
    {
      "inputs": [
        {
          "internalType": "address",
          "name": "",
          "type": "address"
        },
        {
          "internalType": "uint256",
          "name": "",
          "type": "uint256"
        }
      ],
      "name": "purchases",
      "outputs": [
        {
          "internalType": "uint256",
          "name": "amount",
          "type": "uint256"
        },
        {
          "internalType": "uint256",
          "name": "timestamp",
          "type": "uint256"
        },
        {
          "internalType": "string",
          "name": "fullName",
          "type": "string"
        },
        {
          "internalType": "string",
          "name": "userAddress",
          "type": "string"
        },
        {
          "internalType": "string",
          "name": "phoneNumber",
          "type": "string"
        }
      ],
      "stateMutability": "view",
      "type": "function"
    },
    {
      "inputs": [],
      "name": "senderCompany",
      "outputs": [
        {
          "internalType": "address",
          "name": "",
          "type": "address"
        }
      ],
      "stateMutability": "view",
      "type": "function"
    },
    {
      "inputs": [
        {
          "internalType": "uint256",
          "name": "_price",
          "type": "uint256"
        },
        {
          "internalType": "string",
          "name": "_productName",
          "type": "string"
        },
        {
          "internalType": "string",
          "name": "_productLink",
          "type": "string"
        }
      ],
      "name": "submitOffer",
      "outputs": [],
      "stateMutability": "nonpayable",
      "type": "function"
    },
    {
      "inputs": [],
      "name": "title",
      "outputs": [
        {
          "internalType": "string",
          "name": "",
          "type": "string"
        }
      ],
      "stateMutability": "view",
      "type": "function"
    },
    {
      "inputs": [],
      "name": "withdraw",
      "outputs": [],
      "stateMutability": "nonpayable",
      "type": "function"
    }
  ],
  "bytecode": "0x608060405260405162004340380380620043408339818101604052810190620000299190620005a9565b5f87116200006e576040517f08c379a0000000000000000000000000000000000000000000000000000000008152600401620000659062000776565b60405180910390fd5b5f8611620000b3576040517f08c379a0000000000000000000000000000000000000000000000000000000008152600401620000aa90620007e4565b60405180910390fd5b853414620000f8576040517f08c379a0000000000000000000000000000000000000000000000000000000008152600401620000ef9062000852565b60405180910390fd5b62093a80426200010991906200089f565b5f81905550866001819055508560028190555084600690816200012d919062000b07565b5083600790816200013f919062000b07565b505f60035f6101000a81548160ff02191690831515021790555073eb4df82103ec493614c15f96ccd2be93c69cf09960055f6101000a81548173ffffffffffffffffffffffffffffffffffffffff021916908373ffffffffffffffffffffffffffffffffffffffff1602179055505f60085f6101000a81548173ffffffffffffffffffffffffffffffffffffffff021916908373ffffffffffffffffffffffffffffffffffffffff1602179055506001600d5f3373ffffffffffffffffffffffffffffffffffffffff1673ffffffffffffffffffffffffffffffffffffffff1681526020019081526020015f205f6101000a81548160ff021916908315150217905550600a33908060018154018082558091505060019003905f5260205f20015f9091909190916101000a81548173ffffffffffffffffffffffffffffffffffffffff021916908373ffffffffffffffffffffffffffffffffffffffff160217905550600b5f3373ffffffffffffffffffffffffffffffffffffffff1673ffffffffffffffffffffffffffffffffffffffff1681526020019081526020015f206040518060a00160405280600254815260200142815260200185815260200184815260200183815250908060018154018082558091505060019003905f5260205f2090600502015f909190919091505f820151815f015560208201518160010155604082015181600201908162000357919062000b07565b5060608201518160030190816200036f919062000b07565b50608082015181600401908162000387919062000b07565b50505034600c5f3373ffffffffffffffffffffffffffffffffffffffff1673ffffffffffffffffffffffffffffffffffffffff1681526020019081526020015f205f828254620003d891906200089f565b925050819055505050505050505062000beb565b5f604051905090565b5f80fd5b5f80fd5b5f819050919050565b6200041181620003fd565b81146200041c575f80fd5b50565b5f815190506200042f8162000406565b92915050565b5f80fd5b5f80fd5b5f601f19601f8301169050919050565b7f4e487b71000000000000000000000000000000000000000000000000000000005f52604160045260245ffd5b62000485826200043d565b810181811067ffffffffffffffff82111715620004a757620004a66200044d565b5b80604052505050565b5f620004bb620003ec565b9050620004c982826200047a565b919050565b5f67ffffffffffffffff821115620004eb57620004ea6200044d565b5b620004f6826200043d565b9050602081019050919050565b5f5b838110156200052257808201518184015260208101905062000505565b5f8484015250505050565b5f620005436200053d84620004ce565b620004b0565b90508281526020810184848401111562000562576200056162000439565b5b6200056f84828562000503565b509392505050565b5f82601f8301126200058e576200058d62000435565b5b8151620005a08482602086016200052d565b91505092915050565b5f805f805f805f60e0888a031215620005c757620005c6620003f5565b5b5f620005d68a828b016200041f565b9750506020620005e98a828b016200041f565b965050604088015167ffffffffffffffff8111156200060d576200060c620003f9565b5b6200061b8a828b0162000577565b955050606088015167ffffffffffffffff8111156200063f576200063e620003f9565b5b6200064d8a828b0162000577565b945050608088015167ffffffffffffffff811115620006715762000670620003f9565b5b6200067f8a828b0162000577565b93505060a088015167ffffffffffffffff811115620006a357620006a2620003f9565b5b620006b18a828b0162000577565b92505060c088015167ffffffffffffffff811115620006d557620006d4620003f9565b5b620006e38a828b0162000577565b91505092959891949750929550565b5f82825260208201905092915050565b7f4d6178207061727469636970616e7420636f756e74206d7573742062652067725f8201527f6561746572207468616e20300000000000000000000000000000000000000000602082015250565b5f6200075e602c83620006f2565b91506200076b8262000702565b604082019050919050565b5f6020820190508181035f8301526200078f8162000750565b9050919050565b7f5072696365206d7573742062652067726561746572207468616e2030000000005f82015250565b5f620007cc601c83620006f2565b9150620007d98262000796565b602082019050919050565b5f6020820190508181035f830152620007fd81620007be565b9050919050565b7f4d7573742073656e6420657861637420707269636520616d6f756e74000000005f82015250565b5f6200083a601c83620006f2565b9150620008478262000804565b602082019050919050565b5f6020820190508181035f8301526200086b816200082c565b9050919050565b7f4e487b71000000000000000000000000000000000000000000000000000000005f52601160045260245ffd5b5f620008ab82620003fd565b9150620008b883620003fd565b9250828201905080821115620008d357620008d262000872565b5b92915050565b5f81519050919050565b7f4e487b71000000000000000000000000000000000000000000000000000000005f52602260045260245ffd5b5f60028204905060018216806200092857607f821691505b6020821081036200093e576200093d620008e3565b5b50919050565b5f819050815f5260205f209050919050565b5f6020601f8301049050919050565b5f82821b905092915050565b5f60088302620009a27fffffffffffffffffffffffffffffffffffffffffffffffffffffffffffffffff8262000965565b620009ae868362000965565b95508019841693508086168417925050509392505050565b5f819050919050565b5f620009ef620009e9620009e384620003fd565b620009c6565b620003fd565b9050919050565b5f819050919050565b62000a0a83620009cf565b62000a2262000a1982620009f6565b84845462000971565b825550505050565b5f90565b62000a3862000a2a565b62000a45818484620009ff565b505050565b5b8181101562000a6c5762000a605f8262000a2e565b60018101905062000a4b565b5050565b601f82111562000abb5762000a858162000944565b62000a908462000956565b8101602085101562000aa0578190505b62000ab862000aaf8562000956565b83018262000a4a565b50505b505050565b5f82821c905092915050565b5f62000add5f198460080262000ac0565b1980831691505092915050565b5f62000af7838362000acc565b9150826002028217905092915050565b62000b1282620008d9565b67ffffffffffffffff81111562000b2e5762000b2d6200044d565b5b62000b3a825462000910565b62000b4782828562000a70565b5f60209050601f83116001811462000b7d575f841562000b68578287015190505b62000b74858262000aea565b86555062000be3565b601f19841662000b8d8662000944565b5f5b8281101562000bb65784890151825560018201915060208501945060208101905062000b8f565b8683101562000bd6578489015162000bd2601f89168262000acc565b8355505b6001600288020188555050505b505050505050565b6137478062000bf95f395ff3fe60806040526004361061013f575f3560e01c80638a72ea6a116100b5578063a6b513ee1161006e578063a6b513ee14610427578063a93fcf5014610451578063b4fb3ee31461046d578063c24a0f8b146104a9578063c462a408146104d3578063fc7e286d146104fd5761013f565b80638a72ea6a146103185780638d4e4083146103575780638da5cb5b14610381578063903dd9ed146103ab5780639bbd24c8146103d5578063a035b1fe146103fd5761013f565b80634a79d50c116101075780634a79d50c146102135780634bb278f31461023d57806350b3967d1461025357806352d3f8491461027d5780636bd45552146102bd5780637284e416146102ee5761013f565b806312065fe0146101435780632f2e7b751461016d57806335c1d349146101975780633ccfd60b146101d35780633ee992ee146101e9575b5f80fd5b34801561014e575f80fd5b50610157610539565b6040516101649190612294565b60405180910390f35b348015610178575f80fd5b50610181610540565b60405161018e9190612294565b60405180910390f35b3480156101a2575f80fd5b506101bd60048036038101906101b891906122e8565b61054c565b6040516101ca9190612352565b60405180910390f35b3480156101de575f80fd5b506101e7610587565b005b3480156101f4575f80fd5b506101fd6109cb565b60405161020a9190612535565b60405180910390f35b34801561021e575f80fd5b50610227610ba5565b604051610234919061259d565b60405180910390f35b348015610248575f80fd5b50610251610c31565b005b34801561025e575f80fd5b50610267611100565b60405161027491906126f9565b60405180910390f35b348015610288575f80fd5b506102a3600480360381019061029e9190612743565b611530565b6040516102b4959493929190612781565b60405180910390f35b3480156102c8575f80fd5b506102d161170e565b6040516102e5989796959493929190612801565b60405180910390f35b3480156102f9575f80fd5b50610302611896565b60405161030f919061259d565b60405180910390f35b348015610323575f80fd5b5061033e600480360381019061033991906122e8565b611922565b60405161034e9493929190612892565b60405180910390f35b348015610362575f80fd5b5061036b611a88565b60405161037891906128e3565b60405180910390f35b34801561038c575f80fd5b50610395611a9a565b6040516103a29190612352565b60405180910390f35b3480156103b6575f80fd5b506103bf611abf565b6040516103cc9190612352565b60405180910390f35b3480156103e0575f80fd5b506103fb60048036038101906103f69190612a28565b611ae4565b005b348015610408575f80fd5b50610411611bc4565b60405161041e9190612294565b60405180910390f35b348015610432575f80fd5b5061043b611bca565b6040516104489190612294565b60405180910390f35b61046b60048036038101906104669190612ab0565b611bd0565b005b348015610478575f80fd5b50610493600480360381019061048e9190612b54565b611eea565b6040516104a091906128e3565b60405180910390f35b3480156104b4575f80fd5b506104bd611f07565b6040516104ca9190612294565b60405180910390f35b3480156104de575f80fd5b506104e7611f0c565b6040516104f49190612294565b60405180910390f35b348015610508575f80fd5b50610523600480360381019061051e9190612b54565b611f12565b6040516105309190612294565b60405180910390f35b5f47905090565b5f600980549050905090565b600a818154811061055b575f80fd5b905f5260205f20015f915054906101000a900473ffffffffffffffffffffffffffffffffffffffff1681565b5f544211156105cb576040517f08c379a00000000000000000000000000000000000000000000000000000000081526004016105c290612bef565b60405180910390fd5b60035f9054906101000a900460ff161561061a576040517f08c379a000000000000000000000000000000000000000000000000000000000815260040161061190612c7d565b60405180910390fd5b600d5f3373ffffffffffffffffffffffffffffffffffffffff1673ffffffffffffffffffffffffffffffffffffffff1681526020019081526020015f205f9054906101000a900460ff166106a3576040517f08c379a000000000000000000000000000000000000000000000000000000000815260040161069a90612ce5565b60405180910390fd5b5f600c5f3373ffffffffffffffffffffffffffffffffffffffff1673ffffffffffffffffffffffffffffffffffffffff1681526020019081526020015f205490505f8111610726576040517f08c379a000000000000000000000000000000000000000000000000000000000815260040161071d90612d4d565b60405180910390fd5b5f600d5f3373ffffffffffffffffffffffffffffffffffffffff1673ffffffffffffffffffffffffffffffffffffffff1681526020019081526020015f205f6101000a81548160ff0219169083151502179055505f5b600a805490508110156108f9573373ffffffffffffffffffffffffffffffffffffffff16600a82815481106107b4576107b3612d6b565b5b905f5260205f20015f9054906101000a900473ffffffffffffffffffffffffffffffffffffffff1673ffffffffffffffffffffffffffffffffffffffff16036108e657600a6001600a8054905061080b9190612dc5565b8154811061081c5761081b612d6b565b5b905f5260205f20015f9054906101000a900473ffffffffffffffffffffffffffffffffffffffff16600a828154811061085857610857612d6b565b5b905f5260205f20015f6101000a81548173ffffffffffffffffffffffffffffffffffffffff021916908373ffffffffffffffffffffffffffffffffffffffff160217905550600a8054806108af576108ae612df8565b5b600190038181905f5260205f20015f6101000a81549073ffffffffffffffffffffffffffffffffffffffff021916905590556108f9565b80806108f190612e25565b91505061077c565b50600b5f3373ffffffffffffffffffffffffffffffffffffffff1673ffffffffffffffffffffffffffffffffffffffff1681526020019081526020015f205f6109429190612185565b5f600c5f3373ffffffffffffffffffffffffffffffffffffffff1673ffffffffffffffffffffffffffffffffffffffff1681526020019081526020015f20819055503373ffffffffffffffffffffffffffffffffffffffff166108fc8290811502906040515f60405180830381858888f193505050501580156109c7573d5f803e3d5ffd5b5050565b60606009805480602002602001604051908101604052809291908181526020015f905b82821015610b9c578382905f5260205f2090600402016040518060800160405290815f8201548152602001600182018054610a2890612e99565b80601f0160208091040260200160405190810160405280929190818152602001828054610a5490612e99565b8015610a9f5780601f10610a7657610100808354040283529160200191610a9f565b820191905f5260205f20905b815481529060010190602001808311610a8257829003601f168201915b50505050508152602001600282018054610ab890612e99565b80601f0160208091040260200160405190810160405280929190818152602001828054610ae490612e99565b8015610b2f5780601f10610b0657610100808354040283529160200191610b2f565b820191905f5260205f20905b815481529060010190602001808311610b1257829003601f168201915b50505050508152602001600382015f9054906101000a900473ffffffffffffffffffffffffffffffffffffffff1673ffffffffffffffffffffffffffffffffffffffff1673ffffffffffffffffffffffffffffffffffffffff1681525050815260200190600101906109ee565b50505050905090565b60068054610bb290612e99565b80601f0160208091040260200160405190810160405280929190818152602001828054610bde90612e99565b8015610c295780601f10610c0057610100808354040283529160200191610c29565b820191905f5260205f20905b815481529060010190602001808311610c0c57829003601f168201915b505050505081565b60055f9054906101000a900473ffffffffffffffffffffffffffffffffffffffff1673ffffffffffffffffffffffffffffffffffffffff163373ffffffffffffffffffffffffffffffffffffffff1614610cc0576040517f08c379a0000000000000000000000000000000000000000000000000000000008152600401610cb790612f13565b60405180910390fd5b60035f9054906101000a900460ff1615610d0f576040517f08c379a0000000000000000000000000000000000000000000000000000000008152600401610d0690612f7b565b60405180910390fd5b5f60098054905011610d56576040517f08c379a0000000000000000000000000000000000000000000000000000000008152600401610d4d90612fe3565b60405180910390fd5b5f600a8054905011610d9d576040517f08c379a0000000000000000000000000000000000000000000000000000000008152600401610d949061304b565b60405180910390fd5b5f60095f81548110610db257610db1612d6b565b5b905f5260205f2090600402015f015490505f60095f81548110610dd857610dd7612d6b565b5b905f5260205f2090600402016003015f9054906101000a900473ffffffffffffffffffffffffffffffffffffffff1690505f600190505b600980549050811015610ec4578260098281548110610e3157610e30612d6b565b5b905f5260205f2090600402015f01541015610eb15760098181548110610e5a57610e59612d6b565b5b905f5260205f2090600402015f0154925060098181548110610e7f57610e7e612d6b565b5b905f5260205f2090600402016003015f9054906101000a900473ffffffffffffffffffffffffffffffffffffffff1691505b8080610ebc90612e25565b915050610e0f565b50816004819055508060085f6101000a81548173ffffffffffffffffffffffffffffffffffffffff021916908373ffffffffffffffffffffffffffffffffffffffff160217905550600160035f6101000a81548160ff0219169083151502179055505f600a80549050600454610f3a9190613069565b90505f6064600a83610f4c9190613069565b610f5691906130d7565b90505f8183610f659190612dc5565b90505f600a80549050600454600254610f7e9190612dc5565b610f889190613069565b90505f600a8054905082610f9c91906130d7565b90505f5b600a8054905081101561104d575f600a8281548110610fc257610fc1612d6b565b5b905f5260205f20015f9054906101000a900473ffffffffffffffffffffffffffffffffffffffff1690505f831115611039578073ffffffffffffffffffffffffffffffffffffffff166108fc8490811502906040515f60405180830381858888f19350505050158015611037573d5f803e3d5ffd5b505b50808061104590612e25565b915050610fa0565b5060055f9054906101000a900473ffffffffffffffffffffffffffffffffffffffff1673ffffffffffffffffffffffffffffffffffffffff166108fc8590811502906040515f60405180830381858888f193505050501580156110b2573d5f803e3d5ffd5b508573ffffffffffffffffffffffffffffffffffffffff166108fc8490811502906040515f60405180830381858888f193505050501580156110f6573d5f803e3d5ffd5b5050505050505050565b60605f805b600a805490508110156111ae57600b5f600a838154811061112957611128612d6b565b5b905f5260205f20015f9054906101000a900473ffffffffffffffffffffffffffffffffffffffff1673ffffffffffffffffffffffffffffffffffffffff1673ffffffffffffffffffffffffffffffffffffffff1681526020019081526020015f2080549050826111999190613107565b915080806111a690612e25565b915050611105565b505f8167ffffffffffffffff8111156111ca576111c9612904565b5b60405190808252806020026020018201604052801561120357816020015b6111f06121a6565b8152602001906001900390816111e85790505b5090505f805b600a80549050811015611526575f600a828154811061122b5761122a612d6b565b5b905f5260205f20015f9054906101000a900473ffffffffffffffffffffffffffffffffffffffff1690505f600b5f8373ffffffffffffffffffffffffffffffffffffffff1673ffffffffffffffffffffffffffffffffffffffff1681526020019081526020015f20805480602002602001604051908101604052809291908181526020015f905b828210156114a5578382905f5260205f2090600502016040518060a00160405290815f8201548152602001600182015481526020016002820180546112f690612e99565b80601f016020809104026020016040519081016040528092919081815260200182805461132290612e99565b801561136d5780601f106113445761010080835404028352916020019161136d565b820191905f5260205f20905b81548152906001019060200180831161135057829003601f168201915b5050505050815260200160038201805461138690612e99565b80601f01602080910402602001604051908101604052809291908181526020018280546113b290612e99565b80156113fd5780601f106113d4576101008083540402835291602001916113fd565b820191905f5260205f20905b8154815290600101906020018083116113e057829003601f168201915b5050505050815260200160048201805461141690612e99565b80601f016020809104026020016040519081016040528092919081815260200182805461144290612e99565b801561148d5780601f106114645761010080835404028352916020019161148d565b820191905f5260205f20905b81548152906001019060200180831161147057829003601f168201915b505050505081525050815260200190600101906112b2565b5050505090505f5b8151811015611510578181815181106114c9576114c8612d6b565b5b60200260200101518686815181106114e4576114e3612d6b565b5b602002602001018190525084806114fa90612e25565b955050808061150890612e25565b9150506114ad565b505050808061151e90612e25565b915050611209565b5081935050505090565b600b602052815f5260405f208181548110611549575f80fd5b905f5260205f2090600502015f9150915050805f01549080600101549080600201805461157590612e99565b80601f01602080910402602001604051908101604052809291908181526020018280546115a190612e99565b80156115ec5780601f106115c3576101008083540402835291602001916115ec565b820191905f5260205f20905b8154815290600101906020018083116115cf57829003601f168201915b50505050509080600301805461160190612e99565b80601f016020809104026020016040519081016040528092919081815260200182805461162d90612e99565b80156116785780601f1061164f57610100808354040283529160200191611678565b820191905f5260205f20905b81548152906001019060200180831161165b57829003601f168201915b50505050509080600401805461168d90612e99565b80601f01602080910402602001604051908101604052809291908181526020018280546116b990612e99565b80156117045780601f106116db57610100808354040283529160200191611704565b820191905f5260205f20905b8154815290600101906020018083116116e757829003601f168201915b5050505050905085565b5f805f60608060605f805f611724600254611f27565b9050600a805490506001545f54836006600760085f9054906101000a900473ffffffffffffffffffffffffffffffffffffffff1660035f9054906101000a900460ff1683805461177390612e99565b80601f016020809104026020016040519081016040528092919081815260200182805461179f90612e99565b80156117ea5780601f106117c1576101008083540402835291602001916117ea565b820191905f5260205f20905b8154815290600101906020018083116117cd57829003601f168201915b505050505093508280546117fd90612e99565b80601f016020809104026020016040519081016040528092919081815260200182805461182990612e99565b80156118745780601f1061184b57610100808354040283529160200191611874565b820191905f5260205f20905b81548152906001019060200180831161185757829003601f168201915b5050505050925098509850985098509850985098509850509091929394959697565b600780546118a390612e99565b80601f01602080910402602001604051908101604052809291908181526020018280546118cf90612e99565b801561191a5780601f106118f15761010080835404028352916020019161191a565b820191905f5260205f20905b8154815290600101906020018083116118fd57829003601f168201915b505050505081565b60098181548110611931575f80fd5b905f5260205f2090600402015f91509050805f01549080600101805461195690612e99565b80601f016020809104026020016040519081016040528092919081815260200182805461198290612e99565b80156119cd5780601f106119a4576101008083540402835291602001916119cd565b820191905f5260205f20905b8154815290600101906020018083116119b057829003601f168201915b5050505050908060020180546119e290612e99565b80601f0160208091040260200160405190810160405280929190818152602001828054611a0e90612e99565b8015611a595780601f10611a3057610100808354040283529160200191611a59565b820191905f5260205f20905b815481529060010190602001808311611a3c57829003601f168201915b505050505090806003015f9054906101000a900473ffffffffffffffffffffffffffffffffffffffff16905084565b60035f9054906101000a900460ff1681565b60055f9054906101000a900473ffffffffffffffffffffffffffffffffffffffff1681565b60085f9054906101000a900473ffffffffffffffffffffffffffffffffffffffff1681565b600960405180608001604052808581526020018481526020018381526020013373ffffffffffffffffffffffffffffffffffffffff16815250908060018154018082558091505060019003905f5260205f2090600402015f909190919091505f820151815f01556020820151816001019081611b6091906132d7565b506040820151816002019081611b7691906132d7565b506060820151816003015f6101000a81548173ffffffffffffffffffffffffffffffffffffffff021916908373ffffffffffffffffffffffffffffffffffffffff1602179055505050505050565b60025481565b60045481565b6002543414611c14576040517f08c379a0000000000000000000000000000000000000000000000000000000008152600401611c0b906133f0565b60405180910390fd5b600154600a8054905010611c5d576040517f08c379a0000000000000000000000000000000000000000000000000000000008152600401611c549061347e565b60405180910390fd5b60035f9054906101000a900460ff1615611cac576040517f08c379a0000000000000000000000000000000000000000000000000000000008152600401611ca3906134e6565b60405180910390fd5b600d5f3373ffffffffffffffffffffffffffffffffffffffff1673ffffffffffffffffffffffffffffffffffffffff1681526020019081526020015f205f9054906101000a900460ff16611db0576001600d5f3373ffffffffffffffffffffffffffffffffffffffff1673ffffffffffffffffffffffffffffffffffffffff1681526020019081526020015f205f6101000a81548160ff021916908315150217905550600a33908060018154018082558091505060019003905f5260205f20015f9091909190916101000a81548173ffffffffffffffffffffffffffffffffffffffff021916908373ffffffffffffffffffffffffffffffffffffffff1602179055505b600b5f3373ffffffffffffffffffffffffffffffffffffffff1673ffffffffffffffffffffffffffffffffffffffff1681526020019081526020015f206040518060a00160405280600254815260200142815260200185815260200184815260200183815250908060018154018082558091505060019003905f5260205f2090600502015f909190919091505f820151815f0155602082015181600101556040820151816002019081611e6391906132d7565b506060820151816003019081611e7991906132d7565b506080820151816004019081611e8f91906132d7565b50505034600c5f3373ffffffffffffffffffffffffffffffffffffffff1673ffffffffffffffffffffffffffffffffffffffff1681526020019081526020015f205f828254611ede9190613107565b92505081905550505050565b600d602052805f5260405f205f915054906101000a900460ff1681565b5f5481565b60015481565b600c602052805f5260405f205f915090505481565b60605f670de0b6b3a764000083611f3e91906130d7565b90505f670de0b6b3a764000084611f559190613504565b90505f66038d7ea4c6800082611f6b91906130d7565b9050611f7683611fa9565b611f7f82612102565b604051602001611f90929190613602565b6040516020818303038152906040529350505050919050565b60605f8203611fef576040518060400160405280600181526020017f300000000000000000000000000000000000000000000000000000000000000081525090506120fd565b5f8290505f5b5f821461201e57808061200790612e25565b915050600a8261201791906130d7565b9150611ff5565b5f8167ffffffffffffffff81111561203957612038612904565b5b6040519080825280601f01601f19166020018201604052801561206b5781602001600182028036833780820191505090505b5090505b5f85146120f6576001826120839190612dc5565b9150600a856120929190613504565b603061209e9190613107565b60f81b8183815181106120b4576120b3612d6b565b5b60200101907effffffffffffffffffffffffffffffffffffffffffffffffffffffffffffff191690815f1a905350600a856120ef91906130d7565b945061206f565b8093505050505b919050565b6060600a82101561213c5761211682611fa9565b6040516020016121269190613685565b6040516020818303038152906040529050612180565b60648210156121745761214e82611fa9565b60405160200161215e91906136f0565b6040516020818303038152906040529050612180565b61217d82611fa9565b90505b919050565b5080545f8255600502905f5260205f20908101906121a391906121d3565b50565b6040518060a001604052805f81526020015f81526020016060815260200160608152602001606081525090565b5b80821115612220575f8082015f9055600182015f9055600282015f6121f99190612224565b600382015f6122089190612224565b600482015f6122179190612224565b506005016121d4565b5090565b50805461223090612e99565b5f825580601f10612241575061225e565b601f0160209004905f5260205f209081019061225d9190612261565b5b50565b5b80821115612278575f815f905550600101612262565b5090565b5f819050919050565b61228e8161227c565b82525050565b5f6020820190506122a75f830184612285565b92915050565b5f604051905090565b5f80fd5b5f80fd5b6122c78161227c565b81146122d1575f80fd5b50565b5f813590506122e2816122be565b92915050565b5f602082840312156122fd576122fc6122b6565b5b5f61230a848285016122d4565b91505092915050565b5f73ffffffffffffffffffffffffffffffffffffffff82169050919050565b5f61233c82612313565b9050919050565b61234c81612332565b82525050565b5f6020820190506123655f830184612343565b92915050565b5f81519050919050565b5f82825260208201905092915050565b5f819050602082019050919050565b61239d8161227c565b82525050565b5f81519050919050565b5f82825260208201905092915050565b5f5b838110156123da5780820151818401526020810190506123bf565b5f8484015250505050565b5f601f19601f8301169050919050565b5f6123ff826123a3565b61240981856123ad565b93506124198185602086016123bd565b612422816123e5565b840191505092915050565b61243681612332565b82525050565b5f608083015f8301516124515f860182612394565b506020830151848203602086015261246982826123f5565b9150506040830151848203604086015261248382826123f5565b9150506060830151612498606086018261242d565b508091505092915050565b5f6124ae838361243c565b905092915050565b5f602082019050919050565b5f6124cc8261236b565b6124d68185612375565b9350836020820285016124e885612385565b805f5b85811015612523578484038952815161250485826124a3565b945061250f836124b6565b925060208a019950506001810190506124eb565b50829750879550505050505092915050565b5f6020820190508181035f83015261254d81846124c2565b905092915050565b5f82825260208201905092915050565b5f61256f826123a3565b6125798185612555565b93506125898185602086016123bd565b612592816123e5565b840191505092915050565b5f6020820190508181035f8301526125b58184612565565b905092915050565b5f81519050919050565b5f82825260208201905092915050565b5f819050602082019050919050565b5f60a083015f8301516125fb5f860182612394565b50602083015161260e6020860182612394565b506040830151848203604086015261262682826123f5565b9150506060830151848203606086015261264082826123f5565b9150506080830151848203608086015261265a82826123f5565b9150508091505092915050565b5f61267283836125e6565b905092915050565b5f602082019050919050565b5f612690826125bd565b61269a81856125c7565b9350836020820285016126ac856125d7565b805f5b858110156126e757848403895281516126c88582612667565b94506126d38361267a565b925060208a019950506001810190506126af565b50829750879550505050505092915050565b5f6020820190508181035f8301526127118184612686565b905092915050565b61272281612332565b811461272c575f80fd5b50565b5f8135905061273d81612719565b92915050565b5f8060408385031215612759576127586122b6565b5b5f6127668582860161272f565b9250506020612777858286016122d4565b9150509250929050565b5f60a0820190506127945f830188612285565b6127a16020830187612285565b81810360408301526127b38186612565565b905081810360608301526127c78185612565565b905081810360808301526127db8184612565565b90509695505050505050565b5f8115159050919050565b6127fb816127e7565b82525050565b5f610100820190506128155f83018b612285565b612822602083018a612285565b61282f6040830189612285565b81810360608301526128418188612565565b905081810360808301526128558187612565565b905081810360a08301526128698186612565565b905061287860c0830185612343565b61288560e08301846127f2565b9998505050505050505050565b5f6080820190506128a55f830187612285565b81810360208301526128b78186612565565b905081810360408301526128cb8185612565565b90506128da6060830184612343565b95945050505050565b5f6020820190506128f65f8301846127f2565b92915050565b5f80fd5b5f80fd5b7f4e487b71000000000000000000000000000000000000000000000000000000005f52604160045260245ffd5b61293a826123e5565b810181811067ffffffffffffffff8211171561295957612958612904565b5b80604052505050565b5f61296b6122ad565b90506129778282612931565b919050565b5f67ffffffffffffffff82111561299657612995612904565b5b61299f826123e5565b9050602081019050919050565b828183375f83830152505050565b5f6129cc6129c78461297c565b612962565b9050828152602081018484840111156129e8576129e7612900565b5b6129f38482856129ac565b509392505050565b5f82601f830112612a0f57612a0e6128fc565b5b8135612a1f8482602086016129ba565b91505092915050565b5f805f60608486031215612a3f57612a3e6122b6565b5b5f612a4c868287016122d4565b935050602084013567ffffffffffffffff811115612a6d57612a6c6122ba565b5b612a79868287016129fb565b925050604084013567ffffffffffffffff811115612a9a57612a996122ba565b5b612aa6868287016129fb565b9150509250925092565b5f805f60608486031215612ac757612ac66122b6565b5b5f84013567ffffffffffffffff811115612ae457612ae36122ba565b5b612af0868287016129fb565b935050602084013567ffffffffffffffff811115612b1157612b106122ba565b5b612b1d868287016129fb565b925050604084013567ffffffffffffffff811115612b3e57612b3d6122ba565b5b612b4a868287016129fb565b9150509250925092565b5f60208284031215612b6957612b686122b6565b5b5f612b768482850161272f565b91505092915050565b7f5769746864726177616c732061726520636c6f73656420616674657220656e645f8201527f4461746500000000000000000000000000000000000000000000000000000000602082015250565b5f612bd9602483612555565b9150612be482612b7f565b604082019050919050565b5f6020820190508181035f830152612c0681612bcd565b9050919050565b7f43616e6e6f742077697468647261772061667465722066696e616c697a6174695f8201527f6f6e000000000000000000000000000000000000000000000000000000000000602082015250565b5f612c67602283612555565b9150612c7282612c0d565b604082019050919050565b5f6020820190508181035f830152612c9481612c5b565b9050919050565b7f596f7520617265206e6f742061207061727469636970616e74000000000000005f82015250565b5f612ccf601983612555565b9150612cda82612c9b565b602082019050919050565b5f6020820190508181035f830152612cfc81612cc3565b9050919050565b7f4e6f2062616c616e636520746f207769746864726177000000000000000000005f82015250565b5f612d37601683612555565b9150612d4282612d03565b602082019050919050565b5f6020820190508181035f830152612d6481612d2b565b9050919050565b7f4e487b71000000000000000000000000000000000000000000000000000000005f52603260045260245ffd5b7f4e487b71000000000000000000000000000000000000000000000000000000005f52601160045260245ffd5b5f612dcf8261227c565b9150612dda8361227c565b9250828203905081811115612df257612df1612d98565b5b92915050565b7f4e487b71000000000000000000000000000000000000000000000000000000005f52603160045260245ffd5b5f612e2f8261227c565b91507fffffffffffffffffffffffffffffffffffffffffffffffffffffffffffffffff8203612e6157612e60612d98565b5b600182019050919050565b7f4e487b71000000000000000000000000000000000000000000000000000000005f52602260045260245ffd5b5f6002820490506001821680612eb057607f821691505b602082108103612ec357612ec2612e6c565b5b50919050565b7f4f6e6c79206f776e65722063616e2066696e616c697a650000000000000000005f82015250565b5f612efd601783612555565b9150612f0882612ec9565b602082019050919050565b5f6020820190508181035f830152612f2a81612ef1565b9050919050565b7f416c72656164792066696e616c697a65640000000000000000000000000000005f82015250565b5f612f65601183612555565b9150612f7082612f31565b602082019050919050565b5f6020820190508181035f830152612f9281612f59565b9050919050565b7f4e6f206f666665727320617661696c61626c65000000000000000000000000005f82015250565b5f612fcd601383612555565b9150612fd882612f99565b602082019050919050565b5f6020820190508181035f830152612ffa81612fc1565b9050919050565b7f4e6f207061727469636970616e747300000000000000000000000000000000005f82015250565b5f613035600f83612555565b915061304082613001565b602082019050919050565b5f6020820190508181035f83015261306281613029565b9050919050565b5f6130738261227c565b915061307e8361227c565b925082820261308c8161227c565b915082820484148315176130a3576130a2612d98565b5b5092915050565b7f4e487b71000000000000000000000000000000000000000000000000000000005f52601260045260245ffd5b5f6130e18261227c565b91506130ec8361227c565b9250826130fc576130fb6130aa565b5b828204905092915050565b5f6131118261227c565b915061311c8361227c565b925082820190508082111561313457613133612d98565b5b92915050565b5f819050815f5260205f209050919050565b5f6020601f8301049050919050565b5f82821b905092915050565b5f600883026131967fffffffffffffffffffffffffffffffffffffffffffffffffffffffffffffffff8261315b565b6131a0868361315b565b95508019841693508086168417925050509392505050565b5f819050919050565b5f6131db6131d66131d18461227c565b6131b8565b61227c565b9050919050565b5f819050919050565b6131f4836131c1565b613208613200826131e2565b848454613167565b825550505050565b5f90565b61321c613210565b6132278184846131eb565b505050565b5b8181101561324a5761323f5f82613214565b60018101905061322d565b5050565b601f82111561328f576132608161313a565b6132698461314c565b81016020851015613278578190505b61328c6132848561314c565b83018261322c565b50505b505050565b5f82821c905092915050565b5f6132af5f1984600802613294565b1980831691505092915050565b5f6132c783836132a0565b9150826002028217905092915050565b6132e0826123a3565b67ffffffffffffffff8111156132f9576132f8612904565b5b6133038254612e99565b61330e82828561324e565b5f60209050601f83116001811461333f575f841561332d578287015190505b61333785826132bc565b86555061339e565b601f19841661334d8661313a565b5f5b828110156133745784890151825560018201915060208501945060208101905061334f565b86831015613391578489015161338d601f8916826132a0565b8355505b6001600288020188555050505b505050505050565b7f53656e7420455448206d75737420657175616c207072696365000000000000005f82015250565b5f6133da601983612555565b91506133e5826133a6565b602082019050919050565b5f6020820190508181035f830152613407816133ce565b9050919050565b7f4d6178696d756d207061727469636970616e74206c696d6974207265616368655f8201527f6400000000000000000000000000000000000000000000000000000000000000602082015250565b5f613468602183612555565b91506134738261340e565b604082019050919050565b5f6020820190508181035f8301526134958161345c565b9050919050565b7f507572636861736520706572696f642068617320656e646564000000000000005f82015250565b5f6134d0601983612555565b91506134db8261349c565b602082019050919050565b5f6020820190508181035f8301526134fd816134c4565b9050919050565b5f61350e8261227c565b91506135198361227c565b925082613529576135286130aa565b5b828206905092915050565b5f81905092915050565b5f613548826123a3565b6135528185613534565b93506135628185602086016123bd565b80840191505092915050565b7f2e000000000000000000000000000000000000000000000000000000000000005f82015250565b5f6135a2600183613534565b91506135ad8261356e565b600182019050919050565b7f20455448000000000000000000000000000000000000000000000000000000005f82015250565b5f6135ec600483613534565b91506135f7826135b8565b600482019050919050565b5f61360d828561353e565b915061361882613596565b9150613624828461353e565b915061362f826135e0565b91508190509392505050565b7f30300000000000000000000000000000000000000000000000000000000000005f82015250565b5f61366f600283613534565b915061367a8261363b565b600282019050919050565b5f61368f82613663565b915061369b828461353e565b915081905092915050565b7f30000000000000000000000000000000000000000000000000000000000000005f82015250565b5f6136da600183613534565b91506136e5826136a6565b600182019050919050565b5f6136fa826136ce565b9150613706828461353e565b91508190509291505056fea26469706673582212201f45489b90be79b8b6b8ce5058700188894ae680f682f609df70b77b9aeedcf764736f6c63430008140033",
  "linkReferences": {},
  "deployedLinkReferences": {},
  "immutableReferences": {},
  "inputSourceName": "project/contracts/BuyItem.sol",
  "buildInfoId": "solc-0_8_20-ec39708e5fa58590855c35e157039be38360f0d5"
}