{
  "_format": "hh3-artifact-1",
  "contractName": "BuyItem",
  "sourceName": "contracts/BuyItem.sol",
  "abi": [
    {
      "inputs": [
        {
          "internalType": "uint256",
          "name": "_endDate",
          "type": "uint256"
        },
        {
          "internalType": "uint256",
          "name": "_maxParticipantCount",
          "type": "uint256"
        },
        {
          "internalType": "uint256",
          "name": "_productId",
          "type": "uint256"
        },
        {
          "internalType": "string",
          "name": "_productSlug",
          "type": "string"
        }
      ],
      "stateMutability": "nonpayable",
      "type": "constructor"
    },
    {
      "inputs": [
        {
          "internalType": "address",
          "name": "",
          "type": "address"
        }
      ],
      "name": "deposits",
      "outputs": [
        {
          "internalType": "uint256",
          "name": "",
          "type": "uint256"
        }
      ],
      "stateMutability": "view",
      "type": "function"
    },
    {
      "inputs": [],
      "name": "endDate",
      "outputs": [
        {
          "internalType": "uint256",
          "name": "",
          "type": "uint256"
        }
      ],
      "stateMutability": "view",
      "type": "function"
    },
    {
      "inputs": [],
      "name": "getBalance",
      "outputs": [
        {
          "internalType": "uint256",
          "name": "",
          "type": "uint256"
        }
      ],
      "stateMutability": "view",
      "type": "function"
    },
    {
      "inputs": [],
      "name": "getParticipantInfo",
      "outputs": [
        {
          "internalType": "uint256",
          "name": "currentParticipants",
          "type": "uint256"
        },
        {
          "internalType": "uint256",
          "name": "maxParticipants",
          "type": "uint256"
        },
        {
          "internalType": "uint256",
          "name": "contractEndDate",
          "type": "uint256"
        },
        {
          "internalType": "uint256",
          "name": "contractProductId",
          "type": "uint256"
        },
        {
          "internalType": "string",
          "name": "contractProductSlug",
          "type": "string"
        }
      ],
      "stateMutability": "view",
      "type": "function"
    },
    {
      "inputs": [
        {
          "internalType": "address",
          "name": "",
          "type": "address"
        }
      ],
      "name": "hasParticipated",
      "outputs": [
        {
          "internalType": "bool",
          "name": "",
          "type": "bool"
        }
      ],
      "stateMutability": "view",
      "type": "function"
    },
    {
      "inputs": [],
      "name": "maxParticipantCount",
      "outputs": [
        {
          "internalType": "uint256",
          "name": "",
          "type": "uint256"
        }
      ],
      "stateMutability": "view",
      "type": "function"
    },
    {
      "inputs": [],
      "name": "participantCount",
      "outputs": [
        {
          "internalType": "uint256",
          "name": "",
          "type": "uint256"
        }
      ],
      "stateMutability": "view",
      "type": "function"
    },
    {
      "inputs": [],
      "name": "productId",
      "outputs": [
        {
          "internalType": "uint256",
          "name": "",
          "type": "uint256"
        }
      ],
      "stateMutability": "view",
      "type": "function"
    },
    {
      "inputs": [],
      "name": "productSlug",
      "outputs": [
        {
          "internalType": "string",
          "name": "",
          "type": "string"
        }
      ],
      "stateMutability": "view",
      "type": "function"
    },
    {
      "inputs": [
        {
          "internalType": "uint256",
          "name": "amount",
          "type": "uint256"
        }
      ],
      "name": "purchase",
      "outputs": [],
      "stateMutability": "payable",
      "type": "function"
    },
    {
      "inputs": [
        {
          "internalType": "address",
          "name": "",
          "type": "address"
        },
        {
          "internalType": "uint256",
          "name": "",
          "type": "uint256"
        }
      ],
      "name": "purchases",
      "outputs": [
        {
          "internalType": "uint256",
          "name": "productId",
          "type": "uint256"
        },
        {
          "internalType": "string",
          "name": "productSlug",
          "type": "string"
        },
        {
          "internalType": "uint256",
          "name": "amount",
          "type": "uint256"
        },
        {
          "internalType": "uint256",
          "name": "timestamp",
          "type": "uint256"
        }
      ],
      "stateMutability": "view",
      "type": "function"
    },
    {
      "inputs": [],
      "name": "withdraw",
      "outputs": [],
      "stateMutability": "nonpayable",
      "type": "function"
    }
  ],
  "bytecode": "0x608060405234801562000010575f80fd5b506040516200193d3803806200193d8339818101604052810190620000369190620002b4565b4284116200007b576040517f08c379a00000000000000000000000000000000000000000000000000000000081526004016200007290620003a0565b60405180910390fd5b5f8311620000c0576040517f08c379a0000000000000000000000000000000000000000000000000000000008152600401620000b79062000434565b60405180910390fd5b835f8190555082600281905550816003819055508060049081620000e5919062000682565b505f6001819055505050505062000766565b5f604051905090565b5f80fd5b5f80fd5b5f819050919050565b6200011c8162000108565b811462000127575f80fd5b50565b5f815190506200013a8162000111565b92915050565b5f80fd5b5f80fd5b5f601f19601f8301169050919050565b7f4e487b71000000000000000000000000000000000000000000000000000000005f52604160045260245ffd5b620001908262000148565b810181811067ffffffffffffffff82111715620001b257620001b162000158565b5b80604052505050565b5f620001c6620000f7565b9050620001d4828262000185565b919050565b5f67ffffffffffffffff821115620001f657620001f562000158565b5b620002018262000148565b9050602081019050919050565b5f5b838110156200022d57808201518184015260208101905062000210565b5f8484015250505050565b5f6200024e6200024884620001d9565b620001bb565b9050828152602081018484840111156200026d576200026c62000144565b5b6200027a8482856200020e565b509392505050565b5f82601f83011262000299576200029862000140565b5b8151620002ab84826020860162000238565b91505092915050565b5f805f8060808587031215620002cf57620002ce62000100565b5b5f620002de878288016200012a565b9450506020620002f1878288016200012a565b935050604062000304878288016200012a565b925050606085015167ffffffffffffffff81111562000328576200032762000104565b5b620003368782880162000282565b91505092959194509250565b5f82825260208201905092915050565b7f456e642064617465206d75737420626520696e207468652066757475726500005f82015250565b5f62000388601e8362000342565b9150620003958262000352565b602082019050919050565b5f6020820190508181035f830152620003b9816200037a565b9050919050565b7f4d6178207061727469636970616e7420636f756e74206d7573742062652067725f8201527f6561746572207468616e20300000000000000000000000000000000000000000602082015250565b5f6200041c602c8362000342565b91506200042982620003c0565b604082019050919050565b5f6020820190508181035f8301526200044d816200040e565b9050919050565b5f81519050919050565b7f4e487b71000000000000000000000000000000000000000000000000000000005f52602260045260245ffd5b5f6002820490506001821680620004a357607f821691505b602082108103620004b957620004b86200045e565b5b50919050565b5f819050815f5260205f209050919050565b5f6020601f8301049050919050565b5f82821b905092915050565b5f600883026200051d7fffffffffffffffffffffffffffffffffffffffffffffffffffffffffffffffff82620004e0565b620005298683620004e0565b95508019841693508086168417925050509392505050565b5f819050919050565b5f6200056a620005646200055e8462000108565b62000541565b62000108565b9050919050565b5f819050919050565b62000585836200054a565b6200059d620005948262000571565b848454620004ec565b825550505050565b5f90565b620005b3620005a5565b620005c08184846200057a565b505050565b5b81811015620005e757620005db5f82620005a9565b600181019050620005c6565b5050565b601f82111562000636576200060081620004bf565b6200060b84620004d1565b810160208510156200061b578190505b620006336200062a85620004d1565b830182620005c5565b50505b505050565b5f82821c905092915050565b5f620006585f19846008026200063b565b1980831691505092915050565b5f62000672838362000647565b9150826002028217905092915050565b6200068d8262000454565b67ffffffffffffffff811115620006a957620006a862000158565b5b620006b582546200048b565b620006c2828285620005eb565b5f60209050601f831160018114620006f8575f8415620006e3578287015190505b620006ef858262000665565b8655506200075e565b601f1984166200070886620004bf565b5f5b8281101562000731578489015182556001820191506020850194506020810190506200070a565b868310156200075157848901516200074d601f89168262000647565b8355505b6001600288020188555050505b505050505050565b6111c980620007745f395ff3fe6080604052600436106100a6575f3560e01c8063b4fb3ee311610063578063b4fb3ee3146101ab578063c24a0f8b146101e7578063c462a40814610211578063c5ce39111461023b578063efef39a114610265578063fc7e286d14610281576100a6565b806312065fe0146100aa578063362f04c0146100d45780633ccfd60b146100fe57806352d3f849146101145780636bd45552146101535780637803595014610181575b5f80fd5b3480156100b5575f80fd5b506100be6102bd565b6040516100cb9190610956565b60405180910390f35b3480156100df575f80fd5b506100e86102c4565b6040516100f59190610956565b60405180910390f35b348015610109575f80fd5b506101126102ca565b005b34801561011f575f80fd5b5061013a600480360381019061013591906109f7565b61041a565b60405161014a9493929190610abf565b60405180910390f35b34801561015e575f80fd5b506101676104e6565b604051610178959493929190610b09565b60405180910390f35b34801561018c575f80fd5b50610195610594565b6040516101a29190610b61565b60405180910390f35b3480156101b6575f80fd5b506101d160048036038101906101cc9190610b81565b610620565b6040516101de9190610bc6565b60405180910390f35b3480156101f2575f80fd5b506101fb61063d565b6040516102089190610956565b60405180910390f35b34801561021c575f80fd5b50610225610642565b6040516102329190610956565b60405180910390f35b348015610246575f80fd5b5061024f610648565b60405161025c9190610956565b60405180910390f35b61027f600480360381019061027a9190610bdf565b61064e565b005b34801561028c575f80fd5b506102a760048036038101906102a29190610b81565b610929565b6040516102b49190610956565b60405180910390f35b5f47905090565b60015481565b5f5442111561030e576040517f08c379a000000000000000000000000000000000000000000000000000000000815260040161030590610c7a565b60405180910390fd5b5f60065f3373ffffffffffffffffffffffffffffffffffffffff1673ffffffffffffffffffffffffffffffffffffffff1681526020019081526020015f205490505f8111610391576040517f08c379a000000000000000000000000000000000000000000000000000000000815260040161038890610ce2565b60405180910390fd5b5f60065f3373ffffffffffffffffffffffffffffffffffffffff1673ffffffffffffffffffffffffffffffffffffffff1681526020019081526020015f20819055503373ffffffffffffffffffffffffffffffffffffffff166108fc8290811502906040515f60405180830381858888f19350505050158015610416573d5f803e3d5ffd5b5050565b6005602052815f5260405f208181548110610433575f80fd5b905f5260205f2090600402015f9150915050805f01549080600101805461045990610d2d565b80601f016020809104026020016040519081016040528092919081815260200182805461048590610d2d565b80156104d05780601f106104a7576101008083540402835291602001916104d0565b820191905f5260205f20905b8154815290600101906020018083116104b357829003601f168201915b5050505050908060020154908060030154905084565b5f805f8060606001546002545f54600354600480805461050590610d2d565b80601f016020809104026020016040519081016040528092919081815260200182805461053190610d2d565b801561057c5780601f106105535761010080835404028352916020019161057c565b820191905f5260205f20905b81548152906001019060200180831161055f57829003601f168201915b50505050509050945094509450945094509091929394565b600480546105a190610d2d565b80601f01602080910402602001604051908101604052809291908181526020018280546105cd90610d2d565b80156106185780601f106105ef57610100808354040283529160200191610618565b820191905f5260205f20905b8154815290600101906020018083116105fb57829003601f168201915b505050505081565b6007602052805f5260405f205f915054906101000a900460ff1681565b5f5481565b60025481565b60035481565b803414610690576040517f08c379a000000000000000000000000000000000000000000000000000000000815260040161068790610da7565b60405180910390fd5b600254600154106106d6576040517f08c379a00000000000000000000000000000000000000000000000000000000081526004016106cd90610e35565b60405180910390fd5b60075f3373ffffffffffffffffffffffffffffffffffffffff1673ffffffffffffffffffffffffffffffffffffffff1681526020019081526020015f205f9054906101000a900460ff1661079157600160075f3373ffffffffffffffffffffffffffffffffffffffff1673ffffffffffffffffffffffffffffffffffffffff1681526020019081526020015f205f6101000a81548160ff02191690831515021790555060015f81548092919061078b90610e80565b91905055505b60055f3373ffffffffffffffffffffffffffffffffffffffff1673ffffffffffffffffffffffffffffffffffffffff1681526020019081526020015f2060405180608001604052806003548152602001600480546107ee90610d2d565b80601f016020809104026020016040519081016040528092919081815260200182805461081a90610d2d565b80156108655780601f1061083c57610100808354040283529160200191610865565b820191905f5260205f20905b81548152906001019060200180831161084857829003601f168201915b5050505050815260200183815260200142815250908060018154018082558091505060019003905f5260205f2090600402015f909190919091505f820151815f015560208201518160010190816108bc9190611091565b50604082015181600201556060820151816003015550503460065f3373ffffffffffffffffffffffffffffffffffffffff1673ffffffffffffffffffffffffffffffffffffffff1681526020019081526020015f205f82825461091f9190611160565b9250508190555050565b6006602052805f5260405f205f915090505481565b5f819050919050565b6109508161093e565b82525050565b5f6020820190506109695f830184610947565b92915050565b5f80fd5b5f73ffffffffffffffffffffffffffffffffffffffff82169050919050565b5f61099c82610973565b9050919050565b6109ac81610992565b81146109b6575f80fd5b50565b5f813590506109c7816109a3565b92915050565b6109d68161093e565b81146109e0575f80fd5b50565b5f813590506109f1816109cd565b92915050565b5f8060408385031215610a0d57610a0c61096f565b5b5f610a1a858286016109b9565b9250506020610a2b858286016109e3565b9150509250929050565b5f81519050919050565b5f82825260208201905092915050565b5f5b83811015610a6c578082015181840152602081019050610a51565b5f8484015250505050565b5f601f19601f8301169050919050565b5f610a9182610a35565b610a9b8185610a3f565b9350610aab818560208601610a4f565b610ab481610a77565b840191505092915050565b5f608082019050610ad25f830187610947565b8181036020830152610ae48186610a87565b9050610af36040830185610947565b610b006060830184610947565b95945050505050565b5f60a082019050610b1c5f830188610947565b610b296020830187610947565b610b366040830186610947565b610b436060830185610947565b8181036080830152610b558184610a87565b90509695505050505050565b5f6020820190508181035f830152610b798184610a87565b905092915050565b5f60208284031215610b9657610b9561096f565b5b5f610ba3848285016109b9565b91505092915050565b5f8115159050919050565b610bc081610bac565b82525050565b5f602082019050610bd95f830184610bb7565b92915050565b5f60208284031215610bf457610bf361096f565b5b5f610c01848285016109e3565b91505092915050565b7f5769746864726177616c732061726520636c6f73656420616674657220656e645f8201527f4461746500000000000000000000000000000000000000000000000000000000602082015250565b5f610c64602483610a3f565b9150610c6f82610c0a565b604082019050919050565b5f6020820190508181035f830152610c9181610c58565b9050919050565b7f4e6f2062616c616e636520746f207769746864726177000000000000000000005f82015250565b5f610ccc601683610a3f565b9150610cd782610c98565b602082019050919050565b5f6020820190508181035f830152610cf981610cc0565b9050919050565b7f4e487b71000000000000000000000000000000000000000000000000000000005f52602260045260245ffd5b5f6002820490506001821680610d4457607f821691505b602082108103610d5757610d56610d00565b5b50919050565b7f53656e7420455448206d75737420657175616c20616d6f756e740000000000005f82015250565b5f610d91601a83610a3f565b9150610d9c82610d5d565b602082019050919050565b5f6020820190508181035f830152610dbe81610d85565b9050919050565b7f4d6178696d756d207061727469636970616e74206c696d6974207265616368655f8201527f6400000000000000000000000000000000000000000000000000000000000000602082015250565b5f610e1f602183610a3f565b9150610e2a82610dc5565b604082019050919050565b5f6020820190508181035f830152610e4c81610e13565b9050919050565b7f4e487b71000000000000000000000000000000000000000000000000000000005f52601160045260245ffd5b5f610e8a8261093e565b91507fffffffffffffffffffffffffffffffffffffffffffffffffffffffffffffffff8203610ebc57610ebb610e53565b5b600182019050919050565b7f4e487b71000000000000000000000000000000000000000000000000000000005f52604160045260245ffd5b5f819050815f5260205f209050919050565b5f6020601f8301049050919050565b5f82821b905092915050565b5f60088302610f507fffffffffffffffffffffffffffffffffffffffffffffffffffffffffffffffff82610f15565b610f5a8683610f15565b95508019841693508086168417925050509392505050565b5f819050919050565b5f610f95610f90610f8b8461093e565b610f72565b61093e565b9050919050565b5f819050919050565b610fae83610f7b565b610fc2610fba82610f9c565b848454610f21565b825550505050565b5f90565b610fd6610fca565b610fe1818484610fa5565b505050565b5b8181101561100457610ff95f82610fce565b600181019050610fe7565b5050565b601f8211156110495761101a81610ef4565b61102384610f06565b81016020851015611032578190505b61104661103e85610f06565b830182610fe6565b50505b505050565b5f82821c905092915050565b5f6110695f198460080261104e565b1980831691505092915050565b5f611081838361105a565b9150826002028217905092915050565b61109a82610a35565b67ffffffffffffffff8111156110b3576110b2610ec7565b5b6110bd8254610d2d565b6110c8828285611008565b5f60209050601f8311600181146110f9575f84156110e7578287015190505b6110f18582611076565b865550611158565b601f19841661110786610ef4565b5f5b8281101561112e57848901518255600182019150602085019450602081019050611109565b8683101561114b5784890151611147601f89168261105a565b8355505b6001600288020188555050505b505050505050565b5f61116a8261093e565b91506111758361093e565b925082820190508082111561118d5761118c610e53565b5b9291505056fea26469706673582212200e908ef7384327302039a8917ca09b81e0b3fb7293ddd8e1b11b1cf5f9c1bc5264736f6c63430008140033",
  "linkReferences": {},
  "deployedLinkReferences": {},
  "immutableReferences": {},
  "inputSourceName": "project/contracts/BuyItem.sol",
  "buildInfoId": "solc-0_8_20-c0ea40bcb4332ea5788c28ded5b187a8542d11e6"
}