{
  "_format": "hh3-artifact-1",
  "contractName": "BuyItem",
  "sourceName": "contracts/BuyItem.sol",
  "abi": [
    {
      "inputs": [
        {
          "internalType": "uint256",
          "name": "_maxParticipantCount",
          "type": "uint256"
        },
        {
          "internalType": "uint256",
          "name": "_price",
          "type": "uint256"
        },
        {
          "internalType": "string",
          "name": "_title",
          "type": "string"
        },
        {
          "internalType": "string",
          "name": "_description",
          "type": "string"
        }
      ],
      "stateMutability": "payable",
      "type": "constructor"
    },
    {
      "inputs": [
        {
          "internalType": "address",
          "name": "",
          "type": "address"
        }
      ],
      "name": "deposits",
      "outputs": [
        {
          "internalType": "uint256",
          "name": "",
          "type": "uint256"
        }
      ],
      "stateMutability": "view",
      "type": "function"
    },
    {
      "inputs": [],
      "name": "description",
      "outputs": [
        {
          "internalType": "string",
          "name": "",
          "type": "string"
        }
      ],
      "stateMutability": "view",
      "type": "function"
    },
    {
      "inputs": [],
      "name": "endDate",
      "outputs": [
        {
          "internalType": "uint256",
          "name": "",
          "type": "uint256"
        }
      ],
      "stateMutability": "view",
      "type": "function"
    },
    {
      "inputs": [],
      "name": "finalPrice",
      "outputs": [
        {
          "internalType": "uint256",
          "name": "",
          "type": "uint256"
        }
      ],
      "stateMutability": "view",
      "type": "function"
    },
    {
      "inputs": [],
      "name": "finalize",
      "outputs": [],
      "stateMutability": "nonpayable",
      "type": "function"
    },
    {
      "inputs": [],
      "name": "getBalance",
      "outputs": [
        {
          "internalType": "uint256",
          "name": "",
          "type": "uint256"
        }
      ],
      "stateMutability": "view",
      "type": "function"
    },
    {
      "inputs": [],
      "name": "getOffers",
      "outputs": [
        {
          "components": [
            {
              "internalType": "uint256",
              "name": "price",
              "type": "uint256"
            },
            {
              "internalType": "string",
              "name": "productName",
              "type": "string"
            },
            {
              "internalType": "string",
              "name": "productLink",
              "type": "string"
            },
            {
              "internalType": "address",
              "name": "walletAddress",
              "type": "address"
            }
          ],
          "internalType": "struct BuyItem.Offer[]",
          "name": "",
          "type": "tuple[]"
        }
      ],
      "stateMutability": "view",
      "type": "function"
    },
    {
      "inputs": [],
      "name": "getOffersCount",
      "outputs": [
        {
          "internalType": "uint256",
          "name": "",
          "type": "uint256"
        }
      ],
      "stateMutability": "view",
      "type": "function"
    },
    {
      "inputs": [],
      "name": "getParticipantInfo",
      "outputs": [
        {
          "internalType": "uint256",
          "name": "currentParticipants",
          "type": "uint256"
        },
        {
          "internalType": "uint256",
          "name": "maxParticipants",
          "type": "uint256"
        },
        {
          "internalType": "uint256",
          "name": "contractEndDate",
          "type": "uint256"
        },
        {
          "internalType": "string",
          "name": "priceETH",
          "type": "string"
        },
        {
          "internalType": "string",
          "name": "contractTitle",
          "type": "string"
        },
        {
          "internalType": "string",
          "name": "contractDescription",
          "type": "string"
        },
        {
          "internalType": "address",
          "name": "contractSenderCompany",
          "type": "address"
        },
        {
          "internalType": "bool",
          "name": "contractIsFinalized",
          "type": "bool"
        }
      ],
      "stateMutability": "view",
      "type": "function"
    },
    {
      "inputs": [
        {
          "internalType": "address",
          "name": "",
          "type": "address"
        }
      ],
      "name": "hasParticipated",
      "outputs": [
        {
          "internalType": "bool",
          "name": "",
          "type": "bool"
        }
      ],
      "stateMutability": "view",
      "type": "function"
    },
    {
      "inputs": [],
      "name": "isFinalized",
      "outputs": [
        {
          "internalType": "bool",
          "name": "",
          "type": "bool"
        }
      ],
      "stateMutability": "view",
      "type": "function"
    },
    {
      "inputs": [
        {
          "internalType": "address",
          "name": "_address",
          "type": "address"
        }
      ],
      "name": "isParticipant",
      "outputs": [
        {
          "internalType": "bool",
          "name": "",
          "type": "bool"
        }
      ],
      "stateMutability": "view",
      "type": "function"
    },
    {
      "inputs": [],
      "name": "maxParticipantCount",
      "outputs": [
        {
          "internalType": "uint256",
          "name": "",
          "type": "uint256"
        }
      ],
      "stateMutability": "view",
      "type": "function"
    },
    {
      "inputs": [
        {
          "internalType": "uint256",
          "name": "",
          "type": "uint256"
        }
      ],
      "name": "offers",
      "outputs": [
        {
          "internalType": "uint256",
          "name": "price",
          "type": "uint256"
        },
        {
          "internalType": "string",
          "name": "productName",
          "type": "string"
        },
        {
          "internalType": "string",
          "name": "productLink",
          "type": "string"
        },
        {
          "internalType": "address",
          "name": "walletAddress",
          "type": "address"
        }
      ],
      "stateMutability": "view",
      "type": "function"
    },
    {
      "inputs": [],
      "name": "owner",
      "outputs": [
        {
          "internalType": "address",
          "name": "",
          "type": "address"
        }
      ],
      "stateMutability": "view",
      "type": "function"
    },
    {
      "inputs": [
        {
          "internalType": "uint256",
          "name": "",
          "type": "uint256"
        }
      ],
      "name": "participants",
      "outputs": [
        {
          "internalType": "address",
          "name": "",
          "type": "address"
        }
      ],
      "stateMutability": "view",
      "type": "function"
    },
    {
      "inputs": [],
      "name": "price",
      "outputs": [
        {
          "internalType": "uint256",
          "name": "",
          "type": "uint256"
        }
      ],
      "stateMutability": "view",
      "type": "function"
    },
    {
      "inputs": [],
      "name": "purchase",
      "outputs": [],
      "stateMutability": "payable",
      "type": "function"
    },
    {
      "inputs": [],
      "name": "senderCompany",
      "outputs": [
        {
          "internalType": "address",
          "name": "",
          "type": "address"
        }
      ],
      "stateMutability": "view",
      "type": "function"
    },
    {
      "inputs": [
        {
          "internalType": "uint256",
          "name": "_price",
          "type": "uint256"
        },
        {
          "internalType": "string",
          "name": "_productName",
          "type": "string"
        },
        {
          "internalType": "string",
          "name": "_productLink",
          "type": "string"
        }
      ],
      "name": "submitOffer",
      "outputs": [],
      "stateMutability": "payable",
      "type": "function"
    },
    {
      "inputs": [],
      "name": "title",
      "outputs": [
        {
          "internalType": "string",
          "name": "",
          "type": "string"
        }
      ],
      "stateMutability": "view",
      "type": "function"
    },
    {
      "inputs": [],
      "name": "withdraw",
      "outputs": [],
      "stateMutability": "nonpayable",
      "type": "function"
    }
  ],
  "bytecode": "0x608060405260405162003bc038038062003bc08339818101604052810190620000299190620004be565b5f84116200006e576040517f08c379a00000000000000000000000000000000000000000000000000000000081526004016200006590620005ef565b60405180910390fd5b5f8311620000b3576040517f08c379a0000000000000000000000000000000000000000000000000000000008152600401620000aa906200065d565b60405180910390fd5b823414620000f8576040517f08c379a0000000000000000000000000000000000000000000000000000000008152600401620000ef90620006cb565b60405180910390fd5b62093a804262000109919062000718565b5f81905550836001819055508260028190555081600690816200012d919062000980565b5080600790816200013f919062000980565b505f60035f6101000a81548160ff02191690831515021790555073eb4df82103ec493614c15f96ccd2be93c69cf09960055f6101000a81548173ffffffffffffffffffffffffffffffffffffffff021916908373ffffffffffffffffffffffffffffffffffffffff1602179055505f60085f6101000a81548173ffffffffffffffffffffffffffffffffffffffff021916908373ffffffffffffffffffffffffffffffffffffffff1602179055506001600c5f3373ffffffffffffffffffffffffffffffffffffffff1673ffffffffffffffffffffffffffffffffffffffff1681526020019081526020015f205f6101000a81548160ff021916908315150217905550600a33908060018154018082558091505060019003905f5260205f20015f9091909190916101000a81548173ffffffffffffffffffffffffffffffffffffffff021916908373ffffffffffffffffffffffffffffffffffffffff16021790555034600b5f3373ffffffffffffffffffffffffffffffffffffffff1673ffffffffffffffffffffffffffffffffffffffff1681526020019081526020015f205f828254620002f0919062000718565b925050819055505050505062000a64565b5f604051905090565b5f80fd5b5f80fd5b5f819050919050565b620003268162000312565b811462000331575f80fd5b50565b5f8151905062000344816200031b565b92915050565b5f80fd5b5f80fd5b5f601f19601f8301169050919050565b7f4e487b71000000000000000000000000000000000000000000000000000000005f52604160045260245ffd5b6200039a8262000352565b810181811067ffffffffffffffff82111715620003bc57620003bb62000362565b5b80604052505050565b5f620003d062000301565b9050620003de82826200038f565b919050565b5f67ffffffffffffffff8211156200040057620003ff62000362565b5b6200040b8262000352565b9050602081019050919050565b5f5b83811015620004375780820151818401526020810190506200041a565b5f8484015250505050565b5f620004586200045284620003e3565b620003c5565b9050828152602081018484840111156200047757620004766200034e565b5b6200048484828562000418565b509392505050565b5f82601f830112620004a357620004a26200034a565b5b8151620004b584826020860162000442565b91505092915050565b5f805f8060808587031215620004d957620004d86200030a565b5b5f620004e88782880162000334565b9450506020620004fb8782880162000334565b935050604085015167ffffffffffffffff8111156200051f576200051e6200030e565b5b6200052d878288016200048c565b925050606085015167ffffffffffffffff8111156200055157620005506200030e565b5b6200055f878288016200048c565b91505092959194509250565b5f82825260208201905092915050565b7f4d6178207061727469636970616e7420636f756e74206d7573742062652067725f8201527f6561746572207468616e20300000000000000000000000000000000000000000602082015250565b5f620005d7602c836200056b565b9150620005e4826200057b565b604082019050919050565b5f6020820190508181035f8301526200060881620005c9565b9050919050565b7f5072696365206d7573742062652067726561746572207468616e2030000000005f82015250565b5f62000645601c836200056b565b915062000652826200060f565b602082019050919050565b5f6020820190508181035f830152620006768162000637565b9050919050565b7f4d7573742073656e6420657861637420707269636520616d6f756e74000000005f82015250565b5f620006b3601c836200056b565b9150620006c0826200067d565b602082019050919050565b5f6020820190508181035f830152620006e481620006a5565b9050919050565b7f4e487b71000000000000000000000000000000000000000000000000000000005f52601160045260245ffd5b5f620007248262000312565b9150620007318362000312565b92508282019050808211156200074c576200074b620006eb565b5b92915050565b5f81519050919050565b7f4e487b71000000000000000000000000000000000000000000000000000000005f52602260045260245ffd5b5f6002820490506001821680620007a157607f821691505b602082108103620007b757620007b66200075c565b5b50919050565b5f819050815f5260205f209050919050565b5f6020601f8301049050919050565b5f82821b905092915050565b5f600883026200081b7fffffffffffffffffffffffffffffffffffffffffffffffffffffffffffffffff82620007de565b620008278683620007de565b95508019841693508086168417925050509392505050565b5f819050919050565b5f62000868620008626200085c8462000312565b6200083f565b62000312565b9050919050565b5f819050919050565b620008838362000848565b6200089b62000892826200086f565b848454620007ea565b825550505050565b5f90565b620008b1620008a3565b620008be81848462000878565b505050565b5b81811015620008e557620008d95f82620008a7565b600181019050620008c4565b5050565b601f8211156200093457620008fe81620007bd565b6200090984620007cf565b8101602085101562000919578190505b620009316200092885620007cf565b830182620008c3565b50505b505050565b5f82821c905092915050565b5f620009565f198460080262000939565b1980831691505092915050565b5f62000970838362000945565b9150826002028217905092915050565b6200098b8262000752565b67ffffffffffffffff811115620009a757620009a662000362565b5b620009b3825462000789565b620009c0828285620008e9565b5f60209050601f831160018114620009f6575f8415620009e1578287015190505b620009ed858262000963565b86555062000a5c565b601f19841662000a0686620007bd565b5f5b8281101562000a2f5784890151825560018201915060208501945060208101905062000a08565b8683101562000a4f578489015162000a4b601f89168262000945565b8355505b6001600288020188555050505b505050505050565b61314e8062000a725f395ff3fe608060405260043610610134575f3560e01c80638d4e4083116100aa578063a035b1fe1161006e578063a035b1fe146103c2578063a6b513ee146103ec578063b4fb3ee314610416578063c24a0f8b14610452578063c462a4081461047c578063fc7e286d146104a657610134565b80638d4e4083146102ec5780638da5cb5b14610316578063903dd9ed14610340578063929066f51461036a5780639bbd24c8146103a657610134565b80634a79d50c116100fc5780634a79d50c146102085780634bb278f31461023257806364edfbf0146102485780636bd45552146102525780637284e416146102835780638a72ea6a146102ad57610134565b806312065fe0146101385780632f2e7b751461016257806335c1d3491461018c5780633ccfd60b146101c85780633ee992ee146101de575b5f80fd5b348015610143575f80fd5b5061014c6104e2565b6040516101599190611d53565b60405180910390f35b34801561016d575f80fd5b506101766104e9565b6040516101839190611d53565b60405180910390f35b348015610197575f80fd5b506101b260048036038101906101ad9190611da7565b6104f5565b6040516101bf9190611e11565b60405180910390f35b3480156101d3575f80fd5b506101dc610530565b005b3480156101e9575f80fd5b506101f261092c565b6040516101ff9190611ff4565b60405180910390f35b348015610213575f80fd5b5061021c610b06565b604051610229919061205c565b60405180910390f35b34801561023d575f80fd5b50610246610b92565b005b610250611061565b005b34801561025d575f80fd5b50610266611315565b60405161027a989796959493929190612096565b60405180910390f35b34801561028e575f80fd5b5061029761149d565b6040516102a4919061205c565b60405180910390f35b3480156102b8575f80fd5b506102d360048036038101906102ce9190611da7565b611529565b6040516102e39493929190612127565b60405180910390f35b3480156102f7575f80fd5b5061030061168f565b60405161030d9190612178565b60405180910390f35b348015610321575f80fd5b5061032a6116a1565b6040516103379190611e11565b60405180910390f35b34801561034b575f80fd5b506103546116c6565b6040516103619190611e11565b60405180910390f35b348015610375575f80fd5b50610390600480360381019061038b91906121bb565b6116eb565b60405161039d9190612178565b60405180910390f35b6103c060048036038101906103bb9190612312565b61173d565b005b3480156103cd575f80fd5b506103d6611a94565b6040516103e39190611d53565b60405180910390f35b3480156103f7575f80fd5b50610400611a9a565b60405161040d9190611d53565b60405180910390f35b348015610421575f80fd5b5061043c600480360381019061043791906121bb565b611aa0565b6040516104499190612178565b60405180910390f35b34801561045d575f80fd5b50610466611abd565b6040516104739190611d53565b60405180910390f35b348015610487575f80fd5b50610490611ac2565b60405161049d9190611d53565b60405180910390f35b3480156104b1575f80fd5b506104cc60048036038101906104c791906121bb565b611ac8565b6040516104d99190611d53565b60405180910390f35b5f47905090565b5f600980549050905090565b600a8181548110610504575f80fd5b905f5260205f20015f915054906101000a900473ffffffffffffffffffffffffffffffffffffffff1681565b5f54421115610574576040517f08c379a000000000000000000000000000000000000000000000000000000000815260040161056b9061240a565b60405180910390fd5b60035f9054906101000a900460ff16156105c3576040517f08c379a00000000000000000000000000000000000000000000000000000000081526004016105ba90612498565b60405180910390fd5b600c5f3373ffffffffffffffffffffffffffffffffffffffff1673ffffffffffffffffffffffffffffffffffffffff1681526020019081526020015f205f9054906101000a900460ff1661064c576040517f08c379a000000000000000000000000000000000000000000000000000000000815260040161064390612500565b60405180910390fd5b5f600b5f3373ffffffffffffffffffffffffffffffffffffffff1673ffffffffffffffffffffffffffffffffffffffff1681526020019081526020015f205490505f81116106cf576040517f08c379a00000000000000000000000000000000000000000000000000000000081526004016106c690612568565b60405180910390fd5b5f600c5f3373ffffffffffffffffffffffffffffffffffffffff1673ffffffffffffffffffffffffffffffffffffffff1681526020019081526020015f205f6101000a81548160ff0219169083151502179055505f5b600a805490508110156108a2573373ffffffffffffffffffffffffffffffffffffffff16600a828154811061075d5761075c612586565b5b905f5260205f20015f9054906101000a900473ffffffffffffffffffffffffffffffffffffffff1673ffffffffffffffffffffffffffffffffffffffff160361088f57600a6001600a805490506107b491906125e0565b815481106107c5576107c4612586565b5b905f5260205f20015f9054906101000a900473ffffffffffffffffffffffffffffffffffffffff16600a828154811061080157610800612586565b5b905f5260205f20015f6101000a81548173ffffffffffffffffffffffffffffffffffffffff021916908373ffffffffffffffffffffffffffffffffffffffff160217905550600a80548061085857610857612613565b5b600190038181905f5260205f20015f6101000a81549073ffffffffffffffffffffffffffffffffffffffff021916905590556108a2565b808061089a90612640565b915050610725565b505f600b5f3373ffffffffffffffffffffffffffffffffffffffff1673ffffffffffffffffffffffffffffffffffffffff1681526020019081526020015f20819055503373ffffffffffffffffffffffffffffffffffffffff166108fc8290811502906040515f60405180830381858888f19350505050158015610928573d5f803e3d5ffd5b5050565b60606009805480602002602001604051908101604052809291908181526020015f905b82821015610afd578382905f5260205f2090600402016040518060800160405290815f8201548152602001600182018054610989906126b4565b80601f01602080910402602001604051908101604052809291908181526020018280546109b5906126b4565b8015610a005780601f106109d757610100808354040283529160200191610a00565b820191905f5260205f20905b8154815290600101906020018083116109e357829003601f168201915b50505050508152602001600282018054610a19906126b4565b80601f0160208091040260200160405190810160405280929190818152602001828054610a45906126b4565b8015610a905780601f10610a6757610100808354040283529160200191610a90565b820191905f5260205f20905b815481529060010190602001808311610a7357829003601f168201915b50505050508152602001600382015f9054906101000a900473ffffffffffffffffffffffffffffffffffffffff1673ffffffffffffffffffffffffffffffffffffffff1673ffffffffffffffffffffffffffffffffffffffff16815250508152602001906001019061094f565b50505050905090565b60068054610b13906126b4565b80601f0160208091040260200160405190810160405280929190818152602001828054610b3f906126b4565b8015610b8a5780601f10610b6157610100808354040283529160200191610b8a565b820191905f5260205f20905b815481529060010190602001808311610b6d57829003601f168201915b505050505081565b60055f9054906101000a900473ffffffffffffffffffffffffffffffffffffffff1673ffffffffffffffffffffffffffffffffffffffff163373ffffffffffffffffffffffffffffffffffffffff1614610c21576040517f08c379a0000000000000000000000000000000000000000000000000000000008152600401610c189061272e565b60405180910390fd5b60035f9054906101000a900460ff1615610c70576040517f08c379a0000000000000000000000000000000000000000000000000000000008152600401610c6790612796565b60405180910390fd5b5f60098054905011610cb7576040517f08c379a0000000000000000000000000000000000000000000000000000000008152600401610cae906127fe565b60405180910390fd5b5f600a8054905011610cfe576040517f08c379a0000000000000000000000000000000000000000000000000000000008152600401610cf590612866565b60405180910390fd5b5f60095f81548110610d1357610d12612586565b5b905f5260205f2090600402015f015490505f60095f81548110610d3957610d38612586565b5b905f5260205f2090600402016003015f9054906101000a900473ffffffffffffffffffffffffffffffffffffffff1690505f600190505b600980549050811015610e25578260098281548110610d9257610d91612586565b5b905f5260205f2090600402015f01541015610e125760098181548110610dbb57610dba612586565b5b905f5260205f2090600402015f0154925060098181548110610de057610ddf612586565b5b905f5260205f2090600402016003015f9054906101000a900473ffffffffffffffffffffffffffffffffffffffff1691505b8080610e1d90612640565b915050610d70565b50816004819055508060085f6101000a81548173ffffffffffffffffffffffffffffffffffffffff021916908373ffffffffffffffffffffffffffffffffffffffff160217905550600160035f6101000a81548160ff0219169083151502179055505f600a80549050600454610e9b9190612884565b90505f6064600a83610ead9190612884565b610eb791906128f2565b90505f8183610ec691906125e0565b90505f600a80549050600454600254610edf91906125e0565b610ee99190612884565b90505f600a8054905082610efd91906128f2565b90505f5b600a80549050811015610fae575f600a8281548110610f2357610f22612586565b5b905f5260205f20015f9054906101000a900473ffffffffffffffffffffffffffffffffffffffff1690505f831115610f9a578073ffffffffffffffffffffffffffffffffffffffff166108fc8490811502906040515f60405180830381858888f19350505050158015610f98573d5f803e3d5ffd5b505b508080610fa690612640565b915050610f01565b5060055f9054906101000a900473ffffffffffffffffffffffffffffffffffffffff1673ffffffffffffffffffffffffffffffffffffffff166108fc8590811502906040515f60405180830381858888f19350505050158015611013573d5f803e3d5ffd5b508573ffffffffffffffffffffffffffffffffffffffff166108fc8490811502906040515f60405180830381858888f19350505050158015611057573d5f803e3d5ffd5b5050505050505050565b60025434146110a5576040517f08c379a000000000000000000000000000000000000000000000000000000000815260040161109c9061296c565b60405180910390fd5b600154600a80549050106110ee576040517f08c379a00000000000000000000000000000000000000000000000000000000081526004016110e5906129fa565b60405180910390fd5b60035f9054906101000a900460ff161561113d576040517f08c379a000000000000000000000000000000000000000000000000000000000815260040161113490612a62565b60405180910390fd5b5f54421115611181576040517f08c379a000000000000000000000000000000000000000000000000000000000815260040161117890612aca565b60405180910390fd5b600c5f3373ffffffffffffffffffffffffffffffffffffffff1673ffffffffffffffffffffffffffffffffffffffff1681526020019081526020015f205f9054906101000a900460ff161561120b576040517f08c379a000000000000000000000000000000000000000000000000000000000815260040161120290612b32565b60405180910390fd5b6001600c5f3373ffffffffffffffffffffffffffffffffffffffff1673ffffffffffffffffffffffffffffffffffffffff1681526020019081526020015f205f6101000a81548160ff021916908315150217905550600a33908060018154018082558091505060019003905f5260205f20015f9091909190916101000a81548173ffffffffffffffffffffffffffffffffffffffff021916908373ffffffffffffffffffffffffffffffffffffffff16021790555034600b5f3373ffffffffffffffffffffffffffffffffffffffff1673ffffffffffffffffffffffffffffffffffffffff1681526020019081526020015f205f82825461130c9190612b50565b92505081905550565b5f805f60608060605f805f61132b600254611add565b9050600a805490506001545f54836006600760085f9054906101000a900473ffffffffffffffffffffffffffffffffffffffff1660035f9054906101000a900460ff1683805461137a906126b4565b80601f01602080910402602001604051908101604052809291908181526020018280546113a6906126b4565b80156113f15780601f106113c8576101008083540402835291602001916113f1565b820191905f5260205f20905b8154815290600101906020018083116113d457829003601f168201915b50505050509350828054611404906126b4565b80601f0160208091040260200160405190810160405280929190818152602001828054611430906126b4565b801561147b5780601f106114525761010080835404028352916020019161147b565b820191905f5260205f20905b81548152906001019060200180831161145e57829003601f168201915b5050505050925098509850985098509850985098509850509091929394959697565b600780546114aa906126b4565b80601f01602080910402602001604051908101604052809291908181526020018280546114d6906126b4565b80156115215780601f106114f857610100808354040283529160200191611521565b820191905f5260205f20905b81548152906001019060200180831161150457829003601f168201915b505050505081565b60098181548110611538575f80fd5b905f5260205f2090600402015f91509050805f01549080600101805461155d906126b4565b80601f0160208091040260200160405190810160405280929190818152602001828054611589906126b4565b80156115d45780601f106115ab576101008083540402835291602001916115d4565b820191905f5260205f20905b8154815290600101906020018083116115b757829003601f168201915b5050505050908060020180546115e9906126b4565b80601f0160208091040260200160405190810160405280929190818152602001828054611615906126b4565b80156116605780601f1061163757610100808354040283529160200191611660565b820191905f5260205f20905b81548152906001019060200180831161164357829003601f168201915b505050505090806003015f9054906101000a900473ffffffffffffffffffffffffffffffffffffffff16905084565b60035f9054906101000a900460ff1681565b60055f9054906101000a900473ffffffffffffffffffffffffffffffffffffffff1681565b60085f9054906101000a900473ffffffffffffffffffffffffffffffffffffffff1681565b5f600c5f8373ffffffffffffffffffffffffffffffffffffffff1673ffffffffffffffffffffffffffffffffffffffff1681526020019081526020015f205f9054906101000a900460ff169050919050565b6002543414611781576040517f08c379a000000000000000000000000000000000000000000000000000000000815260040161177890612bf3565b60405180910390fd5b600154600a80549050106117ca576040517f08c379a00000000000000000000000000000000000000000000000000000000081526004016117c1906129fa565b60405180910390fd5b60035f9054906101000a900460ff1615611819576040517f08c379a000000000000000000000000000000000000000000000000000000000815260040161181090612c81565b60405180910390fd5b5f5442111561185d576040517f08c379a000000000000000000000000000000000000000000000000000000000815260040161185490612aca565b60405180910390fd5b600960405180608001604052808581526020018481526020018381526020013373ffffffffffffffffffffffffffffffffffffffff16815250908060018154018082558091505060019003905f5260205f2090600402015f909190919091505f820151815f015560208201518160010190816118d99190612e3c565b5060408201518160020190816118ef9190612e3c565b506060820151816003015f6101000a81548173ffffffffffffffffffffffffffffffffffffffff021916908373ffffffffffffffffffffffffffffffffffffffff1602179055505050600c5f3373ffffffffffffffffffffffffffffffffffffffff1673ffffffffffffffffffffffffffffffffffffffff1681526020019081526020015f205f9054906101000a900460ff16611a3c576001600c5f3373ffffffffffffffffffffffffffffffffffffffff1673ffffffffffffffffffffffffffffffffffffffff1681526020019081526020015f205f6101000a81548160ff021916908315150217905550600a33908060018154018082558091505060019003905f5260205f20015f9091909190916101000a81548173ffffffffffffffffffffffffffffffffffffffff021916908373ffffffffffffffffffffffffffffffffffffffff1602179055505b34600b5f3373ffffffffffffffffffffffffffffffffffffffff1673ffffffffffffffffffffffffffffffffffffffff1681526020019081526020015f205f828254611a889190612b50565b92505081905550505050565b60025481565b60045481565b600c602052805f5260405f205f915054906101000a900460ff1681565b5f5481565b60015481565b600b602052805f5260405f205f915090505481565b60605f670de0b6b3a764000083611af491906128f2565b90505f670de0b6b3a764000084611b0b9190612f0b565b90505f66038d7ea4c6800082611b2191906128f2565b9050611b2c83611b5f565b611b3582611cb8565b604051602001611b46929190613009565b6040516020818303038152906040529350505050919050565b60605f8203611ba5576040518060400160405280600181526020017f30000000000000000000000000000000000000000000000000000000000000008152509050611cb3565b5f8290505f5b5f8214611bd4578080611bbd90612640565b915050600a82611bcd91906128f2565b9150611bab565b5f8167ffffffffffffffff811115611bef57611bee6121ee565b5b6040519080825280601f01601f191660200182016040528015611c215781602001600182028036833780820191505090505b5090505b5f8514611cac57600182611c3991906125e0565b9150600a85611c489190612f0b565b6030611c549190612b50565b60f81b818381518110611c6a57611c69612586565b5b60200101907effffffffffffffffffffffffffffffffffffffffffffffffffffffffffffff191690815f1a905350600a85611ca591906128f2565b9450611c25565b8093505050505b919050565b6060600a821015611cf257611ccc82611b5f565b604051602001611cdc919061308c565b6040516020818303038152906040529050611d36565b6064821015611d2a57611d0482611b5f565b604051602001611d1491906130f7565b6040516020818303038152906040529050611d36565b611d3382611b5f565b90505b919050565b5f819050919050565b611d4d81611d3b565b82525050565b5f602082019050611d665f830184611d44565b92915050565b5f604051905090565b5f80fd5b5f80fd5b611d8681611d3b565b8114611d90575f80fd5b50565b5f81359050611da181611d7d565b92915050565b5f60208284031215611dbc57611dbb611d75565b5b5f611dc984828501611d93565b91505092915050565b5f73ffffffffffffffffffffffffffffffffffffffff82169050919050565b5f611dfb82611dd2565b9050919050565b611e0b81611df1565b82525050565b5f602082019050611e245f830184611e02565b92915050565b5f81519050919050565b5f82825260208201905092915050565b5f819050602082019050919050565b611e5c81611d3b565b82525050565b5f81519050919050565b5f82825260208201905092915050565b5f5b83811015611e99578082015181840152602081019050611e7e565b5f8484015250505050565b5f601f19601f8301169050919050565b5f611ebe82611e62565b611ec88185611e6c565b9350611ed8818560208601611e7c565b611ee181611ea4565b840191505092915050565b611ef581611df1565b82525050565b5f608083015f830151611f105f860182611e53565b5060208301518482036020860152611f288282611eb4565b91505060408301518482036040860152611f428282611eb4565b9150506060830151611f576060860182611eec565b508091505092915050565b5f611f6d8383611efb565b905092915050565b5f602082019050919050565b5f611f8b82611e2a565b611f958185611e34565b935083602082028501611fa785611e44565b805f5b85811015611fe25784840389528151611fc38582611f62565b9450611fce83611f75565b925060208a01995050600181019050611faa565b50829750879550505050505092915050565b5f6020820190508181035f83015261200c8184611f81565b905092915050565b5f82825260208201905092915050565b5f61202e82611e62565b6120388185612014565b9350612048818560208601611e7c565b61205181611ea4565b840191505092915050565b5f6020820190508181035f8301526120748184612024565b905092915050565b5f8115159050919050565b6120908161207c565b82525050565b5f610100820190506120aa5f83018b611d44565b6120b7602083018a611d44565b6120c46040830189611d44565b81810360608301526120d68188612024565b905081810360808301526120ea8187612024565b905081810360a08301526120fe8186612024565b905061210d60c0830185611e02565b61211a60e0830184612087565b9998505050505050505050565b5f60808201905061213a5f830187611d44565b818103602083015261214c8186612024565b905081810360408301526121608185612024565b905061216f6060830184611e02565b95945050505050565b5f60208201905061218b5f830184612087565b92915050565b61219a81611df1565b81146121a4575f80fd5b50565b5f813590506121b581612191565b92915050565b5f602082840312156121d0576121cf611d75565b5b5f6121dd848285016121a7565b91505092915050565b5f80fd5b5f80fd5b7f4e487b71000000000000000000000000000000000000000000000000000000005f52604160045260245ffd5b61222482611ea4565b810181811067ffffffffffffffff82111715612243576122426121ee565b5b80604052505050565b5f612255611d6c565b9050612261828261221b565b919050565b5f67ffffffffffffffff8211156122805761227f6121ee565b5b61228982611ea4565b9050602081019050919050565b828183375f83830152505050565b5f6122b66122b184612266565b61224c565b9050828152602081018484840111156122d2576122d16121ea565b5b6122dd848285612296565b509392505050565b5f82601f8301126122f9576122f86121e6565b5b81356123098482602086016122a4565b91505092915050565b5f805f6060848603121561232957612328611d75565b5b5f61233686828701611d93565b935050602084013567ffffffffffffffff81111561235757612356611d79565b5b612363868287016122e5565b925050604084013567ffffffffffffffff81111561238457612383611d79565b5b612390868287016122e5565b9150509250925092565b7f5769746864726177616c732061726520636c6f73656420616674657220656e645f8201527f4461746500000000000000000000000000000000000000000000000000000000602082015250565b5f6123f4602483612014565b91506123ff8261239a565b604082019050919050565b5f6020820190508181035f830152612421816123e8565b9050919050565b7f43616e6e6f742077697468647261772061667465722066696e616c697a6174695f8201527f6f6e000000000000000000000000000000000000000000000000000000000000602082015250565b5f612482602283612014565b915061248d82612428565b604082019050919050565b5f6020820190508181035f8301526124af81612476565b9050919050565b7f596f7520617265206e6f742061207061727469636970616e74000000000000005f82015250565b5f6124ea601983612014565b91506124f5826124b6565b602082019050919050565b5f6020820190508181035f830152612517816124de565b9050919050565b7f4e6f2062616c616e636520746f207769746864726177000000000000000000005f82015250565b5f612552601683612014565b915061255d8261251e565b602082019050919050565b5f6020820190508181035f83015261257f81612546565b9050919050565b7f4e487b71000000000000000000000000000000000000000000000000000000005f52603260045260245ffd5b7f4e487b71000000000000000000000000000000000000000000000000000000005f52601160045260245ffd5b5f6125ea82611d3b565b91506125f583611d3b565b925082820390508181111561260d5761260c6125b3565b5b92915050565b7f4e487b71000000000000000000000000000000000000000000000000000000005f52603160045260245ffd5b5f61264a82611d3b565b91507fffffffffffffffffffffffffffffffffffffffffffffffffffffffffffffffff820361267c5761267b6125b3565b5b600182019050919050565b7f4e487b71000000000000000000000000000000000000000000000000000000005f52602260045260245ffd5b5f60028204905060018216806126cb57607f821691505b6020821081036126de576126dd612687565b5b50919050565b7f4f6e6c79206f776e65722063616e2066696e616c697a650000000000000000005f82015250565b5f612718601783612014565b9150612723826126e4565b602082019050919050565b5f6020820190508181035f8301526127458161270c565b9050919050565b7f416c72656164792066696e616c697a65640000000000000000000000000000005f82015250565b5f612780601183612014565b915061278b8261274c565b602082019050919050565b5f6020820190508181035f8301526127ad81612774565b9050919050565b7f4e6f206f666665727320617661696c61626c65000000000000000000000000005f82015250565b5f6127e8601383612014565b91506127f3826127b4565b602082019050919050565b5f6020820190508181035f830152612815816127dc565b9050919050565b7f4e6f207061727469636970616e747300000000000000000000000000000000005f82015250565b5f612850600f83612014565b915061285b8261281c565b602082019050919050565b5f6020820190508181035f83015261287d81612844565b9050919050565b5f61288e82611d3b565b915061289983611d3b565b92508282026128a781611d3b565b915082820484148315176128be576128bd6125b3565b5b5092915050565b7f4e487b71000000000000000000000000000000000000000000000000000000005f52601260045260245ffd5b5f6128fc82611d3b565b915061290783611d3b565b925082612917576129166128c5565b5b828204905092915050565b7f4d7573742073656e642065786163742063616d706169676e20707269636500005f82015250565b5f612956601e83612014565b915061296182612922565b602082019050919050565b5f6020820190508181035f8301526129838161294a565b9050919050565b7f4d6178696d756d207061727469636970616e74206c696d6974207265616368655f8201527f6400000000000000000000000000000000000000000000000000000000000000602082015250565b5f6129e4602183612014565b91506129ef8261298a565b604082019050919050565b5f6020820190508181035f830152612a11816129d8565b9050919050565b7f43616d706169676e2068617320656e64656400000000000000000000000000005f82015250565b5f612a4c601283612014565b9150612a5782612a18565b602082019050919050565b5f6020820190508181035f830152612a7981612a40565b9050919050565b7f43616d706169676e2068617320657870697265640000000000000000000000005f82015250565b5f612ab4601483612014565b9150612abf82612a80565b602082019050919050565b5f6020820190508181035f830152612ae181612aa8565b9050919050565b7f596f75206861766520616c7265616479207061727469636970617465640000005f82015250565b5f612b1c601d83612014565b9150612b2782612ae8565b602082019050919050565b5f6020820190508181035f830152612b4981612b10565b9050919050565b5f612b5a82611d3b565b9150612b6583611d3b565b9250828201905080821115612b7d57612b7c6125b3565b5b92915050565b7f4d7573742073656e642065786163742063616d706169676e20707269636520745f8201527f6f207375626d6974206f66666572000000000000000000000000000000000000602082015250565b5f612bdd602e83612014565b9150612be882612b83565b604082019050919050565b5f6020820190508181035f830152612c0a81612bd1565b9050919050565b7f4f66666572207375626d697373696f6e20706572696f642068617320656e64655f8201527f6400000000000000000000000000000000000000000000000000000000000000602082015250565b5f612c6b602183612014565b9150612c7682612c11565b604082019050919050565b5f6020820190508181035f830152612c9881612c5f565b9050919050565b5f819050815f5260205f209050919050565b5f6020601f8301049050919050565b5f82821b905092915050565b5f60088302612cfb7fffffffffffffffffffffffffffffffffffffffffffffffffffffffffffffffff82612cc0565b612d058683612cc0565b95508019841693508086168417925050509392505050565b5f819050919050565b5f612d40612d3b612d3684611d3b565b612d1d565b611d3b565b9050919050565b5f819050919050565b612d5983612d26565b612d6d612d6582612d47565b848454612ccc565b825550505050565b5f90565b612d81612d75565b612d8c818484612d50565b505050565b5b81811015612daf57612da45f82612d79565b600181019050612d92565b5050565b601f821115612df457612dc581612c9f565b612dce84612cb1565b81016020851015612ddd578190505b612df1612de985612cb1565b830182612d91565b50505b505050565b5f82821c905092915050565b5f612e145f1984600802612df9565b1980831691505092915050565b5f612e2c8383612e05565b9150826002028217905092915050565b612e4582611e62565b67ffffffffffffffff811115612e5e57612e5d6121ee565b5b612e6882546126b4565b612e73828285612db3565b5f60209050601f831160018114612ea4575f8415612e92578287015190505b612e9c8582612e21565b865550612f03565b601f198416612eb286612c9f565b5f5b82811015612ed957848901518255600182019150602085019450602081019050612eb4565b86831015612ef65784890151612ef2601f891682612e05565b8355505b6001600288020188555050505b505050505050565b5f612f1582611d3b565b9150612f2083611d3b565b925082612f3057612f2f6128c5565b5b828206905092915050565b5f81905092915050565b5f612f4f82611e62565b612f598185612f3b565b9350612f69818560208601611e7c565b80840191505092915050565b7f2e000000000000000000000000000000000000000000000000000000000000005f82015250565b5f612fa9600183612f3b565b9150612fb482612f75565b600182019050919050565b7f20455448000000000000000000000000000000000000000000000000000000005f82015250565b5f612ff3600483612f3b565b9150612ffe82612fbf565b600482019050919050565b5f6130148285612f45565b915061301f82612f9d565b915061302b8284612f45565b915061303682612fe7565b91508190509392505050565b7f30300000000000000000000000000000000000000000000000000000000000005f82015250565b5f613076600283612f3b565b915061308182613042565b600282019050919050565b5f6130968261306a565b91506130a28284612f45565b915081905092915050565b7f30000000000000000000000000000000000000000000000000000000000000005f82015250565b5f6130e1600183612f3b565b91506130ec826130ad565b600182019050919050565b5f613101826130d5565b915061310d8284612f45565b91508190509291505056fea2646970667358221220fe34267dcf2033c4cf3cd0fb45ca58c6a15af36d070acf99fe1d644aebf8dade64736f6c63430008140033",
  "linkReferences": {},
  "deployedLinkReferences": {},
  "immutableReferences": {},
  "inputSourceName": "project/contracts/BuyItem.sol",
  "buildInfoId": "solc-0_8_20-0ccfd373fca7dbbec3f735759931660266d83ae1"
}