{
  "_format": "hh3-artifact-1",
  "contractName": "BuyItem",
  "sourceName": "contracts/BuyItem.sol",
  "abi": [
    {
      "inputs": [
        {
          "internalType": "uint256",
          "name": "_endDate",
          "type": "uint256"
        },
        {
          "internalType": "uint256",
          "name": "_maxParticipantCount",
          "type": "uint256"
        },
        {
          "internalType": "uint256",
          "name": "_productId",
          "type": "uint256"
        },
        {
          "internalType": "string",
          "name": "_productSlug",
          "type": "string"
        },
        {
          "internalType": "uint256",
          "name": "_normalPrice",
          "type": "uint256"
        },
        {
          "internalType": "uint256",
          "name": "_discountedPrice",
          "type": "uint256"
        }
      ],
      "stateMutability": "nonpayable",
      "type": "constructor"
    },
    {
      "inputs": [
        {
          "internalType": "address",
          "name": "",
          "type": "address"
        }
      ],
      "name": "deposits",
      "outputs": [
        {
          "internalType": "uint256",
          "name": "",
          "type": "uint256"
        }
      ],
      "stateMutability": "view",
      "type": "function"
    },
    {
      "inputs": [],
      "name": "discountedPrice",
      "outputs": [
        {
          "internalType": "uint256",
          "name": "",
          "type": "uint256"
        }
      ],
      "stateMutability": "view",
      "type": "function"
    },
    {
      "inputs": [],
      "name": "endDate",
      "outputs": [
        {
          "internalType": "uint256",
          "name": "",
          "type": "uint256"
        }
      ],
      "stateMutability": "view",
      "type": "function"
    },
    {
      "inputs": [],
      "name": "getBalance",
      "outputs": [
        {
          "internalType": "uint256",
          "name": "",
          "type": "uint256"
        }
      ],
      "stateMutability": "view",
      "type": "function"
    },
    {
      "inputs": [],
      "name": "getParticipantInfo",
      "outputs": [
        {
          "internalType": "uint256",
          "name": "currentParticipants",
          "type": "uint256"
        },
        {
          "internalType": "uint256",
          "name": "maxParticipants",
          "type": "uint256"
        },
        {
          "internalType": "uint256",
          "name": "contractEndDate",
          "type": "uint256"
        },
        {
          "internalType": "uint256",
          "name": "contractProductId",
          "type": "uint256"
        },
        {
          "internalType": "string",
          "name": "contractProductSlug",
          "type": "string"
        },
        {
          "internalType": "string",
          "name": "normalPriceETH",
          "type": "string"
        },
        {
          "internalType": "string",
          "name": "discountedPriceETH",
          "type": "string"
        }
      ],
      "stateMutability": "view",
      "type": "function"
    },
    {
      "inputs": [
        {
          "internalType": "address",
          "name": "",
          "type": "address"
        }
      ],
      "name": "hasParticipated",
      "outputs": [
        {
          "internalType": "bool",
          "name": "",
          "type": "bool"
        }
      ],
      "stateMutability": "view",
      "type": "function"
    },
    {
      "inputs": [],
      "name": "maxParticipantCount",
      "outputs": [
        {
          "internalType": "uint256",
          "name": "",
          "type": "uint256"
        }
      ],
      "stateMutability": "view",
      "type": "function"
    },
    {
      "inputs": [],
      "name": "normalPrice",
      "outputs": [
        {
          "internalType": "uint256",
          "name": "",
          "type": "uint256"
        }
      ],
      "stateMutability": "view",
      "type": "function"
    },
    {
      "inputs": [],
      "name": "participantCount",
      "outputs": [
        {
          "internalType": "uint256",
          "name": "",
          "type": "uint256"
        }
      ],
      "stateMutability": "view",
      "type": "function"
    },
    {
      "inputs": [],
      "name": "productId",
      "outputs": [
        {
          "internalType": "uint256",
          "name": "",
          "type": "uint256"
        }
      ],
      "stateMutability": "view",
      "type": "function"
    },
    {
      "inputs": [],
      "name": "productSlug",
      "outputs": [
        {
          "internalType": "string",
          "name": "",
          "type": "string"
        }
      ],
      "stateMutability": "view",
      "type": "function"
    },
    {
      "inputs": [],
      "name": "purchase",
      "outputs": [],
      "stateMutability": "payable",
      "type": "function"
    },
    {
      "inputs": [
        {
          "internalType": "address",
          "name": "",
          "type": "address"
        },
        {
          "internalType": "uint256",
          "name": "",
          "type": "uint256"
        }
      ],
      "name": "purchases",
      "outputs": [
        {
          "internalType": "uint256",
          "name": "productId",
          "type": "uint256"
        },
        {
          "internalType": "string",
          "name": "productSlug",
          "type": "string"
        },
        {
          "internalType": "uint256",
          "name": "amount",
          "type": "uint256"
        },
        {
          "internalType": "uint256",
          "name": "timestamp",
          "type": "uint256"
        }
      ],
      "stateMutability": "view",
      "type": "function"
    },
    {
      "inputs": [],
      "name": "withdraw",
      "outputs": [],
      "stateMutability": "nonpayable",
      "type": "function"
    }
  ],
  "bytecode": "0x608060405234801562000010575f80fd5b506040516200220138038062002201833981810160405281019062000036919062000394565b4286116200007b576040517f08c379a00000000000000000000000000000000000000000000000000000000081526004016200007290620004a9565b60405180910390fd5b5f8511620000c0576040517f08c379a0000000000000000000000000000000000000000000000000000000008152600401620000b7906200053d565b60405180910390fd5b5f821162000105576040517f08c379a0000000000000000000000000000000000000000000000000000000008152600401620000fc90620005d1565b60405180910390fd5b5f81116200014a576040517f08c379a0000000000000000000000000000000000000000000000000000000008152600401620001419062000665565b60405180910390fd5b8181111562000190576040517f08c379a00000000000000000000000000000000000000000000000000000000081526004016200018790620006f9565b60405180910390fd5b855f8190555084600281905550836003819055508260049081620001b5919062000947565b5081600581905550806006819055505f60018190555050505050505062000a2b565b5f604051905090565b5f80fd5b5f80fd5b5f819050919050565b620001fc81620001e8565b811462000207575f80fd5b50565b5f815190506200021a81620001f1565b92915050565b5f80fd5b5f80fd5b5f601f19601f8301169050919050565b7f4e487b71000000000000000000000000000000000000000000000000000000005f52604160045260245ffd5b620002708262000228565b810181811067ffffffffffffffff8211171562000292576200029162000238565b5b80604052505050565b5f620002a6620001d7565b9050620002b4828262000265565b919050565b5f67ffffffffffffffff821115620002d657620002d562000238565b5b620002e18262000228565b9050602081019050919050565b5f5b838110156200030d578082015181840152602081019050620002f0565b5f8484015250505050565b5f6200032e6200032884620002b9565b6200029b565b9050828152602081018484840111156200034d576200034c62000224565b5b6200035a848285620002ee565b509392505050565b5f82601f83011262000379576200037862000220565b5b81516200038b84826020860162000318565b91505092915050565b5f805f805f8060c08789031215620003b157620003b0620001e0565b5b5f620003c089828a016200020a565b9650506020620003d389828a016200020a565b9550506040620003e689828a016200020a565b945050606087015167ffffffffffffffff8111156200040a5762000409620001e4565b5b6200041889828a0162000362565b93505060806200042b89828a016200020a565b92505060a06200043e89828a016200020a565b9150509295509295509295565b5f82825260208201905092915050565b7f456e642064617465206d75737420626520696e207468652066757475726500005f82015250565b5f62000491601e836200044b565b91506200049e826200045b565b602082019050919050565b5f6020820190508181035f830152620004c28162000483565b9050919050565b7f4d6178207061727469636970616e7420636f756e74206d7573742062652067725f8201527f6561746572207468616e20300000000000000000000000000000000000000000602082015250565b5f62000525602c836200044b565b91506200053282620004c9565b604082019050919050565b5f6020820190508181035f830152620005568162000517565b9050919050565b7f4e6f726d616c207072696365206d7573742062652067726561746572207468615f8201527f6e20300000000000000000000000000000000000000000000000000000000000602082015250565b5f620005b96023836200044b565b9150620005c6826200055d565b604082019050919050565b5f6020820190508181035f830152620005ea81620005ab565b9050919050565b7f446973636f756e746564207072696365206d75737420626520677265617465725f8201527f207468616e203000000000000000000000000000000000000000000000000000602082015250565b5f6200064d6027836200044b565b91506200065a82620005f1565b604082019050919050565b5f6020820190508181035f8301526200067e816200063f565b9050919050565b7f446973636f756e746564207072696365206d757374206265206c6573732074685f8201527f616e206f7220657175616c20746f206e6f726d616c2070726963650000000000602082015250565b5f620006e1603b836200044b565b9150620006ee8262000685565b604082019050919050565b5f6020820190508181035f8301526200071281620006d3565b9050919050565b5f81519050919050565b7f4e487b71000000000000000000000000000000000000000000000000000000005f52602260045260245ffd5b5f60028204905060018216806200076857607f821691505b6020821081036200077e576200077d62000723565b5b50919050565b5f819050815f5260205f209050919050565b5f6020601f8301049050919050565b5f82821b905092915050565b5f60088302620007e27fffffffffffffffffffffffffffffffffffffffffffffffffffffffffffffffff82620007a5565b620007ee8683620007a5565b95508019841693508086168417925050509392505050565b5f819050919050565b5f6200082f620008296200082384620001e8565b62000806565b620001e8565b9050919050565b5f819050919050565b6200084a836200080f565b62000862620008598262000836565b848454620007b1565b825550505050565b5f90565b620008786200086a565b620008858184846200083f565b505050565b5b81811015620008ac57620008a05f826200086e565b6001810190506200088b565b5050565b601f821115620008fb57620008c58162000784565b620008d08462000796565b81016020851015620008e0578190505b620008f8620008ef8562000796565b8301826200088a565b50505b505050565b5f82821c905092915050565b5f6200091d5f198460080262000900565b1980831691505092915050565b5f6200093783836200090c565b9150826002028217905092915050565b620009528262000719565b67ffffffffffffffff8111156200096e576200096d62000238565b5b6200097a825462000750565b62000987828285620008b0565b5f60209050601f831160018114620009bd575f8415620009a8578287015190505b620009b485826200092a565b86555062000a23565b601f198416620009cd8662000784565b5f5b82811015620009f657848901518255600182019150602085019450602081019050620009cf565b8683101562000a16578489015162000a12601f8916826200090c565b8355505b6001600288020188555050505b505050505050565b6117c88062000a395f395ff3fe6080604052600436106100dc575f3560e01c8063945ec9dd1161007e578063c462a40811610058578063c462a4081461027d578063c5ce3911146102a7578063c8788134146102d1578063fc7e286d146102fb576100dc565b8063945ec9dd146101ed578063b4fb3ee314610217578063c24a0f8b14610253576100dc565b806352d3f849116100ba57806352d3f8491461014a57806364edfbf0146101895780636bd455521461019357806378035950146101c3576100dc565b806312065fe0146100e0578063362f04c01461010a5780633ccfd60b14610134575b5f80fd5b3480156100eb575f80fd5b506100f4610337565b6040516101019190610c66565b60405180910390f35b348015610115575f80fd5b5061011e61033e565b60405161012b9190610c66565b60405180910390f35b34801561013f575f80fd5b50610148610344565b005b348015610155575f80fd5b50610170600480360381019061016b9190610d07565b610494565b6040516101809493929190610dcf565b60405180910390f35b610191610560565b005b34801561019e575f80fd5b506101a761083e565b6040516101ba9796959493929190610e19565b60405180910390f35b3480156101ce575f80fd5b506101d7610915565b6040516101e49190610e9b565b60405180910390f35b3480156101f8575f80fd5b506102016109a1565b60405161020e9190610c66565b60405180910390f35b348015610222575f80fd5b5061023d60048036038101906102389190610ebb565b6109a7565b60405161024a9190610f00565b60405180910390f35b34801561025e575f80fd5b506102676109c4565b6040516102749190610c66565b60405180910390f35b348015610288575f80fd5b506102916109c9565b60405161029e9190610c66565b60405180910390f35b3480156102b2575f80fd5b506102bb6109cf565b6040516102c89190610c66565b60405180910390f35b3480156102dc575f80fd5b506102e56109d5565b6040516102f29190610c66565b60405180910390f35b348015610306575f80fd5b50610321600480360381019061031c9190610ebb565b6109db565b60405161032e9190610c66565b60405180910390f35b5f47905090565b60015481565b5f54421115610388576040517f08c379a000000000000000000000000000000000000000000000000000000000815260040161037f90610f89565b60405180910390fd5b5f60085f3373ffffffffffffffffffffffffffffffffffffffff1673ffffffffffffffffffffffffffffffffffffffff1681526020019081526020015f205490505f811161040b576040517f08c379a000000000000000000000000000000000000000000000000000000000815260040161040290610ff1565b60405180910390fd5b5f60085f3373ffffffffffffffffffffffffffffffffffffffff1673ffffffffffffffffffffffffffffffffffffffff1681526020019081526020015f20819055503373ffffffffffffffffffffffffffffffffffffffff166108fc8290811502906040515f60405180830381858888f19350505050158015610490573d5f803e3d5ffd5b5050565b6007602052815f5260405f2081815481106104ad575f80fd5b905f5260205f2090600402015f9150915050805f0154908060010180546104d39061103c565b80601f01602080910402602001604051908101604052809291908181526020018280546104ff9061103c565b801561054a5780601f106105215761010080835404028352916020019161054a565b820191905f5260205f20905b81548152906001019060200180831161052d57829003601f168201915b5050505050908060020154908060030154905084565b60065434146105a4576040517f08c379a000000000000000000000000000000000000000000000000000000000815260040161059b906110dc565b60405180910390fd5b600254600154106105ea576040517f08c379a00000000000000000000000000000000000000000000000000000000081526004016105e19061116a565b60405180910390fd5b60095f3373ffffffffffffffffffffffffffffffffffffffff1673ffffffffffffffffffffffffffffffffffffffff1681526020019081526020015f205f9054906101000a900460ff166106a557600160095f3373ffffffffffffffffffffffffffffffffffffffff1673ffffffffffffffffffffffffffffffffffffffff1681526020019081526020015f205f6101000a81548160ff02191690831515021790555060015f81548092919061069f906111b5565b91905055505b60075f3373ffffffffffffffffffffffffffffffffffffffff1673ffffffffffffffffffffffffffffffffffffffff1681526020019081526020015f2060405180608001604052806003548152602001600480546107029061103c565b80601f016020809104026020016040519081016040528092919081815260200182805461072e9061103c565b80156107795780601f1061075057610100808354040283529160200191610779565b820191905f5260205f20905b81548152906001019060200180831161075c57829003601f168201915b50505050508152602001600654815260200142815250908060018154018082558091505060019003905f5260205f2090600402015f909190919091505f820151815f015560208201518160010190816107d291906113c6565b50604082015181600201556060820151816003015550503460085f3373ffffffffffffffffffffffffffffffffffffffff1673ffffffffffffffffffffffffffffffffffffffff1681526020019081526020015f205f8282546108359190611495565b92505081905550565b5f805f8060608060605f6108536005546109f0565b90505f6108616006546109f0565b90506001546002545f546003546004868682805461087e9061103c565b80601f01602080910402602001604051908101604052809291908181526020018280546108aa9061103c565b80156108f55780601f106108cc576101008083540402835291602001916108f5565b820191905f5260205f20905b8154815290600101906020018083116108d857829003601f168201915b505050505092509850985098509850985098509850505090919293949596565b600480546109229061103c565b80601f016020809104026020016040519081016040528092919081815260200182805461094e9061103c565b80156109995780601f1061097057610100808354040283529160200191610999565b820191905f5260205f20905b81548152906001019060200180831161097c57829003601f168201915b505050505081565b60055481565b6009602052805f5260405f205f915054906101000a900460ff1681565b5f5481565b60025481565b60035481565b60065481565b6008602052805f5260405f205f915090505481565b60605f670de0b6b3a764000083610a0791906114f5565b90505f670de0b6b3a764000084610a1e9190611525565b90505f66038d7ea4c6800082610a3491906114f5565b9050610a3f83610a72565b610a4882610bcb565b604051602001610a59929190611623565b6040516020818303038152906040529350505050919050565b60605f8203610ab8576040518060400160405280600181526020017f30000000000000000000000000000000000000000000000000000000000000008152509050610bc6565b5f8290505f5b5f8214610ae7578080610ad0906111b5565b915050600a82610ae091906114f5565b9150610abe565b5f8167ffffffffffffffff811115610b0257610b016111fc565b5b6040519080825280601f01601f191660200182016040528015610b345781602001600182028036833780820191505090505b5090505b5f8514610bbf57600182610b4c919061165c565b9150600a85610b5b9190611525565b6030610b679190611495565b60f81b818381518110610b7d57610b7c61168f565b5b60200101907effffffffffffffffffffffffffffffffffffffffffffffffffffffffffffff191690815f1a905350600a85610bb891906114f5565b9450610b38565b8093505050505b919050565b6060600a821015610c0557610bdf82610a72565b604051602001610bef9190611706565b6040516020818303038152906040529050610c49565b6064821015610c3d57610c1782610a72565b604051602001610c279190611771565b6040516020818303038152906040529050610c49565b610c4682610a72565b90505b919050565b5f819050919050565b610c6081610c4e565b82525050565b5f602082019050610c795f830184610c57565b92915050565b5f80fd5b5f73ffffffffffffffffffffffffffffffffffffffff82169050919050565b5f610cac82610c83565b9050919050565b610cbc81610ca2565b8114610cc6575f80fd5b50565b5f81359050610cd781610cb3565b92915050565b610ce681610c4e565b8114610cf0575f80fd5b50565b5f81359050610d0181610cdd565b92915050565b5f8060408385031215610d1d57610d1c610c7f565b5b5f610d2a85828601610cc9565b9250506020610d3b85828601610cf3565b9150509250929050565b5f81519050919050565b5f82825260208201905092915050565b5f5b83811015610d7c578082015181840152602081019050610d61565b5f8484015250505050565b5f601f19601f8301169050919050565b5f610da182610d45565b610dab8185610d4f565b9350610dbb818560208601610d5f565b610dc481610d87565b840191505092915050565b5f608082019050610de25f830187610c57565b8181036020830152610df48186610d97565b9050610e036040830185610c57565b610e106060830184610c57565b95945050505050565b5f60e082019050610e2c5f83018a610c57565b610e396020830189610c57565b610e466040830188610c57565b610e536060830187610c57565b8181036080830152610e658186610d97565b905081810360a0830152610e798185610d97565b905081810360c0830152610e8d8184610d97565b905098975050505050505050565b5f6020820190508181035f830152610eb38184610d97565b905092915050565b5f60208284031215610ed057610ecf610c7f565b5b5f610edd84828501610cc9565b91505092915050565b5f8115159050919050565b610efa81610ee6565b82525050565b5f602082019050610f135f830184610ef1565b92915050565b7f5769746864726177616c732061726520636c6f73656420616674657220656e645f8201527f4461746500000000000000000000000000000000000000000000000000000000602082015250565b5f610f73602483610d4f565b9150610f7e82610f19565b604082019050919050565b5f6020820190508181035f830152610fa081610f67565b9050919050565b7f4e6f2062616c616e636520746f207769746864726177000000000000000000005f82015250565b5f610fdb601683610d4f565b9150610fe682610fa7565b602082019050919050565b5f6020820190508181035f83015261100881610fcf565b9050919050565b7f4e487b71000000000000000000000000000000000000000000000000000000005f52602260045260245ffd5b5f600282049050600182168061105357607f821691505b6020821081036110665761106561100f565b5b50919050565b7f53656e7420455448206d75737420657175616c20646973636f756e74656420705f8201527f7269636500000000000000000000000000000000000000000000000000000000602082015250565b5f6110c6602483610d4f565b91506110d18261106c565b604082019050919050565b5f6020820190508181035f8301526110f3816110ba565b9050919050565b7f4d6178696d756d207061727469636970616e74206c696d6974207265616368655f8201527f6400000000000000000000000000000000000000000000000000000000000000602082015250565b5f611154602183610d4f565b915061115f826110fa565b604082019050919050565b5f6020820190508181035f83015261118181611148565b9050919050565b7f4e487b71000000000000000000000000000000000000000000000000000000005f52601160045260245ffd5b5f6111bf82610c4e565b91507fffffffffffffffffffffffffffffffffffffffffffffffffffffffffffffffff82036111f1576111f0611188565b5b600182019050919050565b7f4e487b71000000000000000000000000000000000000000000000000000000005f52604160045260245ffd5b5f819050815f5260205f209050919050565b5f6020601f8301049050919050565b5f82821b905092915050565b5f600883026112857fffffffffffffffffffffffffffffffffffffffffffffffffffffffffffffffff8261124a565b61128f868361124a565b95508019841693508086168417925050509392505050565b5f819050919050565b5f6112ca6112c56112c084610c4e565b6112a7565b610c4e565b9050919050565b5f819050919050565b6112e3836112b0565b6112f76112ef826112d1565b848454611256565b825550505050565b5f90565b61130b6112ff565b6113168184846112da565b505050565b5b818110156113395761132e5f82611303565b60018101905061131c565b5050565b601f82111561137e5761134f81611229565b6113588461123b565b81016020851015611367578190505b61137b6113738561123b565b83018261131b565b50505b505050565b5f82821c905092915050565b5f61139e5f1984600802611383565b1980831691505092915050565b5f6113b6838361138f565b9150826002028217905092915050565b6113cf82610d45565b67ffffffffffffffff8111156113e8576113e76111fc565b5b6113f2825461103c565b6113fd82828561133d565b5f60209050601f83116001811461142e575f841561141c578287015190505b61142685826113ab565b86555061148d565b601f19841661143c86611229565b5f5b828110156114635784890151825560018201915060208501945060208101905061143e565b86831015611480578489015161147c601f89168261138f565b8355505b6001600288020188555050505b505050505050565b5f61149f82610c4e565b91506114aa83610c4e565b92508282019050808211156114c2576114c1611188565b5b92915050565b7f4e487b71000000000000000000000000000000000000000000000000000000005f52601260045260245ffd5b5f6114ff82610c4e565b915061150a83610c4e565b92508261151a576115196114c8565b5b828204905092915050565b5f61152f82610c4e565b915061153a83610c4e565b92508261154a576115496114c8565b5b828206905092915050565b5f81905092915050565b5f61156982610d45565b6115738185611555565b9350611583818560208601610d5f565b80840191505092915050565b7f2e000000000000000000000000000000000000000000000000000000000000005f82015250565b5f6115c3600183611555565b91506115ce8261158f565b600182019050919050565b7f20455448000000000000000000000000000000000000000000000000000000005f82015250565b5f61160d600483611555565b9150611618826115d9565b600482019050919050565b5f61162e828561155f565b9150611639826115b7565b9150611645828461155f565b915061165082611601565b91508190509392505050565b5f61166682610c4e565b915061167183610c4e565b925082820390508181111561168957611688611188565b5b92915050565b7f4e487b71000000000000000000000000000000000000000000000000000000005f52603260045260245ffd5b7f30300000000000000000000000000000000000000000000000000000000000005f82015250565b5f6116f0600283611555565b91506116fb826116bc565b600282019050919050565b5f611710826116e4565b915061171c828461155f565b915081905092915050565b7f30000000000000000000000000000000000000000000000000000000000000005f82015250565b5f61175b600183611555565b915061176682611727565b600182019050919050565b5f61177b8261174f565b9150611787828461155f565b91508190509291505056fea2646970667358221220c7e0170a3dd1600f579061b69fe020bc8c2219b77a5b999d4e27d0691e8fea4364736f6c63430008140033",
  "linkReferences": {},
  "deployedLinkReferences": {},
  "immutableReferences": {},
  "inputSourceName": "project/contracts/BuyItem.sol",
  "buildInfoId": "solc-0_8_20-c4748fd1492ee8fe39d7892cc5cb86da76253700"
}