{
  "_format": "hh3-artifact-1",
  "contractName": "BuyItem",
  "sourceName": "contracts/BuyItem.sol",
  "abi": [
    {
      "inputs": [
        {
          "internalType": "uint256",
          "name": "_maxParticipantCount",
          "type": "uint256"
        },
        {
          "internalType": "uint256",
          "name": "_price",
          "type": "uint256"
        },
        {
          "internalType": "string",
          "name": "_title",
          "type": "string"
        },
        {
          "internalType": "string",
          "name": "_description",
          "type": "string"
        },
        {
          "internalType": "string",
          "name": "_creatorName",
          "type": "string"
        },
        {
          "internalType": "string",
          "name": "_creatorAddress",
          "type": "string"
        },
        {
          "internalType": "string",
          "name": "_creatorPhone",
          "type": "string"
        }
      ],
      "stateMutability": "payable",
      "type": "constructor"
    },
    {
      "inputs": [
        {
          "internalType": "address",
          "name": "",
          "type": "address"
        }
      ],
      "name": "deposits",
      "outputs": [
        {
          "internalType": "uint256",
          "name": "",
          "type": "uint256"
        }
      ],
      "stateMutability": "view",
      "type": "function"
    },
    {
      "inputs": [],
      "name": "description",
      "outputs": [
        {
          "internalType": "string",
          "name": "",
          "type": "string"
        }
      ],
      "stateMutability": "view",
      "type": "function"
    },
    {
      "inputs": [],
      "name": "endDate",
      "outputs": [
        {
          "internalType": "uint256",
          "name": "",
          "type": "uint256"
        }
      ],
      "stateMutability": "view",
      "type": "function"
    },
    {
      "inputs": [],
      "name": "finalPrice",
      "outputs": [
        {
          "internalType": "uint256",
          "name": "",
          "type": "uint256"
        }
      ],
      "stateMutability": "view",
      "type": "function"
    },
    {
      "inputs": [],
      "name": "finalize",
      "outputs": [],
      "stateMutability": "nonpayable",
      "type": "function"
    },
    {
      "inputs": [],
      "name": "getAllPurchases",
      "outputs": [
        {
          "components": [
            {
              "internalType": "uint256",
              "name": "amount",
              "type": "uint256"
            },
            {
              "internalType": "uint256",
              "name": "timestamp",
              "type": "uint256"
            },
            {
              "internalType": "string",
              "name": "fullName",
              "type": "string"
            },
            {
              "internalType": "string",
              "name": "userAddress",
              "type": "string"
            },
            {
              "internalType": "string",
              "name": "phoneNumber",
              "type": "string"
            }
          ],
          "internalType": "struct BuyItem.PurchaseInfo[]",
          "name": "",
          "type": "tuple[]"
        }
      ],
      "stateMutability": "view",
      "type": "function"
    },
    {
      "inputs": [],
      "name": "getBalance",
      "outputs": [
        {
          "internalType": "uint256",
          "name": "",
          "type": "uint256"
        }
      ],
      "stateMutability": "view",
      "type": "function"
    },
    {
      "inputs": [],
      "name": "getOffers",
      "outputs": [
        {
          "components": [
            {
              "internalType": "uint256",
              "name": "price",
              "type": "uint256"
            },
            {
              "internalType": "string",
              "name": "productName",
              "type": "string"
            },
            {
              "internalType": "string",
              "name": "productLink",
              "type": "string"
            },
            {
              "internalType": "address",
              "name": "walletAddress",
              "type": "address"
            }
          ],
          "internalType": "struct BuyItem.Offer[]",
          "name": "",
          "type": "tuple[]"
        }
      ],
      "stateMutability": "view",
      "type": "function"
    },
    {
      "inputs": [],
      "name": "getOffersCount",
      "outputs": [
        {
          "internalType": "uint256",
          "name": "",
          "type": "uint256"
        }
      ],
      "stateMutability": "view",
      "type": "function"
    },
    {
      "inputs": [],
      "name": "getParticipantInfo",
      "outputs": [
        {
          "internalType": "uint256",
          "name": "currentParticipants",
          "type": "uint256"
        },
        {
          "internalType": "uint256",
          "name": "maxParticipants",
          "type": "uint256"
        },
        {
          "internalType": "uint256",
          "name": "contractEndDate",
          "type": "uint256"
        },
        {
          "internalType": "string",
          "name": "priceETH",
          "type": "string"
        },
        {
          "internalType": "string",
          "name": "contractTitle",
          "type": "string"
        },
        {
          "internalType": "string",
          "name": "contractDescription",
          "type": "string"
        }
      ],
      "stateMutability": "view",
      "type": "function"
    },
    {
      "inputs": [
        {
          "internalType": "address",
          "name": "",
          "type": "address"
        }
      ],
      "name": "hasParticipated",
      "outputs": [
        {
          "internalType": "bool",
          "name": "",
          "type": "bool"
        }
      ],
      "stateMutability": "view",
      "type": "function"
    },
    {
      "inputs": [],
      "name": "isFinalized",
      "outputs": [
        {
          "internalType": "bool",
          "name": "",
          "type": "bool"
        }
      ],
      "stateMutability": "view",
      "type": "function"
    },
    {
      "inputs": [],
      "name": "maxParticipantCount",
      "outputs": [
        {
          "internalType": "uint256",
          "name": "",
          "type": "uint256"
        }
      ],
      "stateMutability": "view",
      "type": "function"
    },
    {
      "inputs": [
        {
          "internalType": "uint256",
          "name": "",
          "type": "uint256"
        }
      ],
      "name": "offers",
      "outputs": [
        {
          "internalType": "uint256",
          "name": "price",
          "type": "uint256"
        },
        {
          "internalType": "string",
          "name": "productName",
          "type": "string"
        },
        {
          "internalType": "string",
          "name": "productLink",
          "type": "string"
        },
        {
          "internalType": "address",
          "name": "walletAddress",
          "type": "address"
        }
      ],
      "stateMutability": "view",
      "type": "function"
    },
    {
      "inputs": [],
      "name": "owner",
      "outputs": [
        {
          "internalType": "address",
          "name": "",
          "type": "address"
        }
      ],
      "stateMutability": "view",
      "type": "function"
    },
    {
      "inputs": [],
      "name": "participantCount",
      "outputs": [
        {
          "internalType": "uint256",
          "name": "",
          "type": "uint256"
        }
      ],
      "stateMutability": "view",
      "type": "function"
    },
    {
      "inputs": [
        {
          "internalType": "uint256",
          "name": "",
          "type": "uint256"
        }
      ],
      "name": "participants",
      "outputs": [
        {
          "internalType": "address",
          "name": "",
          "type": "address"
        }
      ],
      "stateMutability": "view",
      "type": "function"
    },
    {
      "inputs": [],
      "name": "price",
      "outputs": [
        {
          "internalType": "uint256",
          "name": "",
          "type": "uint256"
        }
      ],
      "stateMutability": "view",
      "type": "function"
    },
    {
      "inputs": [
        {
          "internalType": "string",
          "name": "_fullName",
          "type": "string"
        },
        {
          "internalType": "string",
          "name": "_userAddress",
          "type": "string"
        },
        {
          "internalType": "string",
          "name": "_phoneNumber",
          "type": "string"
        }
      ],
      "name": "purchase",
      "outputs": [],
      "stateMutability": "payable",
      "type": "function"
    },
    {
      "inputs": [
        {
          "internalType": "address",
          "name": "",
          "type": "address"
        },
        {
          "internalType": "uint256",
          "name": "",
          "type": "uint256"
        }
      ],
      "name": "purchases",
      "outputs": [
        {
          "internalType": "uint256",
          "name": "amount",
          "type": "uint256"
        },
        {
          "internalType": "uint256",
          "name": "timestamp",
          "type": "uint256"
        },
        {
          "internalType": "string",
          "name": "fullName",
          "type": "string"
        },
        {
          "internalType": "string",
          "name": "userAddress",
          "type": "string"
        },
        {
          "internalType": "string",
          "name": "phoneNumber",
          "type": "string"
        }
      ],
      "stateMutability": "view",
      "type": "function"
    },
    {
      "inputs": [
        {
          "internalType": "uint256",
          "name": "_price",
          "type": "uint256"
        },
        {
          "internalType": "string",
          "name": "_productName",
          "type": "string"
        },
        {
          "internalType": "string",
          "name": "_productLink",
          "type": "string"
        }
      ],
      "name": "submitOffer",
      "outputs": [],
      "stateMutability": "nonpayable",
      "type": "function"
    },
    {
      "inputs": [],
      "name": "title",
      "outputs": [
        {
          "internalType": "string",
          "name": "",
          "type": "string"
        }
      ],
      "stateMutability": "view",
      "type": "function"
    },
    {
      "inputs": [],
      "name": "withdraw",
      "outputs": [],
      "stateMutability": "nonpayable",
      "type": "function"
    }
  ],
  "bytecode": "0x608060405260405162003d7438038062003d74833981810160405281019062000029919062000570565b5f87116200006e576040517f08c379a000000000000000000000000000000000000000000000000000000000815260040162000065906200073d565b60405180910390fd5b5f8611620000b3576040517f08c379a0000000000000000000000000000000000000000000000000000000008152600401620000aa90620007ab565b60405180910390fd5b853414620000f8576040517f08c379a0000000000000000000000000000000000000000000000000000000008152600401620000ef9062000819565b60405180910390fd5b62093a804262000109919062000866565b5f81905550866002819055508560038190555084600790816200012d919062000ace565b5083600890816200013f919062000ace565b50600180819055505f60045f6101000a81548160ff02191690831515021790555073eb4df82103ec493614c15f96ccd2be93c69cf09960065f6101000a81548173ffffffffffffffffffffffffffffffffffffffff021916908373ffffffffffffffffffffffffffffffffffffffff1602179055506001600d5f3373ffffffffffffffffffffffffffffffffffffffff1673ffffffffffffffffffffffffffffffffffffffff1681526020019081526020015f205f6101000a81548160ff021916908315150217905550600a33908060018154018082558091505060019003905f5260205f20015f9091909190916101000a81548173ffffffffffffffffffffffffffffffffffffffff021916908373ffffffffffffffffffffffffffffffffffffffff160217905550600b5f3373ffffffffffffffffffffffffffffffffffffffff1673ffffffffffffffffffffffffffffffffffffffff1681526020019081526020015f206040518060a00160405280600354815260200142815260200185815260200184815260200183815250908060018154018082558091505060019003905f5260205f2090600502015f909190919091505f820151815f01556020820151816001015560408201518160020190816200031e919062000ace565b50606082015181600301908162000336919062000ace565b5060808201518160040190816200034e919062000ace565b50505034600c5f3373ffffffffffffffffffffffffffffffffffffffff1673ffffffffffffffffffffffffffffffffffffffff1681526020019081526020015f205f8282546200039f919062000866565b925050819055505050505050505062000bb2565b5f604051905090565b5f80fd5b5f80fd5b5f819050919050565b620003d881620003c4565b8114620003e3575f80fd5b50565b5f81519050620003f681620003cd565b92915050565b5f80fd5b5f80fd5b5f601f19601f8301169050919050565b7f4e487b71000000000000000000000000000000000000000000000000000000005f52604160045260245ffd5b6200044c8262000404565b810181811067ffffffffffffffff821117156200046e576200046d62000414565b5b80604052505050565b5f62000482620003b3565b905062000490828262000441565b919050565b5f67ffffffffffffffff821115620004b257620004b162000414565b5b620004bd8262000404565b9050602081019050919050565b5f5b83811015620004e9578082015181840152602081019050620004cc565b5f8484015250505050565b5f6200050a620005048462000495565b62000477565b90508281526020810184848401111562000529576200052862000400565b5b62000536848285620004ca565b509392505050565b5f82601f830112620005555762000554620003fc565b5b815162000567848260208601620004f4565b91505092915050565b5f805f805f805f60e0888a0312156200058e576200058d620003bc565b5b5f6200059d8a828b01620003e6565b9750506020620005b08a828b01620003e6565b965050604088015167ffffffffffffffff811115620005d457620005d3620003c0565b5b620005e28a828b016200053e565b955050606088015167ffffffffffffffff811115620006065762000605620003c0565b5b620006148a828b016200053e565b945050608088015167ffffffffffffffff811115620006385762000637620003c0565b5b620006468a828b016200053e565b93505060a088015167ffffffffffffffff8111156200066a5762000669620003c0565b5b620006788a828b016200053e565b92505060c088015167ffffffffffffffff8111156200069c576200069b620003c0565b5b620006aa8a828b016200053e565b91505092959891949750929550565b5f82825260208201905092915050565b7f4d6178207061727469636970616e7420636f756e74206d7573742062652067725f8201527f6561746572207468616e20300000000000000000000000000000000000000000602082015250565b5f62000725602c83620006b9565b91506200073282620006c9565b604082019050919050565b5f6020820190508181035f830152620007568162000717565b9050919050565b7f5072696365206d7573742062652067726561746572207468616e2030000000005f82015250565b5f62000793601c83620006b9565b9150620007a0826200075d565b602082019050919050565b5f6020820190508181035f830152620007c48162000785565b9050919050565b7f4d7573742073656e6420657861637420707269636520616d6f756e74000000005f82015250565b5f62000801601c83620006b9565b91506200080e82620007cb565b602082019050919050565b5f6020820190508181035f8301526200083281620007f3565b9050919050565b7f4e487b71000000000000000000000000000000000000000000000000000000005f52601160045260245ffd5b5f6200087282620003c4565b91506200087f83620003c4565b92508282019050808211156200089a576200089962000839565b5b92915050565b5f81519050919050565b7f4e487b71000000000000000000000000000000000000000000000000000000005f52602260045260245ffd5b5f6002820490506001821680620008ef57607f821691505b602082108103620009055762000904620008aa565b5b50919050565b5f819050815f5260205f209050919050565b5f6020601f8301049050919050565b5f82821b905092915050565b5f60088302620009697fffffffffffffffffffffffffffffffffffffffffffffffffffffffffffffffff826200092c565b6200097586836200092c565b95508019841693508086168417925050509392505050565b5f819050919050565b5f620009b6620009b0620009aa84620003c4565b6200098d565b620003c4565b9050919050565b5f819050919050565b620009d18362000996565b620009e9620009e082620009bd565b84845462000938565b825550505050565b5f90565b620009ff620009f1565b62000a0c818484620009c6565b505050565b5b8181101562000a335762000a275f82620009f5565b60018101905062000a12565b5050565b601f82111562000a825762000a4c816200090b565b62000a57846200091d565b8101602085101562000a67578190505b62000a7f62000a76856200091d565b83018262000a11565b50505b505050565b5f82821c905092915050565b5f62000aa45f198460080262000a87565b1980831691505092915050565b5f62000abe838362000a93565b9150826002028217905092915050565b62000ad982620008a0565b67ffffffffffffffff81111562000af55762000af462000414565b5b62000b018254620008d7565b62000b0e82828562000a37565b5f60209050601f83116001811462000b44575f841562000b2f578287015190505b62000b3b858262000ab1565b86555062000baa565b601f19841662000b54866200090b565b5f5b8281101562000b7d5784890151825560018201915060208501945060208101905062000b56565b8683101562000b9d578489015162000b99601f89168262000a93565b8355505b6001600288020188555050505b505050505050565b6131b48062000bc05f395ff3fe60806040526004361061013f575f3560e01c80637284e416116100b5578063a6b513ee1161006e578063a6b513ee14610425578063a93fcf501461044f578063b4fb3ee31461046b578063c24a0f8b146104a7578063c462a408146104d1578063fc7e286d146104fb5761013f565b80637284e416146103165780638a72ea6a146103405780638d4e40831461037f5780638da5cb5b146103a95780639bbd24c8146103d3578063a035b1fe146103fb5761013f565b80633ee992ee116101075780633ee992ee146102135780634a79d50c1461023d5780634bb278f31461026757806350b3967d1461027d57806352d3f849146102a75780636bd45552146102e75761013f565b806312065fe0146101435780632f2e7b751461016d57806335c1d34914610197578063362f04c0146101d35780633ccfd60b146101fd575b5f80fd5b34801561014e575f80fd5b50610157610537565b6040516101649190611e41565b60405180910390f35b348015610178575f80fd5b5061018161053e565b60405161018e9190611e41565b60405180910390f35b3480156101a2575f80fd5b506101bd60048036038101906101b89190611e95565b61054a565b6040516101ca9190611eff565b60405180910390f35b3480156101de575f80fd5b506101e7610585565b6040516101f49190611e41565b60405180910390f35b348015610208575f80fd5b5061021161058b565b005b34801561021e575f80fd5b506102276106db565b60405161023491906120e2565b60405180910390f35b348015610248575f80fd5b506102516108b5565b60405161025e919061214a565b60405180910390f35b348015610272575f80fd5b5061027b610941565b005b348015610288575f80fd5b50610291610dc4565b60405161029e91906122a6565b60405180910390f35b3480156102b2575f80fd5b506102cd60048036038101906102c891906122f0565b6111f4565b6040516102de95949392919061232e565b60405180910390f35b3480156102f2575f80fd5b506102fb6113d2565b60405161030d96959493929190612394565b60405180910390f35b348015610321575f80fd5b5061032a61151e565b604051610337919061214a565b60405180910390f35b34801561034b575f80fd5b5061036660048036038101906103619190611e95565b6115aa565b6040516103769493929190612408565b60405180910390f35b34801561038a575f80fd5b50610393611710565b6040516103a09190612473565b60405180910390f35b3480156103b4575f80fd5b506103bd611722565b6040516103ca9190611eff565b60405180910390f35b3480156103de575f80fd5b506103f960048036038101906103f491906125b8565b611747565b005b348015610406575f80fd5b5061040f611827565b60405161041c9190611e41565b60405180910390f35b348015610430575f80fd5b5061043961182d565b6040516104469190611e41565b60405180910390f35b61046960048036038101906104649190612640565b611833565b005b348015610476575f80fd5b50610491600480360381019061048c91906126e4565b611b61565b60405161049e9190612473565b60405180910390f35b3480156104b2575f80fd5b506104bb611b7e565b6040516104c89190611e41565b60405180910390f35b3480156104dc575f80fd5b506104e5611b83565b6040516104f29190611e41565b60405180910390f35b348015610506575f80fd5b50610521600480360381019061051c91906126e4565b611b89565b60405161052e9190611e41565b60405180910390f35b5f47905090565b5f600980549050905090565b600a8181548110610559575f80fd5b905f5260205f20015f915054906101000a900473ffffffffffffffffffffffffffffffffffffffff1681565b60015481565b5f544211156105cf576040517f08c379a00000000000000000000000000000000000000000000000000000000081526004016105c69061277f565b60405180910390fd5b5f600c5f3373ffffffffffffffffffffffffffffffffffffffff1673ffffffffffffffffffffffffffffffffffffffff1681526020019081526020015f205490505f8111610652576040517f08c379a0000000000000000000000000000000000000000000000000000000008152600401610649906127e7565b60405180910390fd5b5f600c5f3373ffffffffffffffffffffffffffffffffffffffff1673ffffffffffffffffffffffffffffffffffffffff1681526020019081526020015f20819055503373ffffffffffffffffffffffffffffffffffffffff166108fc8290811502906040515f60405180830381858888f193505050501580156106d7573d5f803e3d5ffd5b5050565b60606009805480602002602001604051908101604052809291908181526020015f905b828210156108ac578382905f5260205f2090600402016040518060800160405290815f820154815260200160018201805461073890612832565b80601f016020809104026020016040519081016040528092919081815260200182805461076490612832565b80156107af5780601f10610786576101008083540402835291602001916107af565b820191905f5260205f20905b81548152906001019060200180831161079257829003601f168201915b505050505081526020016002820180546107c890612832565b80601f01602080910402602001604051908101604052809291908181526020018280546107f490612832565b801561083f5780601f106108165761010080835404028352916020019161083f565b820191905f5260205f20905b81548152906001019060200180831161082257829003601f168201915b50505050508152602001600382015f9054906101000a900473ffffffffffffffffffffffffffffffffffffffff1673ffffffffffffffffffffffffffffffffffffffff1673ffffffffffffffffffffffffffffffffffffffff1681525050815260200190600101906106fe565b50505050905090565b600780546108c290612832565b80601f01602080910402602001604051908101604052809291908181526020018280546108ee90612832565b80156109395780601f1061091057610100808354040283529160200191610939565b820191905f5260205f20905b81548152906001019060200180831161091c57829003601f168201915b505050505081565b60065f9054906101000a900473ffffffffffffffffffffffffffffffffffffffff1673ffffffffffffffffffffffffffffffffffffffff163373ffffffffffffffffffffffffffffffffffffffff16146109d0576040517f08c379a00000000000000000000000000000000000000000000000000000000081526004016109c7906128ac565b60405180910390fd5b60045f9054906101000a900460ff1615610a1f576040517f08c379a0000000000000000000000000000000000000000000000000000000008152600401610a1690612914565b60405180910390fd5b5f60098054905011610a66576040517f08c379a0000000000000000000000000000000000000000000000000000000008152600401610a5d9061297c565b60405180910390fd5b5f60015411610aaa576040517f08c379a0000000000000000000000000000000000000000000000000000000008152600401610aa1906129e4565b60405180910390fd5b5f60095f81548110610abf57610abe612a02565b5b905f5260205f2090600402015f015490505f60095f81548110610ae557610ae4612a02565b5b905f5260205f2090600402016003015f9054906101000a900473ffffffffffffffffffffffffffffffffffffffff1690505f600190505b600980549050811015610bd1578260098281548110610b3e57610b3d612a02565b5b905f5260205f2090600402015f01541015610bbe5760098181548110610b6757610b66612a02565b5b905f5260205f2090600402015f0154925060098181548110610b8c57610b8b612a02565b5b905f5260205f2090600402016003015f9054906101000a900473ffffffffffffffffffffffffffffffffffffffff1691505b8080610bc990612a5c565b915050610b1c565b5081600581905550600160045f6101000a81548160ff0219169083151502179055505f600154600554610c049190612aa3565b90505f6064600a83610c169190612aa3565b610c209190612b11565b90505f8183610c2f9190612b41565b90505f600154600554600354610c459190612b41565b610c4f9190612aa3565b90505f60015482610c609190612b11565b90505f5b600a80549050811015610d11575f600a8281548110610c8657610c85612a02565b5b905f5260205f20015f9054906101000a900473ffffffffffffffffffffffffffffffffffffffff1690505f831115610cfd578073ffffffffffffffffffffffffffffffffffffffff166108fc8490811502906040515f60405180830381858888f19350505050158015610cfb573d5f803e3d5ffd5b505b508080610d0990612a5c565b915050610c64565b5060065f9054906101000a900473ffffffffffffffffffffffffffffffffffffffff1673ffffffffffffffffffffffffffffffffffffffff166108fc8590811502906040515f60405180830381858888f19350505050158015610d76573d5f803e3d5ffd5b508573ffffffffffffffffffffffffffffffffffffffff166108fc8490811502906040515f60405180830381858888f19350505050158015610dba573d5f803e3d5ffd5b5050505050505050565b60605f805b600a80549050811015610e7257600b5f600a8381548110610ded57610dec612a02565b5b905f5260205f20015f9054906101000a900473ffffffffffffffffffffffffffffffffffffffff1673ffffffffffffffffffffffffffffffffffffffff1673ffffffffffffffffffffffffffffffffffffffff1681526020019081526020015f208054905082610e5d9190612b74565b91508080610e6a90612a5c565b915050610dc9565b505f8167ffffffffffffffff811115610e8e57610e8d612494565b5b604051908082528060200260200182016040528015610ec757816020015b610eb4611dfc565b815260200190600190039081610eac5790505b5090505f805b600a805490508110156111ea575f600a8281548110610eef57610eee612a02565b5b905f5260205f20015f9054906101000a900473ffffffffffffffffffffffffffffffffffffffff1690505f600b5f8373ffffffffffffffffffffffffffffffffffffffff1673ffffffffffffffffffffffffffffffffffffffff1681526020019081526020015f20805480602002602001604051908101604052809291908181526020015f905b82821015611169578382905f5260205f2090600502016040518060a00160405290815f820154815260200160018201548152602001600282018054610fba90612832565b80601f0160208091040260200160405190810160405280929190818152602001828054610fe690612832565b80156110315780601f1061100857610100808354040283529160200191611031565b820191905f5260205f20905b81548152906001019060200180831161101457829003601f168201915b5050505050815260200160038201805461104a90612832565b80601f016020809104026020016040519081016040528092919081815260200182805461107690612832565b80156110c15780601f10611098576101008083540402835291602001916110c1565b820191905f5260205f20905b8154815290600101906020018083116110a457829003601f168201915b505050505081526020016004820180546110da90612832565b80601f016020809104026020016040519081016040528092919081815260200182805461110690612832565b80156111515780601f1061112857610100808354040283529160200191611151565b820191905f5260205f20905b81548152906001019060200180831161113457829003601f168201915b50505050508152505081526020019060010190610f76565b5050505090505f5b81518110156111d45781818151811061118d5761118c612a02565b5b60200260200101518686815181106111a8576111a7612a02565b5b602002602001018190525084806111be90612a5c565b95505080806111cc90612a5c565b915050611171565b50505080806111e290612a5c565b915050610ecd565b5081935050505090565b600b602052815f5260405f20818154811061120d575f80fd5b905f5260205f2090600502015f9150915050805f01549080600101549080600201805461123990612832565b80601f016020809104026020016040519081016040528092919081815260200182805461126590612832565b80156112b05780601f10611287576101008083540402835291602001916112b0565b820191905f5260205f20905b81548152906001019060200180831161129357829003601f168201915b5050505050908060030180546112c590612832565b80601f01602080910402602001604051908101604052809291908181526020018280546112f190612832565b801561133c5780601f106113135761010080835404028352916020019161133c565b820191905f5260205f20905b81548152906001019060200180831161131f57829003601f168201915b50505050509080600401805461135190612832565b80601f016020809104026020016040519081016040528092919081815260200182805461137d90612832565b80156113c85780601f1061139f576101008083540402835291602001916113c8565b820191905f5260205f20905b8154815290600101906020018083116113ab57829003601f168201915b5050505050905085565b5f805f60608060605f6113e6600354611b9e565b90506001546002545f54836007600881805461140190612832565b80601f016020809104026020016040519081016040528092919081815260200182805461142d90612832565b80156114785780601f1061144f57610100808354040283529160200191611478565b820191905f5260205f20905b81548152906001019060200180831161145b57829003601f168201915b5050505050915080805461148b90612832565b80601f01602080910402602001604051908101604052809291908181526020018280546114b790612832565b80156115025780601f106114d957610100808354040283529160200191611502565b820191905f5260205f20905b8154815290600101906020018083116114e557829003601f168201915b5050505050905096509650965096509650965050909192939495565b6008805461152b90612832565b80601f016020809104026020016040519081016040528092919081815260200182805461155790612832565b80156115a25780601f10611579576101008083540402835291602001916115a2565b820191905f5260205f20905b81548152906001019060200180831161158557829003601f168201915b505050505081565b600981815481106115b9575f80fd5b905f5260205f2090600402015f91509050805f0154908060010180546115de90612832565b80601f016020809104026020016040519081016040528092919081815260200182805461160a90612832565b80156116555780601f1061162c57610100808354040283529160200191611655565b820191905f5260205f20905b81548152906001019060200180831161163857829003601f168201915b50505050509080600201805461166a90612832565b80601f016020809104026020016040519081016040528092919081815260200182805461169690612832565b80156116e15780601f106116b8576101008083540402835291602001916116e1565b820191905f5260205f20905b8154815290600101906020018083116116c457829003601f168201915b505050505090806003015f9054906101000a900473ffffffffffffffffffffffffffffffffffffffff16905084565b60045f9054906101000a900460ff1681565b60065f9054906101000a900473ffffffffffffffffffffffffffffffffffffffff1681565b600960405180608001604052808581526020018481526020018381526020013373ffffffffffffffffffffffffffffffffffffffff16815250908060018154018082558091505060019003905f5260205f2090600402015f909190919091505f820151815f015560208201518160010190816117c39190612d44565b5060408201518160020190816117d99190612d44565b506060820151816003015f6101000a81548173ffffffffffffffffffffffffffffffffffffffff021916908373ffffffffffffffffffffffffffffffffffffffff1602179055505050505050565b60035481565b60055481565b6003543414611877576040517f08c379a000000000000000000000000000000000000000000000000000000000815260040161186e90612e5d565b60405180910390fd5b600254600154106118bd576040517f08c379a00000000000000000000000000000000000000000000000000000000081526004016118b490612eeb565b60405180910390fd5b60045f9054906101000a900460ff161561190c576040517f08c379a000000000000000000000000000000000000000000000000000000000815260040161190390612f53565b60405180910390fd5b600d5f3373ffffffffffffffffffffffffffffffffffffffff1673ffffffffffffffffffffffffffffffffffffffff1681526020019081526020015f205f9054906101000a900460ff16611a27576001600d5f3373ffffffffffffffffffffffffffffffffffffffff1673ffffffffffffffffffffffffffffffffffffffff1681526020019081526020015f205f6101000a81548160ff02191690831515021790555060015f8154809291906119c190612a5c565b9190505550600a33908060018154018082558091505060019003905f5260205f20015f9091909190916101000a81548173ffffffffffffffffffffffffffffffffffffffff021916908373ffffffffffffffffffffffffffffffffffffffff1602179055505b600b5f3373ffffffffffffffffffffffffffffffffffffffff1673ffffffffffffffffffffffffffffffffffffffff1681526020019081526020015f206040518060a00160405280600354815260200142815260200185815260200184815260200183815250908060018154018082558091505060019003905f5260205f2090600502015f909190919091505f820151815f0155602082015181600101556040820151816002019081611ada9190612d44565b506060820151816003019081611af09190612d44565b506080820151816004019081611b069190612d44565b50505034600c5f3373ffffffffffffffffffffffffffffffffffffffff1673ffffffffffffffffffffffffffffffffffffffff1681526020019081526020015f205f828254611b559190612b74565b92505081905550505050565b600d602052805f5260405f205f915054906101000a900460ff1681565b5f5481565b60025481565b600c602052805f5260405f205f915090505481565b60605f670de0b6b3a764000083611bb59190612b11565b90505f670de0b6b3a764000084611bcc9190612f71565b90505f66038d7ea4c6800082611be29190612b11565b9050611bed83611c20565b611bf682611d79565b604051602001611c0792919061306f565b6040516020818303038152906040529350505050919050565b60605f8203611c66576040518060400160405280600181526020017f30000000000000000000000000000000000000000000000000000000000000008152509050611d74565b5f8290505f5b5f8214611c95578080611c7e90612a5c565b915050600a82611c8e9190612b11565b9150611c6c565b5f8167ffffffffffffffff811115611cb057611caf612494565b5b6040519080825280601f01601f191660200182016040528015611ce25781602001600182028036833780820191505090505b5090505b5f8514611d6d57600182611cfa9190612b41565b9150600a85611d099190612f71565b6030611d159190612b74565b60f81b818381518110611d2b57611d2a612a02565b5b60200101907effffffffffffffffffffffffffffffffffffffffffffffffffffffffffffff191690815f1a905350600a85611d669190612b11565b9450611ce6565b8093505050505b919050565b6060600a821015611db357611d8d82611c20565b604051602001611d9d91906130f2565b6040516020818303038152906040529050611df7565b6064821015611deb57611dc582611c20565b604051602001611dd5919061315d565b6040516020818303038152906040529050611df7565b611df482611c20565b90505b919050565b6040518060a001604052805f81526020015f81526020016060815260200160608152602001606081525090565b5f819050919050565b611e3b81611e29565b82525050565b5f602082019050611e545f830184611e32565b92915050565b5f604051905090565b5f80fd5b5f80fd5b611e7481611e29565b8114611e7e575f80fd5b50565b5f81359050611e8f81611e6b565b92915050565b5f60208284031215611eaa57611ea9611e63565b5b5f611eb784828501611e81565b91505092915050565b5f73ffffffffffffffffffffffffffffffffffffffff82169050919050565b5f611ee982611ec0565b9050919050565b611ef981611edf565b82525050565b5f602082019050611f125f830184611ef0565b92915050565b5f81519050919050565b5f82825260208201905092915050565b5f819050602082019050919050565b611f4a81611e29565b82525050565b5f81519050919050565b5f82825260208201905092915050565b5f5b83811015611f87578082015181840152602081019050611f6c565b5f8484015250505050565b5f601f19601f8301169050919050565b5f611fac82611f50565b611fb68185611f5a565b9350611fc6818560208601611f6a565b611fcf81611f92565b840191505092915050565b611fe381611edf565b82525050565b5f608083015f830151611ffe5f860182611f41565b50602083015184820360208601526120168282611fa2565b915050604083015184820360408601526120308282611fa2565b91505060608301516120456060860182611fda565b508091505092915050565b5f61205b8383611fe9565b905092915050565b5f602082019050919050565b5f61207982611f18565b6120838185611f22565b93508360208202850161209585611f32565b805f5b858110156120d057848403895281516120b18582612050565b94506120bc83612063565b925060208a01995050600181019050612098565b50829750879550505050505092915050565b5f6020820190508181035f8301526120fa818461206f565b905092915050565b5f82825260208201905092915050565b5f61211c82611f50565b6121268185612102565b9350612136818560208601611f6a565b61213f81611f92565b840191505092915050565b5f6020820190508181035f8301526121628184612112565b905092915050565b5f81519050919050565b5f82825260208201905092915050565b5f819050602082019050919050565b5f60a083015f8301516121a85f860182611f41565b5060208301516121bb6020860182611f41565b50604083015184820360408601526121d38282611fa2565b915050606083015184820360608601526121ed8282611fa2565b915050608083015184820360808601526122078282611fa2565b9150508091505092915050565b5f61221f8383612193565b905092915050565b5f602082019050919050565b5f61223d8261216a565b6122478185612174565b93508360208202850161225985612184565b805f5b8581101561229457848403895281516122758582612214565b945061228083612227565b925060208a0199505060018101905061225c565b50829750879550505050505092915050565b5f6020820190508181035f8301526122be8184612233565b905092915050565b6122cf81611edf565b81146122d9575f80fd5b50565b5f813590506122ea816122c6565b92915050565b5f806040838503121561230657612305611e63565b5b5f612313858286016122dc565b925050602061232485828601611e81565b9150509250929050565b5f60a0820190506123415f830188611e32565b61234e6020830187611e32565b81810360408301526123608186612112565b905081810360608301526123748185612112565b905081810360808301526123888184612112565b90509695505050505050565b5f60c0820190506123a75f830189611e32565b6123b46020830188611e32565b6123c16040830187611e32565b81810360608301526123d38186612112565b905081810360808301526123e78185612112565b905081810360a08301526123fb8184612112565b9050979650505050505050565b5f60808201905061241b5f830187611e32565b818103602083015261242d8186612112565b905081810360408301526124418185612112565b90506124506060830184611ef0565b95945050505050565b5f8115159050919050565b61246d81612459565b82525050565b5f6020820190506124865f830184612464565b92915050565b5f80fd5b5f80fd5b7f4e487b71000000000000000000000000000000000000000000000000000000005f52604160045260245ffd5b6124ca82611f92565b810181811067ffffffffffffffff821117156124e9576124e8612494565b5b80604052505050565b5f6124fb611e5a565b905061250782826124c1565b919050565b5f67ffffffffffffffff82111561252657612525612494565b5b61252f82611f92565b9050602081019050919050565b828183375f83830152505050565b5f61255c6125578461250c565b6124f2565b90508281526020810184848401111561257857612577612490565b5b61258384828561253c565b509392505050565b5f82601f83011261259f5761259e61248c565b5b81356125af84826020860161254a565b91505092915050565b5f805f606084860312156125cf576125ce611e63565b5b5f6125dc86828701611e81565b935050602084013567ffffffffffffffff8111156125fd576125fc611e67565b5b6126098682870161258b565b925050604084013567ffffffffffffffff81111561262a57612629611e67565b5b6126368682870161258b565b9150509250925092565b5f805f6060848603121561265757612656611e63565b5b5f84013567ffffffffffffffff81111561267457612673611e67565b5b6126808682870161258b565b935050602084013567ffffffffffffffff8111156126a1576126a0611e67565b5b6126ad8682870161258b565b925050604084013567ffffffffffffffff8111156126ce576126cd611e67565b5b6126da8682870161258b565b9150509250925092565b5f602082840312156126f9576126f8611e63565b5b5f612706848285016122dc565b91505092915050565b7f5769746864726177616c732061726520636c6f73656420616674657220656e645f8201527f4461746500000000000000000000000000000000000000000000000000000000602082015250565b5f612769602483612102565b91506127748261270f565b604082019050919050565b5f6020820190508181035f8301526127968161275d565b9050919050565b7f4e6f2062616c616e636520746f207769746864726177000000000000000000005f82015250565b5f6127d1601683612102565b91506127dc8261279d565b602082019050919050565b5f6020820190508181035f8301526127fe816127c5565b9050919050565b7f4e487b71000000000000000000000000000000000000000000000000000000005f52602260045260245ffd5b5f600282049050600182168061284957607f821691505b60208210810361285c5761285b612805565b5b50919050565b7f4f6e6c79206f776e65722063616e2066696e616c697a650000000000000000005f82015250565b5f612896601783612102565b91506128a182612862565b602082019050919050565b5f6020820190508181035f8301526128c38161288a565b9050919050565b7f416c72656164792066696e616c697a65640000000000000000000000000000005f82015250565b5f6128fe601183612102565b9150612909826128ca565b602082019050919050565b5f6020820190508181035f83015261292b816128f2565b9050919050565b7f4e6f206f666665727320617661696c61626c65000000000000000000000000005f82015250565b5f612966601383612102565b915061297182612932565b602082019050919050565b5f6020820190508181035f8301526129938161295a565b9050919050565b7f4e6f207061727469636970616e747300000000000000000000000000000000005f82015250565b5f6129ce600f83612102565b91506129d98261299a565b602082019050919050565b5f6020820190508181035f8301526129fb816129c2565b9050919050565b7f4e487b71000000000000000000000000000000000000000000000000000000005f52603260045260245ffd5b7f4e487b71000000000000000000000000000000000000000000000000000000005f52601160045260245ffd5b5f612a6682611e29565b91507fffffffffffffffffffffffffffffffffffffffffffffffffffffffffffffffff8203612a9857612a97612a2f565b5b600182019050919050565b5f612aad82611e29565b9150612ab883611e29565b9250828202612ac681611e29565b91508282048414831517612add57612adc612a2f565b5b5092915050565b7f4e487b71000000000000000000000000000000000000000000000000000000005f52601260045260245ffd5b5f612b1b82611e29565b9150612b2683611e29565b925082612b3657612b35612ae4565b5b828204905092915050565b5f612b4b82611e29565b9150612b5683611e29565b9250828203905081811115612b6e57612b6d612a2f565b5b92915050565b5f612b7e82611e29565b9150612b8983611e29565b9250828201905080821115612ba157612ba0612a2f565b5b92915050565b5f819050815f5260205f209050919050565b5f6020601f8301049050919050565b5f82821b905092915050565b5f60088302612c037fffffffffffffffffffffffffffffffffffffffffffffffffffffffffffffffff82612bc8565b612c0d8683612bc8565b95508019841693508086168417925050509392505050565b5f819050919050565b5f612c48612c43612c3e84611e29565b612c25565b611e29565b9050919050565b5f819050919050565b612c6183612c2e565b612c75612c6d82612c4f565b848454612bd4565b825550505050565b5f90565b612c89612c7d565b612c94818484612c58565b505050565b5b81811015612cb757612cac5f82612c81565b600181019050612c9a565b5050565b601f821115612cfc57612ccd81612ba7565b612cd684612bb9565b81016020851015612ce5578190505b612cf9612cf185612bb9565b830182612c99565b50505b505050565b5f82821c905092915050565b5f612d1c5f1984600802612d01565b1980831691505092915050565b5f612d348383612d0d565b9150826002028217905092915050565b612d4d82611f50565b67ffffffffffffffff811115612d6657612d65612494565b5b612d708254612832565b612d7b828285612cbb565b5f60209050601f831160018114612dac575f8415612d9a578287015190505b612da48582612d29565b865550612e0b565b601f198416612dba86612ba7565b5f5b82811015612de157848901518255600182019150602085019450602081019050612dbc565b86831015612dfe5784890151612dfa601f891682612d0d565b8355505b6001600288020188555050505b505050505050565b7f53656e7420455448206d75737420657175616c207072696365000000000000005f82015250565b5f612e47601983612102565b9150612e5282612e13565b602082019050919050565b5f6020820190508181035f830152612e7481612e3b565b9050919050565b7f4d6178696d756d207061727469636970616e74206c696d6974207265616368655f8201527f6400000000000000000000000000000000000000000000000000000000000000602082015250565b5f612ed5602183612102565b9150612ee082612e7b565b604082019050919050565b5f6020820190508181035f830152612f0281612ec9565b9050919050565b7f507572636861736520706572696f642068617320656e646564000000000000005f82015250565b5f612f3d601983612102565b9150612f4882612f09565b602082019050919050565b5f6020820190508181035f830152612f6a81612f31565b9050919050565b5f612f7b82611e29565b9150612f8683611e29565b925082612f9657612f95612ae4565b5b828206905092915050565b5f81905092915050565b5f612fb582611f50565b612fbf8185612fa1565b9350612fcf818560208601611f6a565b80840191505092915050565b7f2e000000000000000000000000000000000000000000000000000000000000005f82015250565b5f61300f600183612fa1565b915061301a82612fdb565b600182019050919050565b7f20455448000000000000000000000000000000000000000000000000000000005f82015250565b5f613059600483612fa1565b915061306482613025565b600482019050919050565b5f61307a8285612fab565b915061308582613003565b91506130918284612fab565b915061309c8261304d565b91508190509392505050565b7f30300000000000000000000000000000000000000000000000000000000000005f82015250565b5f6130dc600283612fa1565b91506130e7826130a8565b600282019050919050565b5f6130fc826130d0565b91506131088284612fab565b915081905092915050565b7f30000000000000000000000000000000000000000000000000000000000000005f82015250565b5f613147600183612fa1565b915061315282613113565b600182019050919050565b5f6131678261313b565b91506131738284612fab565b91508190509291505056fea264697066735822122022afb35cd116f907bbf7d0d58c792523f2bbae5f251781925d81c12719df83e464736f6c63430008140033",
  "linkReferences": {},
  "deployedLinkReferences": {},
  "immutableReferences": {},
  "inputSourceName": "project/contracts/BuyItem.sol",
  "buildInfoId": "solc-0_8_20-6b335a31612cb3a933c09871b75ce0b4d02d8e39"
}