{
  "_format": "hh3-artifact-1",
  "contractName": "BuyItem",
  "sourceName": "contracts/BuyItem.sol",
  "abi": [
    {
      "inputs": [
        {
          "internalType": "uint256",
          "name": "_maxParticipantCount",
          "type": "uint256"
        },
        {
          "internalType": "uint256",
          "name": "_price",
          "type": "uint256"
        },
        {
          "internalType": "string",
          "name": "_title",
          "type": "string"
        },
        {
          "internalType": "string",
          "name": "_description",
          "type": "string"
        }
      ],
      "stateMutability": "payable",
      "type": "constructor"
    },
    {
      "inputs": [
        {
          "internalType": "address",
          "name": "",
          "type": "address"
        }
      ],
      "name": "deposits",
      "outputs": [
        {
          "internalType": "uint256",
          "name": "",
          "type": "uint256"
        }
      ],
      "stateMutability": "view",
      "type": "function"
    },
    {
      "inputs": [],
      "name": "description",
      "outputs": [
        {
          "internalType": "string",
          "name": "",
          "type": "string"
        }
      ],
      "stateMutability": "view",
      "type": "function"
    },
    {
      "inputs": [],
      "name": "endDate",
      "outputs": [
        {
          "internalType": "uint256",
          "name": "",
          "type": "uint256"
        }
      ],
      "stateMutability": "view",
      "type": "function"
    },
    {
      "inputs": [],
      "name": "finalPrice",
      "outputs": [
        {
          "internalType": "uint256",
          "name": "",
          "type": "uint256"
        }
      ],
      "stateMutability": "view",
      "type": "function"
    },
    {
      "inputs": [],
      "name": "finalize",
      "outputs": [],
      "stateMutability": "nonpayable",
      "type": "function"
    },
    {
      "inputs": [],
      "name": "getBalance",
      "outputs": [
        {
          "internalType": "uint256",
          "name": "",
          "type": "uint256"
        }
      ],
      "stateMutability": "view",
      "type": "function"
    },
    {
      "inputs": [],
      "name": "getOffers",
      "outputs": [
        {
          "components": [
            {
              "internalType": "uint256",
              "name": "price",
              "type": "uint256"
            },
            {
              "internalType": "string",
              "name": "productName",
              "type": "string"
            },
            {
              "internalType": "string",
              "name": "productLink",
              "type": "string"
            },
            {
              "internalType": "address",
              "name": "walletAddress",
              "type": "address"
            },
            {
              "internalType": "string",
              "name": "companyId",
              "type": "string"
            }
          ],
          "internalType": "struct BuyItem.Offer[]",
          "name": "",
          "type": "tuple[]"
        }
      ],
      "stateMutability": "view",
      "type": "function"
    },
    {
      "inputs": [],
      "name": "getOffersCount",
      "outputs": [
        {
          "internalType": "uint256",
          "name": "",
          "type": "uint256"
        }
      ],
      "stateMutability": "view",
      "type": "function"
    },
    {
      "inputs": [],
      "name": "getParticipantInfo",
      "outputs": [
        {
          "internalType": "uint256",
          "name": "currentParticipants",
          "type": "uint256"
        },
        {
          "internalType": "uint256",
          "name": "maxParticipants",
          "type": "uint256"
        },
        {
          "internalType": "uint256",
          "name": "contractEndDate",
          "type": "uint256"
        },
        {
          "internalType": "string",
          "name": "priceETH",
          "type": "string"
        },
        {
          "internalType": "string",
          "name": "contractTitle",
          "type": "string"
        },
        {
          "internalType": "string",
          "name": "contractDescription",
          "type": "string"
        },
        {
          "internalType": "address",
          "name": "contractSenderCompany",
          "type": "address"
        },
        {
          "internalType": "bool",
          "name": "contractIsFinalized",
          "type": "bool"
        }
      ],
      "stateMutability": "view",
      "type": "function"
    },
    {
      "inputs": [
        {
          "internalType": "address",
          "name": "",
          "type": "address"
        }
      ],
      "name": "hasParticipated",
      "outputs": [
        {
          "internalType": "bool",
          "name": "",
          "type": "bool"
        }
      ],
      "stateMutability": "view",
      "type": "function"
    },
    {
      "inputs": [],
      "name": "isFinalized",
      "outputs": [
        {
          "internalType": "bool",
          "name": "",
          "type": "bool"
        }
      ],
      "stateMutability": "view",
      "type": "function"
    },
    {
      "inputs": [
        {
          "internalType": "address",
          "name": "_address",
          "type": "address"
        }
      ],
      "name": "isParticipant",
      "outputs": [
        {
          "internalType": "bool",
          "name": "",
          "type": "bool"
        }
      ],
      "stateMutability": "view",
      "type": "function"
    },
    {
      "inputs": [],
      "name": "maxParticipantCount",
      "outputs": [
        {
          "internalType": "uint256",
          "name": "",
          "type": "uint256"
        }
      ],
      "stateMutability": "view",
      "type": "function"
    },
    {
      "inputs": [
        {
          "internalType": "uint256",
          "name": "",
          "type": "uint256"
        }
      ],
      "name": "offers",
      "outputs": [
        {
          "internalType": "uint256",
          "name": "price",
          "type": "uint256"
        },
        {
          "internalType": "string",
          "name": "productName",
          "type": "string"
        },
        {
          "internalType": "string",
          "name": "productLink",
          "type": "string"
        },
        {
          "internalType": "address",
          "name": "walletAddress",
          "type": "address"
        },
        {
          "internalType": "string",
          "name": "companyId",
          "type": "string"
        }
      ],
      "stateMutability": "view",
      "type": "function"
    },
    {
      "inputs": [],
      "name": "owner",
      "outputs": [
        {
          "internalType": "address",
          "name": "",
          "type": "address"
        }
      ],
      "stateMutability": "view",
      "type": "function"
    },
    {
      "inputs": [
        {
          "internalType": "uint256",
          "name": "",
          "type": "uint256"
        }
      ],
      "name": "participants",
      "outputs": [
        {
          "internalType": "address",
          "name": "",
          "type": "address"
        }
      ],
      "stateMutability": "view",
      "type": "function"
    },
    {
      "inputs": [],
      "name": "price",
      "outputs": [
        {
          "internalType": "uint256",
          "name": "",
          "type": "uint256"
        }
      ],
      "stateMutability": "view",
      "type": "function"
    },
    {
      "inputs": [],
      "name": "purchase",
      "outputs": [],
      "stateMutability": "payable",
      "type": "function"
    },
    {
      "inputs": [],
      "name": "senderCompany",
      "outputs": [
        {
          "internalType": "address",
          "name": "",
          "type": "address"
        }
      ],
      "stateMutability": "view",
      "type": "function"
    },
    {
      "inputs": [
        {
          "internalType": "uint256",
          "name": "_price",
          "type": "uint256"
        },
        {
          "internalType": "string",
          "name": "_productName",
          "type": "string"
        },
        {
          "internalType": "string",
          "name": "_productLink",
          "type": "string"
        },
        {
          "internalType": "string",
          "name": "_companyId",
          "type": "string"
        }
      ],
      "name": "submitOffer",
      "outputs": [],
      "stateMutability": "payable",
      "type": "function"
    },
    {
      "inputs": [],
      "name": "title",
      "outputs": [
        {
          "internalType": "string",
          "name": "",
          "type": "string"
        }
      ],
      "stateMutability": "view",
      "type": "function"
    },
    {
      "inputs": [],
      "name": "withdraw",
      "outputs": [],
      "stateMutability": "nonpayable",
      "type": "function"
    }
  ],
  "bytecode": "0x608060405260405162003b9038038062003b908339818101604052810190620000299190620004be565b5f84116200006e576040517f08c379a00000000000000000000000000000000000000000000000000000000081526004016200006590620005ef565b60405180910390fd5b5f8311620000b3576040517f08c379a0000000000000000000000000000000000000000000000000000000008152600401620000aa906200065d565b60405180910390fd5b823414620000f8576040517f08c379a0000000000000000000000000000000000000000000000000000000008152600401620000ef90620006cb565b60405180910390fd5b62093a804262000109919062000718565b5f81905550836001819055508260028190555081600690816200012d919062000980565b5080600790816200013f919062000980565b505f60035f6101000a81548160ff02191690831515021790555073eb4df82103ec493614c15f96ccd2be93c69cf09960055f6101000a81548173ffffffffffffffffffffffffffffffffffffffff021916908373ffffffffffffffffffffffffffffffffffffffff1602179055505f60085f6101000a81548173ffffffffffffffffffffffffffffffffffffffff021916908373ffffffffffffffffffffffffffffffffffffffff1602179055506001600c5f3373ffffffffffffffffffffffffffffffffffffffff1673ffffffffffffffffffffffffffffffffffffffff1681526020019081526020015f205f6101000a81548160ff021916908315150217905550600a33908060018154018082558091505060019003905f5260205f20015f9091909190916101000a81548173ffffffffffffffffffffffffffffffffffffffff021916908373ffffffffffffffffffffffffffffffffffffffff16021790555034600b5f3373ffffffffffffffffffffffffffffffffffffffff1673ffffffffffffffffffffffffffffffffffffffff1681526020019081526020015f205f828254620002f0919062000718565b925050819055505050505062000a64565b5f604051905090565b5f80fd5b5f80fd5b5f819050919050565b620003268162000312565b811462000331575f80fd5b50565b5f8151905062000344816200031b565b92915050565b5f80fd5b5f80fd5b5f601f19601f8301169050919050565b7f4e487b71000000000000000000000000000000000000000000000000000000005f52604160045260245ffd5b6200039a8262000352565b810181811067ffffffffffffffff82111715620003bc57620003bb62000362565b5b80604052505050565b5f620003d062000301565b9050620003de82826200038f565b919050565b5f67ffffffffffffffff8211156200040057620003ff62000362565b5b6200040b8262000352565b9050602081019050919050565b5f5b83811015620004375780820151818401526020810190506200041a565b5f8484015250505050565b5f620004586200045284620003e3565b620003c5565b9050828152602081018484840111156200047757620004766200034e565b5b6200048484828562000418565b509392505050565b5f82601f830112620004a357620004a26200034a565b5b8151620004b584826020860162000442565b91505092915050565b5f805f8060808587031215620004d957620004d86200030a565b5b5f620004e88782880162000334565b9450506020620004fb8782880162000334565b935050604085015167ffffffffffffffff8111156200051f576200051e6200030e565b5b6200052d878288016200048c565b925050606085015167ffffffffffffffff8111156200055157620005506200030e565b5b6200055f878288016200048c565b91505092959194509250565b5f82825260208201905092915050565b7f4d6178207061727469636970616e7420636f756e74206d7573742062652067725f8201527f6561746572207468616e20300000000000000000000000000000000000000000602082015250565b5f620005d7602c836200056b565b9150620005e4826200057b565b604082019050919050565b5f6020820190508181035f8301526200060881620005c9565b9050919050565b7f5072696365206d7573742062652067726561746572207468616e2030000000005f82015250565b5f62000645601c836200056b565b915062000652826200060f565b602082019050919050565b5f6020820190508181035f830152620006768162000637565b9050919050565b7f4d7573742073656e6420657861637420707269636520616d6f756e74000000005f82015250565b5f620006b3601c836200056b565b9150620006c0826200067d565b602082019050919050565b5f6020820190508181035f830152620006e481620006a5565b9050919050565b7f4e487b71000000000000000000000000000000000000000000000000000000005f52601160045260245ffd5b5f620007248262000312565b9150620007318362000312565b92508282019050808211156200074c576200074b620006eb565b5b92915050565b5f81519050919050565b7f4e487b71000000000000000000000000000000000000000000000000000000005f52602260045260245ffd5b5f6002820490506001821680620007a157607f821691505b602082108103620007b757620007b66200075c565b5b50919050565b5f819050815f5260205f209050919050565b5f6020601f8301049050919050565b5f82821b905092915050565b5f600883026200081b7fffffffffffffffffffffffffffffffffffffffffffffffffffffffffffffffff82620007de565b620008278683620007de565b95508019841693508086168417925050509392505050565b5f819050919050565b5f62000868620008626200085c8462000312565b6200083f565b62000312565b9050919050565b5f819050919050565b620008838362000848565b6200089b62000892826200086f565b848454620007ea565b825550505050565b5f90565b620008b1620008a3565b620008be81848462000878565b505050565b5b81811015620008e557620008d95f82620008a7565b600181019050620008c4565b5050565b601f8211156200093457620008fe81620007bd565b6200090984620007cf565b8101602085101562000919578190505b620009316200092885620007cf565b830182620008c3565b50505b505050565b5f82821c905092915050565b5f620009565f198460080262000939565b1980831691505092915050565b5f62000970838362000945565b9150826002028217905092915050565b6200098b8262000752565b67ffffffffffffffff811115620009a757620009a662000362565b5b620009b3825462000789565b620009c0828285620008e9565b5f60209050601f831160018114620009f6575f8415620009e1578287015190505b620009ed858262000963565b86555062000a5c565b601f19841662000a0686620007bd565b5f5b8281101562000a2f5784890151825560018201915060208501945060208101905062000a08565b8683101562000a4f578489015162000a4b601f89168262000945565b8355505b6001600288020188555050505b505050505050565b61311e8062000a725f395ff3fe608060405260043610610134575f3560e01c80638d4e4083116100aa578063a6b513ee1161006e578063a6b513ee146103d1578063b4fb3ee3146103fb578063c24a0f8b14610437578063c462a40814610461578063d6c045f21461048b578063fc7e286d146104a757610134565b80638d4e4083146102ed5780638da5cb5b14610317578063903dd9ed14610341578063929066f51461036b578063a035b1fe146103a757610134565b80634a79d50c116100fc5780634a79d50c146102085780634bb278f31461023257806364edfbf0146102485780636bd45552146102525780637284e416146102835780638a72ea6a146102ad57610134565b806312065fe0146101385780632f2e7b751461016257806335c1d3491461018c5780633ccfd60b146101c85780633ee992ee146101de575b5f80fd5b348015610143575f80fd5b5061014c6104e3565b6040516101599190611dba565b60405180910390f35b34801561016d575f80fd5b506101766104ea565b6040516101839190611dba565b60405180910390f35b348015610197575f80fd5b506101b260048036038101906101ad9190611e0e565b6104f6565b6040516101bf9190611e78565b60405180910390f35b3480156101d3575f80fd5b506101dc610531565b005b3480156101e9575f80fd5b506101f261092d565b6040516101ff9190612075565b60405180910390f35b348015610213575f80fd5b5061021c610b97565b60405161022991906120dd565b60405180910390f35b34801561023d575f80fd5b50610246610c23565b005b610250611063565b005b34801561025d575f80fd5b50610266611317565b60405161027a989796959493929190612117565b60405180910390f35b34801561028e575f80fd5b5061029761149f565b6040516102a491906120dd565b60405180910390f35b3480156102b8575f80fd5b506102d360048036038101906102ce9190611e0e565b61152b565b6040516102e49594939291906121a8565b60405180910390f35b3480156102f8575f80fd5b5061030161171d565b60405161030e919061220e565b60405180910390f35b348015610322575f80fd5b5061032b61172f565b6040516103389190611e78565b60405180910390f35b34801561034c575f80fd5b50610355611754565b6040516103629190611e78565b60405180910390f35b348015610376575f80fd5b50610391600480360381019061038c9190612251565b611779565b60405161039e919061220e565b60405180910390f35b3480156103b2575f80fd5b506103bb6117cb565b6040516103c89190611dba565b60405180910390f35b3480156103dc575f80fd5b506103e56117d1565b6040516103f29190611dba565b60405180910390f35b348015610406575f80fd5b50610421600480360381019061041c9190612251565b6117d7565b60405161042e919061220e565b60405180910390f35b348015610442575f80fd5b5061044b6117f4565b6040516104589190611dba565b60405180910390f35b34801561046c575f80fd5b506104756117f9565b6040516104829190611dba565b60405180910390f35b6104a560048036038101906104a091906123a8565b6117ff565b005b3480156104b2575f80fd5b506104cd60048036038101906104c89190612251565b611b2f565b6040516104da9190611dba565b60405180910390f35b5f47905090565b5f600980549050905090565b600a8181548110610505575f80fd5b905f5260205f20015f915054906101000a900473ffffffffffffffffffffffffffffffffffffffff1681565b5f54421115610575576040517f08c379a000000000000000000000000000000000000000000000000000000000815260040161056c906124d0565b60405180910390fd5b60035f9054906101000a900460ff16156105c4576040517f08c379a00000000000000000000000000000000000000000000000000000000081526004016105bb9061255e565b60405180910390fd5b600c5f3373ffffffffffffffffffffffffffffffffffffffff1673ffffffffffffffffffffffffffffffffffffffff1681526020019081526020015f205f9054906101000a900460ff1661064d576040517f08c379a0000000000000000000000000000000000000000000000000000000008152600401610644906125c6565b60405180910390fd5b5f600b5f3373ffffffffffffffffffffffffffffffffffffffff1673ffffffffffffffffffffffffffffffffffffffff1681526020019081526020015f205490505f81116106d0576040517f08c379a00000000000000000000000000000000000000000000000000000000081526004016106c79061262e565b60405180910390fd5b5f600c5f3373ffffffffffffffffffffffffffffffffffffffff1673ffffffffffffffffffffffffffffffffffffffff1681526020019081526020015f205f6101000a81548160ff0219169083151502179055505f5b600a805490508110156108a3573373ffffffffffffffffffffffffffffffffffffffff16600a828154811061075e5761075d61264c565b5b905f5260205f20015f9054906101000a900473ffffffffffffffffffffffffffffffffffffffff1673ffffffffffffffffffffffffffffffffffffffff160361089057600a6001600a805490506107b591906126a6565b815481106107c6576107c561264c565b5b905f5260205f20015f9054906101000a900473ffffffffffffffffffffffffffffffffffffffff16600a82815481106108025761080161264c565b5b905f5260205f20015f6101000a81548173ffffffffffffffffffffffffffffffffffffffff021916908373ffffffffffffffffffffffffffffffffffffffff160217905550600a805480610859576108586126d9565b5b600190038181905f5260205f20015f6101000a81549073ffffffffffffffffffffffffffffffffffffffff021916905590556108a3565b808061089b90612706565b915050610726565b505f600b5f3373ffffffffffffffffffffffffffffffffffffffff1673ffffffffffffffffffffffffffffffffffffffff1681526020019081526020015f20819055503373ffffffffffffffffffffffffffffffffffffffff166108fc8290811502906040515f60405180830381858888f19350505050158015610929573d5f803e3d5ffd5b5050565b60606009805480602002602001604051908101604052809291908181526020015f905b82821015610b8e578382905f5260205f2090600502016040518060a00160405290815f820154815260200160018201805461098a9061277a565b80601f01602080910402602001604051908101604052809291908181526020018280546109b69061277a565b8015610a015780601f106109d857610100808354040283529160200191610a01565b820191905f5260205f20905b8154815290600101906020018083116109e457829003601f168201915b50505050508152602001600282018054610a1a9061277a565b80601f0160208091040260200160405190810160405280929190818152602001828054610a469061277a565b8015610a915780601f10610a6857610100808354040283529160200191610a91565b820191905f5260205f20905b815481529060010190602001808311610a7457829003601f168201915b50505050508152602001600382015f9054906101000a900473ffffffffffffffffffffffffffffffffffffffff1673ffffffffffffffffffffffffffffffffffffffff1673ffffffffffffffffffffffffffffffffffffffff168152602001600482018054610aff9061277a565b80601f0160208091040260200160405190810160405280929190818152602001828054610b2b9061277a565b8015610b765780601f10610b4d57610100808354040283529160200191610b76565b820191905f5260205f20905b815481529060010190602001808311610b5957829003601f168201915b50505050508152505081526020019060010190610950565b50505050905090565b60068054610ba49061277a565b80601f0160208091040260200160405190810160405280929190818152602001828054610bd09061277a565b8015610c1b5780601f10610bf257610100808354040283529160200191610c1b565b820191905f5260205f20905b815481529060010190602001808311610bfe57829003601f168201915b505050505081565b60035f9054906101000a900460ff1615610c72576040517f08c379a0000000000000000000000000000000000000000000000000000000008152600401610c69906127f4565b60405180910390fd5b5f60098054905011610cb9576040517f08c379a0000000000000000000000000000000000000000000000000000000008152600401610cb09061285c565b60405180910390fd5b5f600a8054905011610d00576040517f08c379a0000000000000000000000000000000000000000000000000000000008152600401610cf7906128c4565b60405180910390fd5b5f60095f81548110610d1557610d1461264c565b5b905f5260205f2090600502015f015490505f60095f81548110610d3b57610d3a61264c565b5b905f5260205f2090600502016003015f9054906101000a900473ffffffffffffffffffffffffffffffffffffffff1690505f600190505b600980549050811015610e27578260098281548110610d9457610d9361264c565b5b905f5260205f2090600502015f01541015610e145760098181548110610dbd57610dbc61264c565b5b905f5260205f2090600502015f0154925060098181548110610de257610de161264c565b5b905f5260205f2090600502016003015f9054906101000a900473ffffffffffffffffffffffffffffffffffffffff1691505b8080610e1f90612706565b915050610d72565b50816004819055508060085f6101000a81548173ffffffffffffffffffffffffffffffffffffffff021916908373ffffffffffffffffffffffffffffffffffffffff160217905550600160035f6101000a81548160ff0219169083151502179055505f600a80549050600454610e9d91906128e2565b90505f6064600a83610eaf91906128e2565b610eb99190612950565b90505f8183610ec891906126a6565b90505f600a80549050600454600254610ee191906126a6565b610eeb91906128e2565b90505f600a8054905082610eff9190612950565b90505f5b600a80549050811015610fb0575f600a8281548110610f2557610f2461264c565b5b905f5260205f20015f9054906101000a900473ffffffffffffffffffffffffffffffffffffffff1690505f831115610f9c578073ffffffffffffffffffffffffffffffffffffffff166108fc8490811502906040515f60405180830381858888f19350505050158015610f9a573d5f803e3d5ffd5b505b508080610fa890612706565b915050610f03565b5060055f9054906101000a900473ffffffffffffffffffffffffffffffffffffffff1673ffffffffffffffffffffffffffffffffffffffff166108fc8590811502906040515f60405180830381858888f19350505050158015611015573d5f803e3d5ffd5b508573ffffffffffffffffffffffffffffffffffffffff166108fc8490811502906040515f60405180830381858888f19350505050158015611059573d5f803e3d5ffd5b5050505050505050565b60025434146110a7576040517f08c379a000000000000000000000000000000000000000000000000000000000815260040161109e906129ca565b60405180910390fd5b600154600a80549050106110f0576040517f08c379a00000000000000000000000000000000000000000000000000000000081526004016110e790612a58565b60405180910390fd5b60035f9054906101000a900460ff161561113f576040517f08c379a000000000000000000000000000000000000000000000000000000000815260040161113690612ac0565b60405180910390fd5b5f54421115611183576040517f08c379a000000000000000000000000000000000000000000000000000000000815260040161117a90612b28565b60405180910390fd5b600c5f3373ffffffffffffffffffffffffffffffffffffffff1673ffffffffffffffffffffffffffffffffffffffff1681526020019081526020015f205f9054906101000a900460ff161561120d576040517f08c379a000000000000000000000000000000000000000000000000000000000815260040161120490612b90565b60405180910390fd5b6001600c5f3373ffffffffffffffffffffffffffffffffffffffff1673ffffffffffffffffffffffffffffffffffffffff1681526020019081526020015f205f6101000a81548160ff021916908315150217905550600a33908060018154018082558091505060019003905f5260205f20015f9091909190916101000a81548173ffffffffffffffffffffffffffffffffffffffff021916908373ffffffffffffffffffffffffffffffffffffffff16021790555034600b5f3373ffffffffffffffffffffffffffffffffffffffff1673ffffffffffffffffffffffffffffffffffffffff1681526020019081526020015f205f82825461130e9190612bae565b92505081905550565b5f805f60608060605f805f61132d600254611b44565b9050600a805490506001545f54836006600760085f9054906101000a900473ffffffffffffffffffffffffffffffffffffffff1660035f9054906101000a900460ff1683805461137c9061277a565b80601f01602080910402602001604051908101604052809291908181526020018280546113a89061277a565b80156113f35780601f106113ca576101008083540402835291602001916113f3565b820191905f5260205f20905b8154815290600101906020018083116113d657829003601f168201915b505050505093508280546114069061277a565b80601f01602080910402602001604051908101604052809291908181526020018280546114329061277a565b801561147d5780601f106114545761010080835404028352916020019161147d565b820191905f5260205f20905b81548152906001019060200180831161146057829003601f168201915b5050505050925098509850985098509850985098509850509091929394959697565b600780546114ac9061277a565b80601f01602080910402602001604051908101604052809291908181526020018280546114d89061277a565b80156115235780601f106114fa57610100808354040283529160200191611523565b820191905f5260205f20905b81548152906001019060200180831161150657829003601f168201915b505050505081565b6009818154811061153a575f80fd5b905f5260205f2090600502015f91509050805f01549080600101805461155f9061277a565b80601f016020809104026020016040519081016040528092919081815260200182805461158b9061277a565b80156115d65780601f106115ad576101008083540402835291602001916115d6565b820191905f5260205f20905b8154815290600101906020018083116115b957829003601f168201915b5050505050908060020180546115eb9061277a565b80601f01602080910402602001604051908101604052809291908181526020018280546116179061277a565b80156116625780601f1061163957610100808354040283529160200191611662565b820191905f5260205f20905b81548152906001019060200180831161164557829003601f168201915b505050505090806003015f9054906101000a900473ffffffffffffffffffffffffffffffffffffffff169080600401805461169c9061277a565b80601f01602080910402602001604051908101604052809291908181526020018280546116c89061277a565b80156117135780601f106116ea57610100808354040283529160200191611713565b820191905f5260205f20905b8154815290600101906020018083116116f657829003601f168201915b5050505050905085565b60035f9054906101000a900460ff1681565b60055f9054906101000a900473ffffffffffffffffffffffffffffffffffffffff1681565b60085f9054906101000a900473ffffffffffffffffffffffffffffffffffffffff1681565b5f600c5f8373ffffffffffffffffffffffffffffffffffffffff1673ffffffffffffffffffffffffffffffffffffffff1681526020019081526020015f205f9054906101000a900460ff169050919050565b60025481565b60045481565b600c602052805f5260405f205f915054906101000a900460ff1681565b5f5481565b60015481565b600154600a8054905010611848576040517f08c379a000000000000000000000000000000000000000000000000000000000815260040161183f90612a58565b60405180910390fd5b60035f9054906101000a900460ff1615611897576040517f08c379a000000000000000000000000000000000000000000000000000000000815260040161188e90612c51565b60405180910390fd5b5f544211156118db576040517f08c379a00000000000000000000000000000000000000000000000000000000081526004016118d290612b28565b60405180910390fd5b60096040518060a001604052808681526020018581526020018481526020013373ffffffffffffffffffffffffffffffffffffffff16815260200183815250908060018154018082558091505060019003905f5260205f2090600502015f909190919091505f820151815f0155602082015181600101908161195d9190612e0c565b5060408201518160020190816119739190612e0c565b506060820151816003015f6101000a81548173ffffffffffffffffffffffffffffffffffffffff021916908373ffffffffffffffffffffffffffffffffffffffff16021790555060808201518160040190816119cf9190612e0c565b505050600c5f3373ffffffffffffffffffffffffffffffffffffffff1673ffffffffffffffffffffffffffffffffffffffff1681526020019081526020015f205f9054906101000a900460ff16611ad6576001600c5f3373ffffffffffffffffffffffffffffffffffffffff1673ffffffffffffffffffffffffffffffffffffffff1681526020019081526020015f205f6101000a81548160ff021916908315150217905550600a33908060018154018082558091505060019003905f5260205f20015f9091909190916101000a81548173ffffffffffffffffffffffffffffffffffffffff021916908373ffffffffffffffffffffffffffffffffffffffff1602179055505b34600b5f3373ffffffffffffffffffffffffffffffffffffffff1673ffffffffffffffffffffffffffffffffffffffff1681526020019081526020015f205f828254611b229190612bae565b9250508190555050505050565b600b602052805f5260405f205f915090505481565b60605f670de0b6b3a764000083611b5b9190612950565b90505f670de0b6b3a764000084611b729190612edb565b90505f66038d7ea4c6800082611b889190612950565b9050611b9383611bc6565b611b9c82611d1f565b604051602001611bad929190612fd9565b6040516020818303038152906040529350505050919050565b60605f8203611c0c576040518060400160405280600181526020017f30000000000000000000000000000000000000000000000000000000000000008152509050611d1a565b5f8290505f5b5f8214611c3b578080611c2490612706565b915050600a82611c349190612950565b9150611c12565b5f8167ffffffffffffffff811115611c5657611c55612284565b5b6040519080825280601f01601f191660200182016040528015611c885781602001600182028036833780820191505090505b5090505b5f8514611d1357600182611ca091906126a6565b9150600a85611caf9190612edb565b6030611cbb9190612bae565b60f81b818381518110611cd157611cd061264c565b5b60200101907effffffffffffffffffffffffffffffffffffffffffffffffffffffffffffff191690815f1a905350600a85611d0c9190612950565b9450611c8c565b8093505050505b919050565b6060600a821015611d5957611d3382611bc6565b604051602001611d43919061305c565b6040516020818303038152906040529050611d9d565b6064821015611d9157611d6b82611bc6565b604051602001611d7b91906130c7565b6040516020818303038152906040529050611d9d565b611d9a82611bc6565b90505b919050565b5f819050919050565b611db481611da2565b82525050565b5f602082019050611dcd5f830184611dab565b92915050565b5f604051905090565b5f80fd5b5f80fd5b611ded81611da2565b8114611df7575f80fd5b50565b5f81359050611e0881611de4565b92915050565b5f60208284031215611e2357611e22611ddc565b5b5f611e3084828501611dfa565b91505092915050565b5f73ffffffffffffffffffffffffffffffffffffffff82169050919050565b5f611e6282611e39565b9050919050565b611e7281611e58565b82525050565b5f602082019050611e8b5f830184611e69565b92915050565b5f81519050919050565b5f82825260208201905092915050565b5f819050602082019050919050565b611ec381611da2565b82525050565b5f81519050919050565b5f82825260208201905092915050565b5f5b83811015611f00578082015181840152602081019050611ee5565b5f8484015250505050565b5f601f19601f8301169050919050565b5f611f2582611ec9565b611f2f8185611ed3565b9350611f3f818560208601611ee3565b611f4881611f0b565b840191505092915050565b611f5c81611e58565b82525050565b5f60a083015f830151611f775f860182611eba565b5060208301518482036020860152611f8f8282611f1b565b91505060408301518482036040860152611fa98282611f1b565b9150506060830151611fbe6060860182611f53565b5060808301518482036080860152611fd68282611f1b565b9150508091505092915050565b5f611fee8383611f62565b905092915050565b5f602082019050919050565b5f61200c82611e91565b6120168185611e9b565b93508360208202850161202885611eab565b805f5b8581101561206357848403895281516120448582611fe3565b945061204f83611ff6565b925060208a0199505060018101905061202b565b50829750879550505050505092915050565b5f6020820190508181035f83015261208d8184612002565b905092915050565b5f82825260208201905092915050565b5f6120af82611ec9565b6120b98185612095565b93506120c9818560208601611ee3565b6120d281611f0b565b840191505092915050565b5f6020820190508181035f8301526120f581846120a5565b905092915050565b5f8115159050919050565b612111816120fd565b82525050565b5f6101008201905061212b5f83018b611dab565b612138602083018a611dab565b6121456040830189611dab565b818103606083015261215781886120a5565b9050818103608083015261216b81876120a5565b905081810360a083015261217f81866120a5565b905061218e60c0830185611e69565b61219b60e0830184612108565b9998505050505050505050565b5f60a0820190506121bb5f830188611dab565b81810360208301526121cd81876120a5565b905081810360408301526121e181866120a5565b90506121f06060830185611e69565b818103608083015261220281846120a5565b90509695505050505050565b5f6020820190506122215f830184612108565b92915050565b61223081611e58565b811461223a575f80fd5b50565b5f8135905061224b81612227565b92915050565b5f6020828403121561226657612265611ddc565b5b5f6122738482850161223d565b91505092915050565b5f80fd5b5f80fd5b7f4e487b71000000000000000000000000000000000000000000000000000000005f52604160045260245ffd5b6122ba82611f0b565b810181811067ffffffffffffffff821117156122d9576122d8612284565b5b80604052505050565b5f6122eb611dd3565b90506122f782826122b1565b919050565b5f67ffffffffffffffff82111561231657612315612284565b5b61231f82611f0b565b9050602081019050919050565b828183375f83830152505050565b5f61234c612347846122fc565b6122e2565b90508281526020810184848401111561236857612367612280565b5b61237384828561232c565b509392505050565b5f82601f83011261238f5761238e61227c565b5b813561239f84826020860161233a565b91505092915050565b5f805f80608085870312156123c0576123bf611ddc565b5b5f6123cd87828801611dfa565b945050602085013567ffffffffffffffff8111156123ee576123ed611de0565b5b6123fa8782880161237b565b935050604085013567ffffffffffffffff81111561241b5761241a611de0565b5b6124278782880161237b565b925050606085013567ffffffffffffffff81111561244857612447611de0565b5b6124548782880161237b565b91505092959194509250565b7f5769746864726177616c732061726520636c6f73656420616674657220656e645f8201527f4461746500000000000000000000000000000000000000000000000000000000602082015250565b5f6124ba602483612095565b91506124c582612460565b604082019050919050565b5f6020820190508181035f8301526124e7816124ae565b9050919050565b7f43616e6e6f742077697468647261772061667465722066696e616c697a6174695f8201527f6f6e000000000000000000000000000000000000000000000000000000000000602082015250565b5f612548602283612095565b9150612553826124ee565b604082019050919050565b5f6020820190508181035f8301526125758161253c565b9050919050565b7f596f7520617265206e6f742061207061727469636970616e74000000000000005f82015250565b5f6125b0601983612095565b91506125bb8261257c565b602082019050919050565b5f6020820190508181035f8301526125dd816125a4565b9050919050565b7f4e6f2062616c616e636520746f207769746864726177000000000000000000005f82015250565b5f612618601683612095565b9150612623826125e4565b602082019050919050565b5f6020820190508181035f8301526126458161260c565b9050919050565b7f4e487b71000000000000000000000000000000000000000000000000000000005f52603260045260245ffd5b7f4e487b71000000000000000000000000000000000000000000000000000000005f52601160045260245ffd5b5f6126b082611da2565b91506126bb83611da2565b92508282039050818111156126d3576126d2612679565b5b92915050565b7f4e487b71000000000000000000000000000000000000000000000000000000005f52603160045260245ffd5b5f61271082611da2565b91507fffffffffffffffffffffffffffffffffffffffffffffffffffffffffffffffff820361274257612741612679565b5b600182019050919050565b7f4e487b71000000000000000000000000000000000000000000000000000000005f52602260045260245ffd5b5f600282049050600182168061279157607f821691505b6020821081036127a4576127a361274d565b5b50919050565b7f416c72656164792066696e616c697a65640000000000000000000000000000005f82015250565b5f6127de601183612095565b91506127e9826127aa565b602082019050919050565b5f6020820190508181035f83015261280b816127d2565b9050919050565b7f4e6f206f666665727320617661696c61626c65000000000000000000000000005f82015250565b5f612846601383612095565b915061285182612812565b602082019050919050565b5f6020820190508181035f8301526128738161283a565b9050919050565b7f4e6f207061727469636970616e747300000000000000000000000000000000005f82015250565b5f6128ae600f83612095565b91506128b98261287a565b602082019050919050565b5f6020820190508181035f8301526128db816128a2565b9050919050565b5f6128ec82611da2565b91506128f783611da2565b925082820261290581611da2565b9150828204841483151761291c5761291b612679565b5b5092915050565b7f4e487b71000000000000000000000000000000000000000000000000000000005f52601260045260245ffd5b5f61295a82611da2565b915061296583611da2565b92508261297557612974612923565b5b828204905092915050565b7f4d7573742073656e642065786163742063616d706169676e20707269636500005f82015250565b5f6129b4601e83612095565b91506129bf82612980565b602082019050919050565b5f6020820190508181035f8301526129e1816129a8565b9050919050565b7f4d6178696d756d207061727469636970616e74206c696d6974207265616368655f8201527f6400000000000000000000000000000000000000000000000000000000000000602082015250565b5f612a42602183612095565b9150612a4d826129e8565b604082019050919050565b5f6020820190508181035f830152612a6f81612a36565b9050919050565b7f43616d706169676e2068617320656e64656400000000000000000000000000005f82015250565b5f612aaa601283612095565b9150612ab582612a76565b602082019050919050565b5f6020820190508181035f830152612ad781612a9e565b9050919050565b7f43616d706169676e2068617320657870697265640000000000000000000000005f82015250565b5f612b12601483612095565b9150612b1d82612ade565b602082019050919050565b5f6020820190508181035f830152612b3f81612b06565b9050919050565b7f596f75206861766520616c7265616479207061727469636970617465640000005f82015250565b5f612b7a601d83612095565b9150612b8582612b46565b602082019050919050565b5f6020820190508181035f830152612ba781612b6e565b9050919050565b5f612bb882611da2565b9150612bc383611da2565b9250828201905080821115612bdb57612bda612679565b5b92915050565b7f4f66666572207375626d697373696f6e20706572696f642068617320656e64655f8201527f6400000000000000000000000000000000000000000000000000000000000000602082015250565b5f612c3b602183612095565b9150612c4682612be1565b604082019050919050565b5f6020820190508181035f830152612c6881612c2f565b9050919050565b5f819050815f5260205f209050919050565b5f6020601f8301049050919050565b5f82821b905092915050565b5f60088302612ccb7fffffffffffffffffffffffffffffffffffffffffffffffffffffffffffffffff82612c90565b612cd58683612c90565b95508019841693508086168417925050509392505050565b5f819050919050565b5f612d10612d0b612d0684611da2565b612ced565b611da2565b9050919050565b5f819050919050565b612d2983612cf6565b612d3d612d3582612d17565b848454612c9c565b825550505050565b5f90565b612d51612d45565b612d5c818484612d20565b505050565b5b81811015612d7f57612d745f82612d49565b600181019050612d62565b5050565b601f821115612dc457612d9581612c6f565b612d9e84612c81565b81016020851015612dad578190505b612dc1612db985612c81565b830182612d61565b50505b505050565b5f82821c905092915050565b5f612de45f1984600802612dc9565b1980831691505092915050565b5f612dfc8383612dd5565b9150826002028217905092915050565b612e1582611ec9565b67ffffffffffffffff811115612e2e57612e2d612284565b5b612e38825461277a565b612e43828285612d83565b5f60209050601f831160018114612e74575f8415612e62578287015190505b612e6c8582612df1565b865550612ed3565b601f198416612e8286612c6f565b5f5b82811015612ea957848901518255600182019150602085019450602081019050612e84565b86831015612ec65784890151612ec2601f891682612dd5565b8355505b6001600288020188555050505b505050505050565b5f612ee582611da2565b9150612ef083611da2565b925082612f0057612eff612923565b5b828206905092915050565b5f81905092915050565b5f612f1f82611ec9565b612f298185612f0b565b9350612f39818560208601611ee3565b80840191505092915050565b7f2e000000000000000000000000000000000000000000000000000000000000005f82015250565b5f612f79600183612f0b565b9150612f8482612f45565b600182019050919050565b7f20455448000000000000000000000000000000000000000000000000000000005f82015250565b5f612fc3600483612f0b565b9150612fce82612f8f565b600482019050919050565b5f612fe48285612f15565b9150612fef82612f6d565b9150612ffb8284612f15565b915061300682612fb7565b91508190509392505050565b7f30300000000000000000000000000000000000000000000000000000000000005f82015250565b5f613046600283612f0b565b915061305182613012565b600282019050919050565b5f6130668261303a565b91506130728284612f15565b915081905092915050565b7f30000000000000000000000000000000000000000000000000000000000000005f82015250565b5f6130b1600183612f0b565b91506130bc8261307d565b600182019050919050565b5f6130d1826130a5565b91506130dd8284612f15565b91508190509291505056fea2646970667358221220a9b533f3955065d7f8350a894bf86e3bd32aabbb046203a4fe4018e5f0071bb564736f6c63430008140033",
  "linkReferences": {},
  "deployedLinkReferences": {},
  "immutableReferences": {},
  "inputSourceName": "project/contracts/BuyItem.sol",
  "buildInfoId": "solc-0_8_20-f83ab55e0dd0817c606ef741a5e349b85ecbfa44"
}