{
  "_format": "hh3-artifact-1",
  "contractName": "BuyItem",
  "sourceName": "contracts/BuyItem.sol",
  "abi": [
    {
      "inputs": [
        {
          "internalType": "uint256",
          "name": "_maxParticipantCount",
          "type": "uint256"
        },
        {
          "internalType": "uint256",
          "name": "_price",
          "type": "uint256"
        },
        {
          "internalType": "string",
          "name": "_title",
          "type": "string"
        },
        {
          "internalType": "string",
          "name": "_description",
          "type": "string"
        }
      ],
      "stateMutability": "payable",
      "type": "constructor"
    },
    {
      "inputs": [
        {
          "internalType": "address",
          "name": "",
          "type": "address"
        }
      ],
      "name": "deposits",
      "outputs": [
        {
          "internalType": "uint256",
          "name": "",
          "type": "uint256"
        }
      ],
      "stateMutability": "view",
      "type": "function"
    },
    {
      "inputs": [],
      "name": "description",
      "outputs": [
        {
          "internalType": "string",
          "name": "",
          "type": "string"
        }
      ],
      "stateMutability": "view",
      "type": "function"
    },
    {
      "inputs": [],
      "name": "endDate",
      "outputs": [
        {
          "internalType": "uint256",
          "name": "",
          "type": "uint256"
        }
      ],
      "stateMutability": "view",
      "type": "function"
    },
    {
      "inputs": [],
      "name": "finalPrice",
      "outputs": [
        {
          "internalType": "uint256",
          "name": "",
          "type": "uint256"
        }
      ],
      "stateMutability": "view",
      "type": "function"
    },
    {
      "inputs": [],
      "name": "finalize",
      "outputs": [],
      "stateMutability": "nonpayable",
      "type": "function"
    },
    {
      "inputs": [],
      "name": "getBalance",
      "outputs": [
        {
          "internalType": "uint256",
          "name": "",
          "type": "uint256"
        }
      ],
      "stateMutability": "view",
      "type": "function"
    },
    {
      "inputs": [],
      "name": "getOffers",
      "outputs": [
        {
          "components": [
            {
              "internalType": "uint256",
              "name": "price",
              "type": "uint256"
            },
            {
              "internalType": "string",
              "name": "productName",
              "type": "string"
            },
            {
              "internalType": "string",
              "name": "productLink",
              "type": "string"
            },
            {
              "internalType": "address",
              "name": "walletAddress",
              "type": "address"
            },
            {
              "internalType": "string",
              "name": "companyId",
              "type": "string"
            }
          ],
          "internalType": "struct BuyItem.Offer[]",
          "name": "",
          "type": "tuple[]"
        }
      ],
      "stateMutability": "view",
      "type": "function"
    },
    {
      "inputs": [],
      "name": "getOffersCount",
      "outputs": [
        {
          "internalType": "uint256",
          "name": "",
          "type": "uint256"
        }
      ],
      "stateMutability": "view",
      "type": "function"
    },
    {
      "inputs": [],
      "name": "getParticipantInfo",
      "outputs": [
        {
          "internalType": "uint256",
          "name": "currentParticipants",
          "type": "uint256"
        },
        {
          "internalType": "uint256",
          "name": "maxParticipants",
          "type": "uint256"
        },
        {
          "internalType": "uint256",
          "name": "contractEndDate",
          "type": "uint256"
        },
        {
          "internalType": "string",
          "name": "priceETH",
          "type": "string"
        },
        {
          "internalType": "string",
          "name": "contractTitle",
          "type": "string"
        },
        {
          "internalType": "string",
          "name": "contractDescription",
          "type": "string"
        },
        {
          "internalType": "address",
          "name": "contractSenderCompany",
          "type": "address"
        },
        {
          "internalType": "bool",
          "name": "contractIsFinalized",
          "type": "bool"
        }
      ],
      "stateMutability": "view",
      "type": "function"
    },
    {
      "inputs": [
        {
          "internalType": "address",
          "name": "",
          "type": "address"
        }
      ],
      "name": "hasParticipated",
      "outputs": [
        {
          "internalType": "bool",
          "name": "",
          "type": "bool"
        }
      ],
      "stateMutability": "view",
      "type": "function"
    },
    {
      "inputs": [],
      "name": "isFinalized",
      "outputs": [
        {
          "internalType": "bool",
          "name": "",
          "type": "bool"
        }
      ],
      "stateMutability": "view",
      "type": "function"
    },
    {
      "inputs": [
        {
          "internalType": "address",
          "name": "_address",
          "type": "address"
        }
      ],
      "name": "isParticipant",
      "outputs": [
        {
          "internalType": "bool",
          "name": "",
          "type": "bool"
        }
      ],
      "stateMutability": "view",
      "type": "function"
    },
    {
      "inputs": [],
      "name": "maxParticipantCount",
      "outputs": [
        {
          "internalType": "uint256",
          "name": "",
          "type": "uint256"
        }
      ],
      "stateMutability": "view",
      "type": "function"
    },
    {
      "inputs": [
        {
          "internalType": "uint256",
          "name": "",
          "type": "uint256"
        }
      ],
      "name": "offers",
      "outputs": [
        {
          "internalType": "uint256",
          "name": "price",
          "type": "uint256"
        },
        {
          "internalType": "string",
          "name": "productName",
          "type": "string"
        },
        {
          "internalType": "string",
          "name": "productLink",
          "type": "string"
        },
        {
          "internalType": "address",
          "name": "walletAddress",
          "type": "address"
        },
        {
          "internalType": "string",
          "name": "companyId",
          "type": "string"
        }
      ],
      "stateMutability": "view",
      "type": "function"
    },
    {
      "inputs": [],
      "name": "owner",
      "outputs": [
        {
          "internalType": "address",
          "name": "",
          "type": "address"
        }
      ],
      "stateMutability": "view",
      "type": "function"
    },
    {
      "inputs": [
        {
          "internalType": "uint256",
          "name": "",
          "type": "uint256"
        }
      ],
      "name": "participants",
      "outputs": [
        {
          "internalType": "address",
          "name": "",
          "type": "address"
        }
      ],
      "stateMutability": "view",
      "type": "function"
    },
    {
      "inputs": [],
      "name": "price",
      "outputs": [
        {
          "internalType": "uint256",
          "name": "",
          "type": "uint256"
        }
      ],
      "stateMutability": "view",
      "type": "function"
    },
    {
      "inputs": [],
      "name": "purchase",
      "outputs": [],
      "stateMutability": "payable",
      "type": "function"
    },
    {
      "inputs": [],
      "name": "senderCompany",
      "outputs": [
        {
          "internalType": "address",
          "name": "",
          "type": "address"
        }
      ],
      "stateMutability": "view",
      "type": "function"
    },
    {
      "inputs": [
        {
          "internalType": "uint256",
          "name": "_price",
          "type": "uint256"
        },
        {
          "internalType": "string",
          "name": "_productName",
          "type": "string"
        },
        {
          "internalType": "string",
          "name": "_productLink",
          "type": "string"
        },
        {
          "internalType": "string",
          "name": "_companyId",
          "type": "string"
        }
      ],
      "name": "submitOffer",
      "outputs": [],
      "stateMutability": "payable",
      "type": "function"
    },
    {
      "inputs": [],
      "name": "title",
      "outputs": [
        {
          "internalType": "string",
          "name": "",
          "type": "string"
        }
      ],
      "stateMutability": "view",
      "type": "function"
    },
    {
      "inputs": [],
      "name": "withdraw",
      "outputs": [],
      "stateMutability": "nonpayable",
      "type": "function"
    }
  ],
  "bytecode": "0x608060405260405162003c8738038062003c878339818101604052810190620000299190620004be565b5f84116200006e576040517f08c379a00000000000000000000000000000000000000000000000000000000081526004016200006590620005ef565b60405180910390fd5b5f8311620000b3576040517f08c379a0000000000000000000000000000000000000000000000000000000008152600401620000aa906200065d565b60405180910390fd5b823414620000f8576040517f08c379a0000000000000000000000000000000000000000000000000000000008152600401620000ef90620006cb565b60405180910390fd5b62093a804262000109919062000718565b5f81905550836001819055508260028190555081600690816200012d919062000980565b5080600790816200013f919062000980565b505f60035f6101000a81548160ff02191690831515021790555073eb4df82103ec493614c15f96ccd2be93c69cf09960055f6101000a81548173ffffffffffffffffffffffffffffffffffffffff021916908373ffffffffffffffffffffffffffffffffffffffff1602179055505f60085f6101000a81548173ffffffffffffffffffffffffffffffffffffffff021916908373ffffffffffffffffffffffffffffffffffffffff1602179055506001600c5f3373ffffffffffffffffffffffffffffffffffffffff1673ffffffffffffffffffffffffffffffffffffffff1681526020019081526020015f205f6101000a81548160ff021916908315150217905550600a33908060018154018082558091505060019003905f5260205f20015f9091909190916101000a81548173ffffffffffffffffffffffffffffffffffffffff021916908373ffffffffffffffffffffffffffffffffffffffff16021790555034600b5f3373ffffffffffffffffffffffffffffffffffffffff1673ffffffffffffffffffffffffffffffffffffffff1681526020019081526020015f205f828254620002f0919062000718565b925050819055505050505062000a64565b5f604051905090565b5f80fd5b5f80fd5b5f819050919050565b620003268162000312565b811462000331575f80fd5b50565b5f8151905062000344816200031b565b92915050565b5f80fd5b5f80fd5b5f601f19601f8301169050919050565b7f4e487b71000000000000000000000000000000000000000000000000000000005f52604160045260245ffd5b6200039a8262000352565b810181811067ffffffffffffffff82111715620003bc57620003bb62000362565b5b80604052505050565b5f620003d062000301565b9050620003de82826200038f565b919050565b5f67ffffffffffffffff8211156200040057620003ff62000362565b5b6200040b8262000352565b9050602081019050919050565b5f5b83811015620004375780820151818401526020810190506200041a565b5f8484015250505050565b5f620004586200045284620003e3565b620003c5565b9050828152602081018484840111156200047757620004766200034e565b5b6200048484828562000418565b509392505050565b5f82601f830112620004a357620004a26200034a565b5b8151620004b584826020860162000442565b91505092915050565b5f805f8060808587031215620004d957620004d86200030a565b5b5f620004e88782880162000334565b9450506020620004fb8782880162000334565b935050604085015167ffffffffffffffff8111156200051f576200051e6200030e565b5b6200052d878288016200048c565b925050606085015167ffffffffffffffff8111156200055157620005506200030e565b5b6200055f878288016200048c565b91505092959194509250565b5f82825260208201905092915050565b7f4d6178207061727469636970616e7420636f756e74206d7573742062652067725f8201527f6561746572207468616e20300000000000000000000000000000000000000000602082015250565b5f620005d7602c836200056b565b9150620005e4826200057b565b604082019050919050565b5f6020820190508181035f8301526200060881620005c9565b9050919050565b7f5072696365206d7573742062652067726561746572207468616e2030000000005f82015250565b5f62000645601c836200056b565b915062000652826200060f565b602082019050919050565b5f6020820190508181035f830152620006768162000637565b9050919050565b7f4d7573742073656e6420657861637420707269636520616d6f756e74000000005f82015250565b5f620006b3601c836200056b565b9150620006c0826200067d565b602082019050919050565b5f6020820190508181035f830152620006e481620006a5565b9050919050565b7f4e487b71000000000000000000000000000000000000000000000000000000005f52601160045260245ffd5b5f620007248262000312565b9150620007318362000312565b92508282019050808211156200074c576200074b620006eb565b5b92915050565b5f81519050919050565b7f4e487b71000000000000000000000000000000000000000000000000000000005f52602260045260245ffd5b5f6002820490506001821680620007a157607f821691505b602082108103620007b757620007b66200075c565b5b50919050565b5f819050815f5260205f209050919050565b5f6020601f8301049050919050565b5f82821b905092915050565b5f600883026200081b7fffffffffffffffffffffffffffffffffffffffffffffffffffffffffffffffff82620007de565b620008278683620007de565b95508019841693508086168417925050509392505050565b5f819050919050565b5f62000868620008626200085c8462000312565b6200083f565b62000312565b9050919050565b5f819050919050565b620008838362000848565b6200089b62000892826200086f565b848454620007ea565b825550505050565b5f90565b620008b1620008a3565b620008be81848462000878565b505050565b5b81811015620008e557620008d95f82620008a7565b600181019050620008c4565b5050565b601f8211156200093457620008fe81620007bd565b6200090984620007cf565b8101602085101562000919578190505b620009316200092885620007cf565b830182620008c3565b50505b505050565b5f82821c905092915050565b5f620009565f198460080262000939565b1980831691505092915050565b5f62000970838362000945565b9150826002028217905092915050565b6200098b8262000752565b67ffffffffffffffff811115620009a757620009a662000362565b5b620009b3825462000789565b620009c0828285620008e9565b5f60209050601f831160018114620009f6575f8415620009e1578287015190505b620009ed858262000963565b86555062000a5c565b601f19841662000a0686620007bd565b5f5b8281101562000a2f5784890151825560018201915060208501945060208101905062000a08565b8683101562000a4f578489015162000a4b601f89168262000945565b8355505b6001600288020188555050505b505050505050565b6132158062000a725f395ff3fe608060405260043610610134575f3560e01c80638d4e4083116100aa578063a6b513ee1161006e578063a6b513ee146103d1578063b4fb3ee3146103fb578063c24a0f8b14610437578063c462a40814610461578063d6c045f21461048b578063fc7e286d146104a757610134565b80638d4e4083146102ed5780638da5cb5b14610317578063903dd9ed14610341578063929066f51461036b578063a035b1fe146103a757610134565b80634a79d50c116100fc5780634a79d50c146102085780634bb278f31461023257806364edfbf0146102485780636bd45552146102525780637284e416146102835780638a72ea6a146102ad57610134565b806312065fe0146101385780632f2e7b751461016257806335c1d3491461018c5780633ccfd60b146101c85780633ee992ee146101de575b5f80fd5b348015610143575f80fd5b5061014c6104e3565b6040516101599190611e49565b60405180910390f35b34801561016d575f80fd5b506101766104ea565b6040516101839190611e49565b60405180910390f35b348015610197575f80fd5b506101b260048036038101906101ad9190611e9d565b6104f6565b6040516101bf9190611f07565b60405180910390f35b3480156101d3575f80fd5b506101dc610531565b005b3480156101e9575f80fd5b506101f261092d565b6040516101ff9190612104565b60405180910390f35b348015610213575f80fd5b5061021c610b97565b604051610229919061216c565b60405180910390f35b34801561023d575f80fd5b50610246610c23565b005b6102506110f2565b005b34801561025d575f80fd5b506102666113a6565b60405161027a9897969594939291906121a6565b60405180910390f35b34801561028e575f80fd5b5061029761152e565b6040516102a4919061216c565b60405180910390f35b3480156102b8575f80fd5b506102d360048036038101906102ce9190611e9d565b6115ba565b6040516102e4959493929190612237565b60405180910390f35b3480156102f8575f80fd5b506103016117ac565b60405161030e919061229d565b60405180910390f35b348015610322575f80fd5b5061032b6117be565b6040516103389190611f07565b60405180910390f35b34801561034c575f80fd5b506103556117e3565b6040516103629190611f07565b60405180910390f35b348015610376575f80fd5b50610391600480360381019061038c91906122e0565b611808565b60405161039e919061229d565b60405180910390f35b3480156103b2575f80fd5b506103bb61185a565b6040516103c89190611e49565b60405180910390f35b3480156103dc575f80fd5b506103e5611860565b6040516103f29190611e49565b60405180910390f35b348015610406575f80fd5b50610421600480360381019061041c91906122e0565b611866565b60405161042e919061229d565b60405180910390f35b348015610442575f80fd5b5061044b611883565b6040516104589190611e49565b60405180910390f35b34801561046c575f80fd5b50610475611888565b6040516104829190611e49565b60405180910390f35b6104a560048036038101906104a09190612437565b61188e565b005b3480156104b2575f80fd5b506104cd60048036038101906104c891906122e0565b611bbe565b6040516104da9190611e49565b60405180910390f35b5f47905090565b5f600980549050905090565b600a8181548110610505575f80fd5b905f5260205f20015f915054906101000a900473ffffffffffffffffffffffffffffffffffffffff1681565b5f54421115610575576040517f08c379a000000000000000000000000000000000000000000000000000000000815260040161056c9061255f565b60405180910390fd5b60035f9054906101000a900460ff16156105c4576040517f08c379a00000000000000000000000000000000000000000000000000000000081526004016105bb906125ed565b60405180910390fd5b600c5f3373ffffffffffffffffffffffffffffffffffffffff1673ffffffffffffffffffffffffffffffffffffffff1681526020019081526020015f205f9054906101000a900460ff1661064d576040517f08c379a000000000000000000000000000000000000000000000000000000000815260040161064490612655565b60405180910390fd5b5f600b5f3373ffffffffffffffffffffffffffffffffffffffff1673ffffffffffffffffffffffffffffffffffffffff1681526020019081526020015f205490505f81116106d0576040517f08c379a00000000000000000000000000000000000000000000000000000000081526004016106c7906126bd565b60405180910390fd5b5f600c5f3373ffffffffffffffffffffffffffffffffffffffff1673ffffffffffffffffffffffffffffffffffffffff1681526020019081526020015f205f6101000a81548160ff0219169083151502179055505f5b600a805490508110156108a3573373ffffffffffffffffffffffffffffffffffffffff16600a828154811061075e5761075d6126db565b5b905f5260205f20015f9054906101000a900473ffffffffffffffffffffffffffffffffffffffff1673ffffffffffffffffffffffffffffffffffffffff160361089057600a6001600a805490506107b59190612735565b815481106107c6576107c56126db565b5b905f5260205f20015f9054906101000a900473ffffffffffffffffffffffffffffffffffffffff16600a8281548110610802576108016126db565b5b905f5260205f20015f6101000a81548173ffffffffffffffffffffffffffffffffffffffff021916908373ffffffffffffffffffffffffffffffffffffffff160217905550600a80548061085957610858612768565b5b600190038181905f5260205f20015f6101000a81549073ffffffffffffffffffffffffffffffffffffffff021916905590556108a3565b808061089b90612795565b915050610726565b505f600b5f3373ffffffffffffffffffffffffffffffffffffffff1673ffffffffffffffffffffffffffffffffffffffff1681526020019081526020015f20819055503373ffffffffffffffffffffffffffffffffffffffff166108fc8290811502906040515f60405180830381858888f19350505050158015610929573d5f803e3d5ffd5b5050565b60606009805480602002602001604051908101604052809291908181526020015f905b82821015610b8e578382905f5260205f2090600502016040518060a00160405290815f820154815260200160018201805461098a90612809565b80601f01602080910402602001604051908101604052809291908181526020018280546109b690612809565b8015610a015780601f106109d857610100808354040283529160200191610a01565b820191905f5260205f20905b8154815290600101906020018083116109e457829003601f168201915b50505050508152602001600282018054610a1a90612809565b80601f0160208091040260200160405190810160405280929190818152602001828054610a4690612809565b8015610a915780601f10610a6857610100808354040283529160200191610a91565b820191905f5260205f20905b815481529060010190602001808311610a7457829003601f168201915b50505050508152602001600382015f9054906101000a900473ffffffffffffffffffffffffffffffffffffffff1673ffffffffffffffffffffffffffffffffffffffff1673ffffffffffffffffffffffffffffffffffffffff168152602001600482018054610aff90612809565b80601f0160208091040260200160405190810160405280929190818152602001828054610b2b90612809565b8015610b765780601f10610b4d57610100808354040283529160200191610b76565b820191905f5260205f20905b815481529060010190602001808311610b5957829003601f168201915b50505050508152505081526020019060010190610950565b50505050905090565b60068054610ba490612809565b80601f0160208091040260200160405190810160405280929190818152602001828054610bd090612809565b8015610c1b5780601f10610bf257610100808354040283529160200191610c1b565b820191905f5260205f20905b815481529060010190602001808311610bfe57829003601f168201915b505050505081565b60055f9054906101000a900473ffffffffffffffffffffffffffffffffffffffff1673ffffffffffffffffffffffffffffffffffffffff163373ffffffffffffffffffffffffffffffffffffffff1614610cb2576040517f08c379a0000000000000000000000000000000000000000000000000000000008152600401610ca990612883565b60405180910390fd5b60035f9054906101000a900460ff1615610d01576040517f08c379a0000000000000000000000000000000000000000000000000000000008152600401610cf8906128eb565b60405180910390fd5b5f60098054905011610d48576040517f08c379a0000000000000000000000000000000000000000000000000000000008152600401610d3f90612953565b60405180910390fd5b5f600a8054905011610d8f576040517f08c379a0000000000000000000000000000000000000000000000000000000008152600401610d86906129bb565b60405180910390fd5b5f60095f81548110610da457610da36126db565b5b905f5260205f2090600502015f015490505f60095f81548110610dca57610dc96126db565b5b905f5260205f2090600502016003015f9054906101000a900473ffffffffffffffffffffffffffffffffffffffff1690505f600190505b600980549050811015610eb6578260098281548110610e2357610e226126db565b5b905f5260205f2090600502015f01541015610ea35760098181548110610e4c57610e4b6126db565b5b905f5260205f2090600502015f0154925060098181548110610e7157610e706126db565b5b905f5260205f2090600502016003015f9054906101000a900473ffffffffffffffffffffffffffffffffffffffff1691505b8080610eae90612795565b915050610e01565b50816004819055508060085f6101000a81548173ffffffffffffffffffffffffffffffffffffffff021916908373ffffffffffffffffffffffffffffffffffffffff160217905550600160035f6101000a81548160ff0219169083151502179055505f600a80549050600454610f2c91906129d9565b90505f6064600a83610f3e91906129d9565b610f489190612a47565b90505f8183610f579190612735565b90505f600a80549050600454600254610f709190612735565b610f7a91906129d9565b90505f600a8054905082610f8e9190612a47565b90505f5b600a8054905081101561103f575f600a8281548110610fb457610fb36126db565b5b905f5260205f20015f9054906101000a900473ffffffffffffffffffffffffffffffffffffffff1690505f83111561102b578073ffffffffffffffffffffffffffffffffffffffff166108fc8490811502906040515f60405180830381858888f19350505050158015611029573d5f803e3d5ffd5b505b50808061103790612795565b915050610f92565b5060055f9054906101000a900473ffffffffffffffffffffffffffffffffffffffff1673ffffffffffffffffffffffffffffffffffffffff166108fc8590811502906040515f60405180830381858888f193505050501580156110a4573d5f803e3d5ffd5b508573ffffffffffffffffffffffffffffffffffffffff166108fc8490811502906040515f60405180830381858888f193505050501580156110e8573d5f803e3d5ffd5b5050505050505050565b6002543414611136576040517f08c379a000000000000000000000000000000000000000000000000000000000815260040161112d90612ac1565b60405180910390fd5b600154600a805490501061117f576040517f08c379a000000000000000000000000000000000000000000000000000000000815260040161117690612b4f565b60405180910390fd5b60035f9054906101000a900460ff16156111ce576040517f08c379a00000000000000000000000000000000000000000000000000000000081526004016111c590612bb7565b60405180910390fd5b5f54421115611212576040517f08c379a000000000000000000000000000000000000000000000000000000000815260040161120990612c1f565b60405180910390fd5b600c5f3373ffffffffffffffffffffffffffffffffffffffff1673ffffffffffffffffffffffffffffffffffffffff1681526020019081526020015f205f9054906101000a900460ff161561129c576040517f08c379a000000000000000000000000000000000000000000000000000000000815260040161129390612c87565b60405180910390fd5b6001600c5f3373ffffffffffffffffffffffffffffffffffffffff1673ffffffffffffffffffffffffffffffffffffffff1681526020019081526020015f205f6101000a81548160ff021916908315150217905550600a33908060018154018082558091505060019003905f5260205f20015f9091909190916101000a81548173ffffffffffffffffffffffffffffffffffffffff021916908373ffffffffffffffffffffffffffffffffffffffff16021790555034600b5f3373ffffffffffffffffffffffffffffffffffffffff1673ffffffffffffffffffffffffffffffffffffffff1681526020019081526020015f205f82825461139d9190612ca5565b92505081905550565b5f805f60608060605f805f6113bc600254611bd3565b9050600a805490506001545f54836006600760085f9054906101000a900473ffffffffffffffffffffffffffffffffffffffff1660035f9054906101000a900460ff1683805461140b90612809565b80601f016020809104026020016040519081016040528092919081815260200182805461143790612809565b80156114825780601f1061145957610100808354040283529160200191611482565b820191905f5260205f20905b81548152906001019060200180831161146557829003601f168201915b5050505050935082805461149590612809565b80601f01602080910402602001604051908101604052809291908181526020018280546114c190612809565b801561150c5780601f106114e35761010080835404028352916020019161150c565b820191905f5260205f20905b8154815290600101906020018083116114ef57829003601f168201915b5050505050925098509850985098509850985098509850509091929394959697565b6007805461153b90612809565b80601f016020809104026020016040519081016040528092919081815260200182805461156790612809565b80156115b25780601f10611589576101008083540402835291602001916115b2565b820191905f5260205f20905b81548152906001019060200180831161159557829003601f168201915b505050505081565b600981815481106115c9575f80fd5b905f5260205f2090600502015f91509050805f0154908060010180546115ee90612809565b80601f016020809104026020016040519081016040528092919081815260200182805461161a90612809565b80156116655780601f1061163c57610100808354040283529160200191611665565b820191905f5260205f20905b81548152906001019060200180831161164857829003601f168201915b50505050509080600201805461167a90612809565b80601f01602080910402602001604051908101604052809291908181526020018280546116a690612809565b80156116f15780601f106116c8576101008083540402835291602001916116f1565b820191905f5260205f20905b8154815290600101906020018083116116d457829003601f168201915b505050505090806003015f9054906101000a900473ffffffffffffffffffffffffffffffffffffffff169080600401805461172b90612809565b80601f016020809104026020016040519081016040528092919081815260200182805461175790612809565b80156117a25780601f10611779576101008083540402835291602001916117a2565b820191905f5260205f20905b81548152906001019060200180831161178557829003601f168201915b5050505050905085565b60035f9054906101000a900460ff1681565b60055f9054906101000a900473ffffffffffffffffffffffffffffffffffffffff1681565b60085f9054906101000a900473ffffffffffffffffffffffffffffffffffffffff1681565b5f600c5f8373ffffffffffffffffffffffffffffffffffffffff1673ffffffffffffffffffffffffffffffffffffffff1681526020019081526020015f205f9054906101000a900460ff169050919050565b60025481565b60045481565b600c602052805f5260405f205f915054906101000a900460ff1681565b5f5481565b60015481565b600154600a80549050106118d7576040517f08c379a00000000000000000000000000000000000000000000000000000000081526004016118ce90612b4f565b60405180910390fd5b60035f9054906101000a900460ff1615611926576040517f08c379a000000000000000000000000000000000000000000000000000000000815260040161191d90612d48565b60405180910390fd5b5f5442111561196a576040517f08c379a000000000000000000000000000000000000000000000000000000000815260040161196190612c1f565b60405180910390fd5b60096040518060a001604052808681526020018581526020018481526020013373ffffffffffffffffffffffffffffffffffffffff16815260200183815250908060018154018082558091505060019003905f5260205f2090600502015f909190919091505f820151815f015560208201518160010190816119ec9190612f03565b506040820151816002019081611a029190612f03565b506060820151816003015f6101000a81548173ffffffffffffffffffffffffffffffffffffffff021916908373ffffffffffffffffffffffffffffffffffffffff1602179055506080820151816004019081611a5e9190612f03565b505050600c5f3373ffffffffffffffffffffffffffffffffffffffff1673ffffffffffffffffffffffffffffffffffffffff1681526020019081526020015f205f9054906101000a900460ff16611b65576001600c5f3373ffffffffffffffffffffffffffffffffffffffff1673ffffffffffffffffffffffffffffffffffffffff1681526020019081526020015f205f6101000a81548160ff021916908315150217905550600a33908060018154018082558091505060019003905f5260205f20015f9091909190916101000a81548173ffffffffffffffffffffffffffffffffffffffff021916908373ffffffffffffffffffffffffffffffffffffffff1602179055505b34600b5f3373ffffffffffffffffffffffffffffffffffffffff1673ffffffffffffffffffffffffffffffffffffffff1681526020019081526020015f205f828254611bb19190612ca5565b9250508190555050505050565b600b602052805f5260405f205f915090505481565b60605f670de0b6b3a764000083611bea9190612a47565b90505f670de0b6b3a764000084611c019190612fd2565b90505f66038d7ea4c6800082611c179190612a47565b9050611c2283611c55565b611c2b82611dae565b604051602001611c3c9291906130d0565b6040516020818303038152906040529350505050919050565b60605f8203611c9b576040518060400160405280600181526020017f30000000000000000000000000000000000000000000000000000000000000008152509050611da9565b5f8290505f5b5f8214611cca578080611cb390612795565b915050600a82611cc39190612a47565b9150611ca1565b5f8167ffffffffffffffff811115611ce557611ce4612313565b5b6040519080825280601f01601f191660200182016040528015611d175781602001600182028036833780820191505090505b5090505b5f8514611da257600182611d2f9190612735565b9150600a85611d3e9190612fd2565b6030611d4a9190612ca5565b60f81b818381518110611d6057611d5f6126db565b5b60200101907effffffffffffffffffffffffffffffffffffffffffffffffffffffffffffff191690815f1a905350600a85611d9b9190612a47565b9450611d1b565b8093505050505b919050565b6060600a821015611de857611dc282611c55565b604051602001611dd29190613153565b6040516020818303038152906040529050611e2c565b6064821015611e2057611dfa82611c55565b604051602001611e0a91906131be565b6040516020818303038152906040529050611e2c565b611e2982611c55565b90505b919050565b5f819050919050565b611e4381611e31565b82525050565b5f602082019050611e5c5f830184611e3a565b92915050565b5f604051905090565b5f80fd5b5f80fd5b611e7c81611e31565b8114611e86575f80fd5b50565b5f81359050611e9781611e73565b92915050565b5f60208284031215611eb257611eb1611e6b565b5b5f611ebf84828501611e89565b91505092915050565b5f73ffffffffffffffffffffffffffffffffffffffff82169050919050565b5f611ef182611ec8565b9050919050565b611f0181611ee7565b82525050565b5f602082019050611f1a5f830184611ef8565b92915050565b5f81519050919050565b5f82825260208201905092915050565b5f819050602082019050919050565b611f5281611e31565b82525050565b5f81519050919050565b5f82825260208201905092915050565b5f5b83811015611f8f578082015181840152602081019050611f74565b5f8484015250505050565b5f601f19601f8301169050919050565b5f611fb482611f58565b611fbe8185611f62565b9350611fce818560208601611f72565b611fd781611f9a565b840191505092915050565b611feb81611ee7565b82525050565b5f60a083015f8301516120065f860182611f49565b506020830151848203602086015261201e8282611faa565b915050604083015184820360408601526120388282611faa565b915050606083015161204d6060860182611fe2565b50608083015184820360808601526120658282611faa565b9150508091505092915050565b5f61207d8383611ff1565b905092915050565b5f602082019050919050565b5f61209b82611f20565b6120a58185611f2a565b9350836020820285016120b785611f3a565b805f5b858110156120f257848403895281516120d38582612072565b94506120de83612085565b925060208a019950506001810190506120ba565b50829750879550505050505092915050565b5f6020820190508181035f83015261211c8184612091565b905092915050565b5f82825260208201905092915050565b5f61213e82611f58565b6121488185612124565b9350612158818560208601611f72565b61216181611f9a565b840191505092915050565b5f6020820190508181035f8301526121848184612134565b905092915050565b5f8115159050919050565b6121a08161218c565b82525050565b5f610100820190506121ba5f83018b611e3a565b6121c7602083018a611e3a565b6121d46040830189611e3a565b81810360608301526121e68188612134565b905081810360808301526121fa8187612134565b905081810360a083015261220e8186612134565b905061221d60c0830185611ef8565b61222a60e0830184612197565b9998505050505050505050565b5f60a08201905061224a5f830188611e3a565b818103602083015261225c8187612134565b905081810360408301526122708186612134565b905061227f6060830185611ef8565b81810360808301526122918184612134565b90509695505050505050565b5f6020820190506122b05f830184612197565b92915050565b6122bf81611ee7565b81146122c9575f80fd5b50565b5f813590506122da816122b6565b92915050565b5f602082840312156122f5576122f4611e6b565b5b5f612302848285016122cc565b91505092915050565b5f80fd5b5f80fd5b7f4e487b71000000000000000000000000000000000000000000000000000000005f52604160045260245ffd5b61234982611f9a565b810181811067ffffffffffffffff8211171561236857612367612313565b5b80604052505050565b5f61237a611e62565b90506123868282612340565b919050565b5f67ffffffffffffffff8211156123a5576123a4612313565b5b6123ae82611f9a565b9050602081019050919050565b828183375f83830152505050565b5f6123db6123d68461238b565b612371565b9050828152602081018484840111156123f7576123f661230f565b5b6124028482856123bb565b509392505050565b5f82601f83011261241e5761241d61230b565b5b813561242e8482602086016123c9565b91505092915050565b5f805f806080858703121561244f5761244e611e6b565b5b5f61245c87828801611e89565b945050602085013567ffffffffffffffff81111561247d5761247c611e6f565b5b6124898782880161240a565b935050604085013567ffffffffffffffff8111156124aa576124a9611e6f565b5b6124b68782880161240a565b925050606085013567ffffffffffffffff8111156124d7576124d6611e6f565b5b6124e38782880161240a565b91505092959194509250565b7f5769746864726177616c732061726520636c6f73656420616674657220656e645f8201527f4461746500000000000000000000000000000000000000000000000000000000602082015250565b5f612549602483612124565b9150612554826124ef565b604082019050919050565b5f6020820190508181035f8301526125768161253d565b9050919050565b7f43616e6e6f742077697468647261772061667465722066696e616c697a6174695f8201527f6f6e000000000000000000000000000000000000000000000000000000000000602082015250565b5f6125d7602283612124565b91506125e28261257d565b604082019050919050565b5f6020820190508181035f830152612604816125cb565b9050919050565b7f596f7520617265206e6f742061207061727469636970616e74000000000000005f82015250565b5f61263f601983612124565b915061264a8261260b565b602082019050919050565b5f6020820190508181035f83015261266c81612633565b9050919050565b7f4e6f2062616c616e636520746f207769746864726177000000000000000000005f82015250565b5f6126a7601683612124565b91506126b282612673565b602082019050919050565b5f6020820190508181035f8301526126d48161269b565b9050919050565b7f4e487b71000000000000000000000000000000000000000000000000000000005f52603260045260245ffd5b7f4e487b71000000000000000000000000000000000000000000000000000000005f52601160045260245ffd5b5f61273f82611e31565b915061274a83611e31565b925082820390508181111561276257612761612708565b5b92915050565b7f4e487b71000000000000000000000000000000000000000000000000000000005f52603160045260245ffd5b5f61279f82611e31565b91507fffffffffffffffffffffffffffffffffffffffffffffffffffffffffffffffff82036127d1576127d0612708565b5b600182019050919050565b7f4e487b71000000000000000000000000000000000000000000000000000000005f52602260045260245ffd5b5f600282049050600182168061282057607f821691505b602082108103612833576128326127dc565b5b50919050565b7f4f6e6c79206f776e65722063616e2066696e616c697a650000000000000000005f82015250565b5f61286d601783612124565b915061287882612839565b602082019050919050565b5f6020820190508181035f83015261289a81612861565b9050919050565b7f416c72656164792066696e616c697a65640000000000000000000000000000005f82015250565b5f6128d5601183612124565b91506128e0826128a1565b602082019050919050565b5f6020820190508181035f830152612902816128c9565b9050919050565b7f4e6f206f666665727320617661696c61626c65000000000000000000000000005f82015250565b5f61293d601383612124565b915061294882612909565b602082019050919050565b5f6020820190508181035f83015261296a81612931565b9050919050565b7f4e6f207061727469636970616e747300000000000000000000000000000000005f82015250565b5f6129a5600f83612124565b91506129b082612971565b602082019050919050565b5f6020820190508181035f8301526129d281612999565b9050919050565b5f6129e382611e31565b91506129ee83611e31565b92508282026129fc81611e31565b91508282048414831517612a1357612a12612708565b5b5092915050565b7f4e487b71000000000000000000000000000000000000000000000000000000005f52601260045260245ffd5b5f612a5182611e31565b9150612a5c83611e31565b925082612a6c57612a6b612a1a565b5b828204905092915050565b7f4d7573742073656e642065786163742063616d706169676e20707269636500005f82015250565b5f612aab601e83612124565b9150612ab682612a77565b602082019050919050565b5f6020820190508181035f830152612ad881612a9f565b9050919050565b7f4d6178696d756d207061727469636970616e74206c696d6974207265616368655f8201527f6400000000000000000000000000000000000000000000000000000000000000602082015250565b5f612b39602183612124565b9150612b4482612adf565b604082019050919050565b5f6020820190508181035f830152612b6681612b2d565b9050919050565b7f43616d706169676e2068617320656e64656400000000000000000000000000005f82015250565b5f612ba1601283612124565b9150612bac82612b6d565b602082019050919050565b5f6020820190508181035f830152612bce81612b95565b9050919050565b7f43616d706169676e2068617320657870697265640000000000000000000000005f82015250565b5f612c09601483612124565b9150612c1482612bd5565b602082019050919050565b5f6020820190508181035f830152612c3681612bfd565b9050919050565b7f596f75206861766520616c7265616479207061727469636970617465640000005f82015250565b5f612c71601d83612124565b9150612c7c82612c3d565b602082019050919050565b5f6020820190508181035f830152612c9e81612c65565b9050919050565b5f612caf82611e31565b9150612cba83611e31565b9250828201905080821115612cd257612cd1612708565b5b92915050565b7f4f66666572207375626d697373696f6e20706572696f642068617320656e64655f8201527f6400000000000000000000000000000000000000000000000000000000000000602082015250565b5f612d32602183612124565b9150612d3d82612cd8565b604082019050919050565b5f6020820190508181035f830152612d5f81612d26565b9050919050565b5f819050815f5260205f209050919050565b5f6020601f8301049050919050565b5f82821b905092915050565b5f60088302612dc27fffffffffffffffffffffffffffffffffffffffffffffffffffffffffffffffff82612d87565b612dcc8683612d87565b95508019841693508086168417925050509392505050565b5f819050919050565b5f612e07612e02612dfd84611e31565b612de4565b611e31565b9050919050565b5f819050919050565b612e2083612ded565b612e34612e2c82612e0e565b848454612d93565b825550505050565b5f90565b612e48612e3c565b612e53818484612e17565b505050565b5b81811015612e7657612e6b5f82612e40565b600181019050612e59565b5050565b601f821115612ebb57612e8c81612d66565b612e9584612d78565b81016020851015612ea4578190505b612eb8612eb085612d78565b830182612e58565b50505b505050565b5f82821c905092915050565b5f612edb5f1984600802612ec0565b1980831691505092915050565b5f612ef38383612ecc565b9150826002028217905092915050565b612f0c82611f58565b67ffffffffffffffff811115612f2557612f24612313565b5b612f2f8254612809565b612f3a828285612e7a565b5f60209050601f831160018114612f6b575f8415612f59578287015190505b612f638582612ee8565b865550612fca565b601f198416612f7986612d66565b5f5b82811015612fa057848901518255600182019150602085019450602081019050612f7b565b86831015612fbd5784890151612fb9601f891682612ecc565b8355505b6001600288020188555050505b505050505050565b5f612fdc82611e31565b9150612fe783611e31565b925082612ff757612ff6612a1a565b5b828206905092915050565b5f81905092915050565b5f61301682611f58565b6130208185613002565b9350613030818560208601611f72565b80840191505092915050565b7f2e000000000000000000000000000000000000000000000000000000000000005f82015250565b5f613070600183613002565b915061307b8261303c565b600182019050919050565b7f20455448000000000000000000000000000000000000000000000000000000005f82015250565b5f6130ba600483613002565b91506130c582613086565b600482019050919050565b5f6130db828561300c565b91506130e682613064565b91506130f2828461300c565b91506130fd826130ae565b91508190509392505050565b7f30300000000000000000000000000000000000000000000000000000000000005f82015250565b5f61313d600283613002565b915061314882613109565b600282019050919050565b5f61315d82613131565b9150613169828461300c565b915081905092915050565b7f30000000000000000000000000000000000000000000000000000000000000005f82015250565b5f6131a8600183613002565b91506131b382613174565b600182019050919050565b5f6131c88261319c565b91506131d4828461300c565b91508190509291505056fea26469706673582212207006864b70de9b4798eada7431e2cf2d60af68f1618e409654369a926f22431364736f6c63430008140033",
  "linkReferences": {},
  "deployedLinkReferences": {},
  "immutableReferences": {},
  "inputSourceName": "project/contracts/BuyItem.sol",
  "buildInfoId": "solc-0_8_20-592efddfdabb914880061969f5d67ca0d85247da"
}