{
  "_format": "hh3-artifact-1",
  "contractName": "BuyItem",
  "sourceName": "contracts/BuyItem.sol",
  "abi": [
    {
      "inputs": [
        {
          "internalType": "uint256",
          "name": "_maxParticipantCount",
          "type": "uint256"
        },
        {
          "internalType": "uint256",
          "name": "_price",
          "type": "uint256"
        },
        {
          "internalType": "string",
          "name": "_title",
          "type": "string"
        },
        {
          "internalType": "string",
          "name": "_description",
          "type": "string"
        }
      ],
      "stateMutability": "payable",
      "type": "constructor"
    },
    {
      "inputs": [
        {
          "internalType": "address",
          "name": "",
          "type": "address"
        }
      ],
      "name": "deposits",
      "outputs": [
        {
          "internalType": "uint256",
          "name": "",
          "type": "uint256"
        }
      ],
      "stateMutability": "view",
      "type": "function"
    },
    {
      "inputs": [],
      "name": "description",
      "outputs": [
        {
          "internalType": "string",
          "name": "",
          "type": "string"
        }
      ],
      "stateMutability": "view",
      "type": "function"
    },
    {
      "inputs": [],
      "name": "endDate",
      "outputs": [
        {
          "internalType": "uint256",
          "name": "",
          "type": "uint256"
        }
      ],
      "stateMutability": "view",
      "type": "function"
    },
    {
      "inputs": [],
      "name": "finalPrice",
      "outputs": [
        {
          "internalType": "uint256",
          "name": "",
          "type": "uint256"
        }
      ],
      "stateMutability": "view",
      "type": "function"
    },
    {
      "inputs": [],
      "name": "finalize",
      "outputs": [],
      "stateMutability": "nonpayable",
      "type": "function"
    },
    {
      "inputs": [],
      "name": "getBalance",
      "outputs": [
        {
          "internalType": "uint256",
          "name": "",
          "type": "uint256"
        }
      ],
      "stateMutability": "view",
      "type": "function"
    },
    {
      "inputs": [],
      "name": "getOffers",
      "outputs": [
        {
          "components": [
            {
              "internalType": "uint256",
              "name": "price",
              "type": "uint256"
            },
            {
              "internalType": "string",
              "name": "productName",
              "type": "string"
            },
            {
              "internalType": "string",
              "name": "productLink",
              "type": "string"
            },
            {
              "internalType": "address",
              "name": "walletAddress",
              "type": "address"
            }
          ],
          "internalType": "struct BuyItem.Offer[]",
          "name": "",
          "type": "tuple[]"
        }
      ],
      "stateMutability": "view",
      "type": "function"
    },
    {
      "inputs": [],
      "name": "getOffersCount",
      "outputs": [
        {
          "internalType": "uint256",
          "name": "",
          "type": "uint256"
        }
      ],
      "stateMutability": "view",
      "type": "function"
    },
    {
      "inputs": [],
      "name": "getParticipantInfo",
      "outputs": [
        {
          "internalType": "uint256",
          "name": "currentParticipants",
          "type": "uint256"
        },
        {
          "internalType": "uint256",
          "name": "maxParticipants",
          "type": "uint256"
        },
        {
          "internalType": "uint256",
          "name": "contractEndDate",
          "type": "uint256"
        },
        {
          "internalType": "string",
          "name": "priceETH",
          "type": "string"
        },
        {
          "internalType": "string",
          "name": "contractTitle",
          "type": "string"
        },
        {
          "internalType": "string",
          "name": "contractDescription",
          "type": "string"
        },
        {
          "internalType": "address",
          "name": "contractSenderCompany",
          "type": "address"
        },
        {
          "internalType": "bool",
          "name": "contractIsFinalized",
          "type": "bool"
        }
      ],
      "stateMutability": "view",
      "type": "function"
    },
    {
      "inputs": [
        {
          "internalType": "address",
          "name": "",
          "type": "address"
        }
      ],
      "name": "hasParticipated",
      "outputs": [
        {
          "internalType": "bool",
          "name": "",
          "type": "bool"
        }
      ],
      "stateMutability": "view",
      "type": "function"
    },
    {
      "inputs": [],
      "name": "isFinalized",
      "outputs": [
        {
          "internalType": "bool",
          "name": "",
          "type": "bool"
        }
      ],
      "stateMutability": "view",
      "type": "function"
    },
    {
      "inputs": [
        {
          "internalType": "address",
          "name": "_address",
          "type": "address"
        }
      ],
      "name": "isParticipant",
      "outputs": [
        {
          "internalType": "bool",
          "name": "",
          "type": "bool"
        }
      ],
      "stateMutability": "view",
      "type": "function"
    },
    {
      "inputs": [],
      "name": "maxParticipantCount",
      "outputs": [
        {
          "internalType": "uint256",
          "name": "",
          "type": "uint256"
        }
      ],
      "stateMutability": "view",
      "type": "function"
    },
    {
      "inputs": [
        {
          "internalType": "uint256",
          "name": "",
          "type": "uint256"
        }
      ],
      "name": "offers",
      "outputs": [
        {
          "internalType": "uint256",
          "name": "price",
          "type": "uint256"
        },
        {
          "internalType": "string",
          "name": "productName",
          "type": "string"
        },
        {
          "internalType": "string",
          "name": "productLink",
          "type": "string"
        },
        {
          "internalType": "address",
          "name": "walletAddress",
          "type": "address"
        }
      ],
      "stateMutability": "view",
      "type": "function"
    },
    {
      "inputs": [],
      "name": "owner",
      "outputs": [
        {
          "internalType": "address",
          "name": "",
          "type": "address"
        }
      ],
      "stateMutability": "view",
      "type": "function"
    },
    {
      "inputs": [
        {
          "internalType": "uint256",
          "name": "",
          "type": "uint256"
        }
      ],
      "name": "participants",
      "outputs": [
        {
          "internalType": "address",
          "name": "",
          "type": "address"
        }
      ],
      "stateMutability": "view",
      "type": "function"
    },
    {
      "inputs": [],
      "name": "price",
      "outputs": [
        {
          "internalType": "uint256",
          "name": "",
          "type": "uint256"
        }
      ],
      "stateMutability": "view",
      "type": "function"
    },
    {
      "inputs": [],
      "name": "purchase",
      "outputs": [],
      "stateMutability": "payable",
      "type": "function"
    },
    {
      "inputs": [],
      "name": "senderCompany",
      "outputs": [
        {
          "internalType": "address",
          "name": "",
          "type": "address"
        }
      ],
      "stateMutability": "view",
      "type": "function"
    },
    {
      "inputs": [
        {
          "internalType": "uint256",
          "name": "_price",
          "type": "uint256"
        },
        {
          "internalType": "string",
          "name": "_productName",
          "type": "string"
        },
        {
          "internalType": "string",
          "name": "_productLink",
          "type": "string"
        }
      ],
      "name": "submitOffer",
      "outputs": [],
      "stateMutability": "payable",
      "type": "function"
    },
    {
      "inputs": [],
      "name": "title",
      "outputs": [
        {
          "internalType": "string",
          "name": "",
          "type": "string"
        }
      ],
      "stateMutability": "view",
      "type": "function"
    },
    {
      "inputs": [],
      "name": "withdraw",
      "outputs": [],
      "stateMutability": "nonpayable",
      "type": "function"
    }
  ],
  "bytecode": "0x608060405260405162003aee38038062003aee8339818101604052810190620000299190620004be565b5f84116200006e576040517f08c379a00000000000000000000000000000000000000000000000000000000081526004016200006590620005ef565b60405180910390fd5b5f8311620000b3576040517f08c379a0000000000000000000000000000000000000000000000000000000008152600401620000aa906200065d565b60405180910390fd5b823414620000f8576040517f08c379a0000000000000000000000000000000000000000000000000000000008152600401620000ef90620006cb565b60405180910390fd5b62093a804262000109919062000718565b5f81905550836001819055508260028190555081600690816200012d919062000980565b5080600790816200013f919062000980565b505f60035f6101000a81548160ff02191690831515021790555073eb4df82103ec493614c15f96ccd2be93c69cf09960055f6101000a81548173ffffffffffffffffffffffffffffffffffffffff021916908373ffffffffffffffffffffffffffffffffffffffff1602179055505f60085f6101000a81548173ffffffffffffffffffffffffffffffffffffffff021916908373ffffffffffffffffffffffffffffffffffffffff1602179055506001600c5f3373ffffffffffffffffffffffffffffffffffffffff1673ffffffffffffffffffffffffffffffffffffffff1681526020019081526020015f205f6101000a81548160ff021916908315150217905550600a33908060018154018082558091505060019003905f5260205f20015f9091909190916101000a81548173ffffffffffffffffffffffffffffffffffffffff021916908373ffffffffffffffffffffffffffffffffffffffff16021790555034600b5f3373ffffffffffffffffffffffffffffffffffffffff1673ffffffffffffffffffffffffffffffffffffffff1681526020019081526020015f205f828254620002f0919062000718565b925050819055505050505062000a64565b5f604051905090565b5f80fd5b5f80fd5b5f819050919050565b620003268162000312565b811462000331575f80fd5b50565b5f8151905062000344816200031b565b92915050565b5f80fd5b5f80fd5b5f601f19601f8301169050919050565b7f4e487b71000000000000000000000000000000000000000000000000000000005f52604160045260245ffd5b6200039a8262000352565b810181811067ffffffffffffffff82111715620003bc57620003bb62000362565b5b80604052505050565b5f620003d062000301565b9050620003de82826200038f565b919050565b5f67ffffffffffffffff8211156200040057620003ff62000362565b5b6200040b8262000352565b9050602081019050919050565b5f5b83811015620004375780820151818401526020810190506200041a565b5f8484015250505050565b5f620004586200045284620003e3565b620003c5565b9050828152602081018484840111156200047757620004766200034e565b5b6200048484828562000418565b509392505050565b5f82601f830112620004a357620004a26200034a565b5b8151620004b584826020860162000442565b91505092915050565b5f805f8060808587031215620004d957620004d86200030a565b5b5f620004e88782880162000334565b9450506020620004fb8782880162000334565b935050604085015167ffffffffffffffff8111156200051f576200051e6200030e565b5b6200052d878288016200048c565b925050606085015167ffffffffffffffff8111156200055157620005506200030e565b5b6200055f878288016200048c565b91505092959194509250565b5f82825260208201905092915050565b7f4d6178207061727469636970616e7420636f756e74206d7573742062652067725f8201527f6561746572207468616e20300000000000000000000000000000000000000000602082015250565b5f620005d7602c836200056b565b9150620005e4826200057b565b604082019050919050565b5f6020820190508181035f8301526200060881620005c9565b9050919050565b7f5072696365206d7573742062652067726561746572207468616e2030000000005f82015250565b5f62000645601c836200056b565b915062000652826200060f565b602082019050919050565b5f6020820190508181035f830152620006768162000637565b9050919050565b7f4d7573742073656e6420657861637420707269636520616d6f756e74000000005f82015250565b5f620006b3601c836200056b565b9150620006c0826200067d565b602082019050919050565b5f6020820190508181035f830152620006e481620006a5565b9050919050565b7f4e487b71000000000000000000000000000000000000000000000000000000005f52601160045260245ffd5b5f620007248262000312565b9150620007318362000312565b92508282019050808211156200074c576200074b620006eb565b5b92915050565b5f81519050919050565b7f4e487b71000000000000000000000000000000000000000000000000000000005f52602260045260245ffd5b5f6002820490506001821680620007a157607f821691505b602082108103620007b757620007b66200075c565b5b50919050565b5f819050815f5260205f209050919050565b5f6020601f8301049050919050565b5f82821b905092915050565b5f600883026200081b7fffffffffffffffffffffffffffffffffffffffffffffffffffffffffffffffff82620007de565b620008278683620007de565b95508019841693508086168417925050509392505050565b5f819050919050565b5f62000868620008626200085c8462000312565b6200083f565b62000312565b9050919050565b5f819050919050565b620008838362000848565b6200089b62000892826200086f565b848454620007ea565b825550505050565b5f90565b620008b1620008a3565b620008be81848462000878565b505050565b5b81811015620008e557620008d95f82620008a7565b600181019050620008c4565b5050565b601f8211156200093457620008fe81620007bd565b6200090984620007cf565b8101602085101562000919578190505b620009316200092885620007cf565b830182620008c3565b50505b505050565b5f82821c905092915050565b5f620009565f198460080262000939565b1980831691505092915050565b5f62000970838362000945565b9150826002028217905092915050565b6200098b8262000752565b67ffffffffffffffff811115620009a757620009a662000362565b5b620009b3825462000789565b620009c0828285620008e9565b5f60209050601f831160018114620009f6575f8415620009e1578287015190505b620009ed858262000963565b86555062000a5c565b601f19841662000a0686620007bd565b5f5b8281101562000a2f5784890151825560018201915060208501945060208101905062000a08565b8683101562000a4f578489015162000a4b601f89168262000945565b8355505b6001600288020188555050505b505050505050565b61307c8062000a725f395ff3fe608060405260043610610134575f3560e01c80638d4e4083116100aa578063a035b1fe1161006e578063a035b1fe146103c2578063a6b513ee146103ec578063b4fb3ee314610416578063c24a0f8b14610452578063c462a4081461047c578063fc7e286d146104a657610134565b80638d4e4083146102ec5780638da5cb5b14610316578063903dd9ed14610340578063929066f51461036a5780639bbd24c8146103a657610134565b80634a79d50c116100fc5780634a79d50c146102085780634bb278f31461023257806364edfbf0146102485780636bd45552146102525780637284e416146102835780638a72ea6a146102ad57610134565b806312065fe0146101385780632f2e7b751461016257806335c1d3491461018c5780633ccfd60b146101c85780633ee992ee146101de575b5f80fd5b348015610143575f80fd5b5061014c6104e2565b6040516101599190611d0f565b60405180910390f35b34801561016d575f80fd5b506101766104e9565b6040516101839190611d0f565b60405180910390f35b348015610197575f80fd5b506101b260048036038101906101ad9190611d63565b6104f5565b6040516101bf9190611dcd565b60405180910390f35b3480156101d3575f80fd5b506101dc610530565b005b3480156101e9575f80fd5b506101f261092c565b6040516101ff9190611fb0565b60405180910390f35b348015610213575f80fd5b5061021c610b06565b6040516102299190612018565b60405180910390f35b34801561023d575f80fd5b50610246610b92565b005b610250611061565b005b34801561025d575f80fd5b50610266611315565b60405161027a989796959493929190612052565b60405180910390f35b34801561028e575f80fd5b5061029761149d565b6040516102a49190612018565b60405180910390f35b3480156102b8575f80fd5b506102d360048036038101906102ce9190611d63565b611529565b6040516102e394939291906120e3565b60405180910390f35b3480156102f7575f80fd5b5061030061168f565b60405161030d9190612134565b60405180910390f35b348015610321575f80fd5b5061032a6116a1565b6040516103379190611dcd565b60405180910390f35b34801561034b575f80fd5b506103546116c6565b6040516103619190611dcd565b60405180910390f35b348015610375575f80fd5b50610390600480360381019061038b9190612177565b6116eb565b60405161039d9190612134565b60405180910390f35b6103c060048036038101906103bb91906122ce565b61173d565b005b3480156103cd575f80fd5b506103d6611a50565b6040516103e39190611d0f565b60405180910390f35b3480156103f7575f80fd5b50610400611a56565b60405161040d9190611d0f565b60405180910390f35b348015610421575f80fd5b5061043c60048036038101906104379190612177565b611a5c565b6040516104499190612134565b60405180910390f35b34801561045d575f80fd5b50610466611a79565b6040516104739190611d0f565b60405180910390f35b348015610487575f80fd5b50610490611a7e565b60405161049d9190611d0f565b60405180910390f35b3480156104b1575f80fd5b506104cc60048036038101906104c79190612177565b611a84565b6040516104d99190611d0f565b60405180910390f35b5f47905090565b5f600980549050905090565b600a8181548110610504575f80fd5b905f5260205f20015f915054906101000a900473ffffffffffffffffffffffffffffffffffffffff1681565b5f54421115610574576040517f08c379a000000000000000000000000000000000000000000000000000000000815260040161056b906123c6565b60405180910390fd5b60035f9054906101000a900460ff16156105c3576040517f08c379a00000000000000000000000000000000000000000000000000000000081526004016105ba90612454565b60405180910390fd5b600c5f3373ffffffffffffffffffffffffffffffffffffffff1673ffffffffffffffffffffffffffffffffffffffff1681526020019081526020015f205f9054906101000a900460ff1661064c576040517f08c379a0000000000000000000000000000000000000000000000000000000008152600401610643906124bc565b60405180910390fd5b5f600b5f3373ffffffffffffffffffffffffffffffffffffffff1673ffffffffffffffffffffffffffffffffffffffff1681526020019081526020015f205490505f81116106cf576040517f08c379a00000000000000000000000000000000000000000000000000000000081526004016106c690612524565b60405180910390fd5b5f600c5f3373ffffffffffffffffffffffffffffffffffffffff1673ffffffffffffffffffffffffffffffffffffffff1681526020019081526020015f205f6101000a81548160ff0219169083151502179055505f5b600a805490508110156108a2573373ffffffffffffffffffffffffffffffffffffffff16600a828154811061075d5761075c612542565b5b905f5260205f20015f9054906101000a900473ffffffffffffffffffffffffffffffffffffffff1673ffffffffffffffffffffffffffffffffffffffff160361088f57600a6001600a805490506107b4919061259c565b815481106107c5576107c4612542565b5b905f5260205f20015f9054906101000a900473ffffffffffffffffffffffffffffffffffffffff16600a828154811061080157610800612542565b5b905f5260205f20015f6101000a81548173ffffffffffffffffffffffffffffffffffffffff021916908373ffffffffffffffffffffffffffffffffffffffff160217905550600a805480610858576108576125cf565b5b600190038181905f5260205f20015f6101000a81549073ffffffffffffffffffffffffffffffffffffffff021916905590556108a2565b808061089a906125fc565b915050610725565b505f600b5f3373ffffffffffffffffffffffffffffffffffffffff1673ffffffffffffffffffffffffffffffffffffffff1681526020019081526020015f20819055503373ffffffffffffffffffffffffffffffffffffffff166108fc8290811502906040515f60405180830381858888f19350505050158015610928573d5f803e3d5ffd5b5050565b60606009805480602002602001604051908101604052809291908181526020015f905b82821015610afd578382905f5260205f2090600402016040518060800160405290815f820154815260200160018201805461098990612670565b80601f01602080910402602001604051908101604052809291908181526020018280546109b590612670565b8015610a005780601f106109d757610100808354040283529160200191610a00565b820191905f5260205f20905b8154815290600101906020018083116109e357829003601f168201915b50505050508152602001600282018054610a1990612670565b80601f0160208091040260200160405190810160405280929190818152602001828054610a4590612670565b8015610a905780601f10610a6757610100808354040283529160200191610a90565b820191905f5260205f20905b815481529060010190602001808311610a7357829003601f168201915b50505050508152602001600382015f9054906101000a900473ffffffffffffffffffffffffffffffffffffffff1673ffffffffffffffffffffffffffffffffffffffff1673ffffffffffffffffffffffffffffffffffffffff16815250508152602001906001019061094f565b50505050905090565b60068054610b1390612670565b80601f0160208091040260200160405190810160405280929190818152602001828054610b3f90612670565b8015610b8a5780601f10610b6157610100808354040283529160200191610b8a565b820191905f5260205f20905b815481529060010190602001808311610b6d57829003601f168201915b505050505081565b60055f9054906101000a900473ffffffffffffffffffffffffffffffffffffffff1673ffffffffffffffffffffffffffffffffffffffff163373ffffffffffffffffffffffffffffffffffffffff1614610c21576040517f08c379a0000000000000000000000000000000000000000000000000000000008152600401610c18906126ea565b60405180910390fd5b60035f9054906101000a900460ff1615610c70576040517f08c379a0000000000000000000000000000000000000000000000000000000008152600401610c6790612752565b60405180910390fd5b5f60098054905011610cb7576040517f08c379a0000000000000000000000000000000000000000000000000000000008152600401610cae906127ba565b60405180910390fd5b5f600a8054905011610cfe576040517f08c379a0000000000000000000000000000000000000000000000000000000008152600401610cf590612822565b60405180910390fd5b5f60095f81548110610d1357610d12612542565b5b905f5260205f2090600402015f015490505f60095f81548110610d3957610d38612542565b5b905f5260205f2090600402016003015f9054906101000a900473ffffffffffffffffffffffffffffffffffffffff1690505f600190505b600980549050811015610e25578260098281548110610d9257610d91612542565b5b905f5260205f2090600402015f01541015610e125760098181548110610dbb57610dba612542565b5b905f5260205f2090600402015f0154925060098181548110610de057610ddf612542565b5b905f5260205f2090600402016003015f9054906101000a900473ffffffffffffffffffffffffffffffffffffffff1691505b8080610e1d906125fc565b915050610d70565b50816004819055508060085f6101000a81548173ffffffffffffffffffffffffffffffffffffffff021916908373ffffffffffffffffffffffffffffffffffffffff160217905550600160035f6101000a81548160ff0219169083151502179055505f600a80549050600454610e9b9190612840565b90505f6064600a83610ead9190612840565b610eb791906128ae565b90505f8183610ec6919061259c565b90505f600a80549050600454600254610edf919061259c565b610ee99190612840565b90505f600a8054905082610efd91906128ae565b90505f5b600a80549050811015610fae575f600a8281548110610f2357610f22612542565b5b905f5260205f20015f9054906101000a900473ffffffffffffffffffffffffffffffffffffffff1690505f831115610f9a578073ffffffffffffffffffffffffffffffffffffffff166108fc8490811502906040515f60405180830381858888f19350505050158015610f98573d5f803e3d5ffd5b505b508080610fa6906125fc565b915050610f01565b5060055f9054906101000a900473ffffffffffffffffffffffffffffffffffffffff1673ffffffffffffffffffffffffffffffffffffffff166108fc8590811502906040515f60405180830381858888f19350505050158015611013573d5f803e3d5ffd5b508573ffffffffffffffffffffffffffffffffffffffff166108fc8490811502906040515f60405180830381858888f19350505050158015611057573d5f803e3d5ffd5b5050505050505050565b60025434146110a5576040517f08c379a000000000000000000000000000000000000000000000000000000000815260040161109c90612928565b60405180910390fd5b600154600a80549050106110ee576040517f08c379a00000000000000000000000000000000000000000000000000000000081526004016110e5906129b6565b60405180910390fd5b60035f9054906101000a900460ff161561113d576040517f08c379a000000000000000000000000000000000000000000000000000000000815260040161113490612a1e565b60405180910390fd5b5f54421115611181576040517f08c379a000000000000000000000000000000000000000000000000000000000815260040161117890612a86565b60405180910390fd5b600c5f3373ffffffffffffffffffffffffffffffffffffffff1673ffffffffffffffffffffffffffffffffffffffff1681526020019081526020015f205f9054906101000a900460ff161561120b576040517f08c379a000000000000000000000000000000000000000000000000000000000815260040161120290612aee565b60405180910390fd5b6001600c5f3373ffffffffffffffffffffffffffffffffffffffff1673ffffffffffffffffffffffffffffffffffffffff1681526020019081526020015f205f6101000a81548160ff021916908315150217905550600a33908060018154018082558091505060019003905f5260205f20015f9091909190916101000a81548173ffffffffffffffffffffffffffffffffffffffff021916908373ffffffffffffffffffffffffffffffffffffffff16021790555034600b5f3373ffffffffffffffffffffffffffffffffffffffff1673ffffffffffffffffffffffffffffffffffffffff1681526020019081526020015f205f82825461130c9190612b0c565b92505081905550565b5f805f60608060605f805f61132b600254611a99565b9050600a805490506001545f54836006600760085f9054906101000a900473ffffffffffffffffffffffffffffffffffffffff1660035f9054906101000a900460ff1683805461137a90612670565b80601f01602080910402602001604051908101604052809291908181526020018280546113a690612670565b80156113f15780601f106113c8576101008083540402835291602001916113f1565b820191905f5260205f20905b8154815290600101906020018083116113d457829003601f168201915b5050505050935082805461140490612670565b80601f016020809104026020016040519081016040528092919081815260200182805461143090612670565b801561147b5780601f106114525761010080835404028352916020019161147b565b820191905f5260205f20905b81548152906001019060200180831161145e57829003601f168201915b5050505050925098509850985098509850985098509850509091929394959697565b600780546114aa90612670565b80601f01602080910402602001604051908101604052809291908181526020018280546114d690612670565b80156115215780601f106114f857610100808354040283529160200191611521565b820191905f5260205f20905b81548152906001019060200180831161150457829003601f168201915b505050505081565b60098181548110611538575f80fd5b905f5260205f2090600402015f91509050805f01549080600101805461155d90612670565b80601f016020809104026020016040519081016040528092919081815260200182805461158990612670565b80156115d45780601f106115ab576101008083540402835291602001916115d4565b820191905f5260205f20905b8154815290600101906020018083116115b757829003601f168201915b5050505050908060020180546115e990612670565b80601f016020809104026020016040519081016040528092919081815260200182805461161590612670565b80156116605780601f1061163757610100808354040283529160200191611660565b820191905f5260205f20905b81548152906001019060200180831161164357829003601f168201915b505050505090806003015f9054906101000a900473ffffffffffffffffffffffffffffffffffffffff16905084565b60035f9054906101000a900460ff1681565b60055f9054906101000a900473ffffffffffffffffffffffffffffffffffffffff1681565b60085f9054906101000a900473ffffffffffffffffffffffffffffffffffffffff1681565b5f600c5f8373ffffffffffffffffffffffffffffffffffffffff1673ffffffffffffffffffffffffffffffffffffffff1681526020019081526020015f205f9054906101000a900460ff169050919050565b600154600a8054905010611786576040517f08c379a000000000000000000000000000000000000000000000000000000000815260040161177d906129b6565b60405180910390fd5b60035f9054906101000a900460ff16156117d5576040517f08c379a00000000000000000000000000000000000000000000000000000000081526004016117cc90612baf565b60405180910390fd5b5f54421115611819576040517f08c379a000000000000000000000000000000000000000000000000000000000815260040161181090612a86565b60405180910390fd5b600960405180608001604052808581526020018481526020018381526020013373ffffffffffffffffffffffffffffffffffffffff16815250908060018154018082558091505060019003905f5260205f2090600402015f909190919091505f820151815f015560208201518160010190816118959190612d6a565b5060408201518160020190816118ab9190612d6a565b506060820151816003015f6101000a81548173ffffffffffffffffffffffffffffffffffffffff021916908373ffffffffffffffffffffffffffffffffffffffff1602179055505050600c5f3373ffffffffffffffffffffffffffffffffffffffff1673ffffffffffffffffffffffffffffffffffffffff1681526020019081526020015f205f9054906101000a900460ff166119f8576001600c5f3373ffffffffffffffffffffffffffffffffffffffff1673ffffffffffffffffffffffffffffffffffffffff1681526020019081526020015f205f6101000a81548160ff021916908315150217905550600a33908060018154018082558091505060019003905f5260205f20015f9091909190916101000a81548173ffffffffffffffffffffffffffffffffffffffff021916908373ffffffffffffffffffffffffffffffffffffffff1602179055505b34600b5f3373ffffffffffffffffffffffffffffffffffffffff1673ffffffffffffffffffffffffffffffffffffffff1681526020019081526020015f205f828254611a449190612b0c565b92505081905550505050565b60025481565b60045481565b600c602052805f5260405f205f915054906101000a900460ff1681565b5f5481565b60015481565b600b602052805f5260405f205f915090505481565b60605f670de0b6b3a764000083611ab091906128ae565b90505f670de0b6b3a764000084611ac79190612e39565b90505f66038d7ea4c6800082611add91906128ae565b9050611ae883611b1b565b611af182611c74565b604051602001611b02929190612f37565b6040516020818303038152906040529350505050919050565b60605f8203611b61576040518060400160405280600181526020017f30000000000000000000000000000000000000000000000000000000000000008152509050611c6f565b5f8290505f5b5f8214611b90578080611b79906125fc565b915050600a82611b8991906128ae565b9150611b67565b5f8167ffffffffffffffff811115611bab57611baa6121aa565b5b6040519080825280601f01601f191660200182016040528015611bdd5781602001600182028036833780820191505090505b5090505b5f8514611c6857600182611bf5919061259c565b9150600a85611c049190612e39565b6030611c109190612b0c565b60f81b818381518110611c2657611c25612542565b5b60200101907effffffffffffffffffffffffffffffffffffffffffffffffffffffffffffff191690815f1a905350600a85611c6191906128ae565b9450611be1565b8093505050505b919050565b6060600a821015611cae57611c8882611b1b565b604051602001611c989190612fba565b6040516020818303038152906040529050611cf2565b6064821015611ce657611cc082611b1b565b604051602001611cd09190613025565b6040516020818303038152906040529050611cf2565b611cef82611b1b565b90505b919050565b5f819050919050565b611d0981611cf7565b82525050565b5f602082019050611d225f830184611d00565b92915050565b5f604051905090565b5f80fd5b5f80fd5b611d4281611cf7565b8114611d4c575f80fd5b50565b5f81359050611d5d81611d39565b92915050565b5f60208284031215611d7857611d77611d31565b5b5f611d8584828501611d4f565b91505092915050565b5f73ffffffffffffffffffffffffffffffffffffffff82169050919050565b5f611db782611d8e565b9050919050565b611dc781611dad565b82525050565b5f602082019050611de05f830184611dbe565b92915050565b5f81519050919050565b5f82825260208201905092915050565b5f819050602082019050919050565b611e1881611cf7565b82525050565b5f81519050919050565b5f82825260208201905092915050565b5f5b83811015611e55578082015181840152602081019050611e3a565b5f8484015250505050565b5f601f19601f8301169050919050565b5f611e7a82611e1e565b611e848185611e28565b9350611e94818560208601611e38565b611e9d81611e60565b840191505092915050565b611eb181611dad565b82525050565b5f608083015f830151611ecc5f860182611e0f565b5060208301518482036020860152611ee48282611e70565b91505060408301518482036040860152611efe8282611e70565b9150506060830151611f136060860182611ea8565b508091505092915050565b5f611f298383611eb7565b905092915050565b5f602082019050919050565b5f611f4782611de6565b611f518185611df0565b935083602082028501611f6385611e00565b805f5b85811015611f9e5784840389528151611f7f8582611f1e565b9450611f8a83611f31565b925060208a01995050600181019050611f66565b50829750879550505050505092915050565b5f6020820190508181035f830152611fc88184611f3d565b905092915050565b5f82825260208201905092915050565b5f611fea82611e1e565b611ff48185611fd0565b9350612004818560208601611e38565b61200d81611e60565b840191505092915050565b5f6020820190508181035f8301526120308184611fe0565b905092915050565b5f8115159050919050565b61204c81612038565b82525050565b5f610100820190506120665f83018b611d00565b612073602083018a611d00565b6120806040830189611d00565b81810360608301526120928188611fe0565b905081810360808301526120a68187611fe0565b905081810360a08301526120ba8186611fe0565b90506120c960c0830185611dbe565b6120d660e0830184612043565b9998505050505050505050565b5f6080820190506120f65f830187611d00565b81810360208301526121088186611fe0565b9050818103604083015261211c8185611fe0565b905061212b6060830184611dbe565b95945050505050565b5f6020820190506121475f830184612043565b92915050565b61215681611dad565b8114612160575f80fd5b50565b5f813590506121718161214d565b92915050565b5f6020828403121561218c5761218b611d31565b5b5f61219984828501612163565b91505092915050565b5f80fd5b5f80fd5b7f4e487b71000000000000000000000000000000000000000000000000000000005f52604160045260245ffd5b6121e082611e60565b810181811067ffffffffffffffff821117156121ff576121fe6121aa565b5b80604052505050565b5f612211611d28565b905061221d82826121d7565b919050565b5f67ffffffffffffffff82111561223c5761223b6121aa565b5b61224582611e60565b9050602081019050919050565b828183375f83830152505050565b5f61227261226d84612222565b612208565b90508281526020810184848401111561228e5761228d6121a6565b5b612299848285612252565b509392505050565b5f82601f8301126122b5576122b46121a2565b5b81356122c5848260208601612260565b91505092915050565b5f805f606084860312156122e5576122e4611d31565b5b5f6122f286828701611d4f565b935050602084013567ffffffffffffffff81111561231357612312611d35565b5b61231f868287016122a1565b925050604084013567ffffffffffffffff8111156123405761233f611d35565b5b61234c868287016122a1565b9150509250925092565b7f5769746864726177616c732061726520636c6f73656420616674657220656e645f8201527f4461746500000000000000000000000000000000000000000000000000000000602082015250565b5f6123b0602483611fd0565b91506123bb82612356565b604082019050919050565b5f6020820190508181035f8301526123dd816123a4565b9050919050565b7f43616e6e6f742077697468647261772061667465722066696e616c697a6174695f8201527f6f6e000000000000000000000000000000000000000000000000000000000000602082015250565b5f61243e602283611fd0565b9150612449826123e4565b604082019050919050565b5f6020820190508181035f83015261246b81612432565b9050919050565b7f596f7520617265206e6f742061207061727469636970616e74000000000000005f82015250565b5f6124a6601983611fd0565b91506124b182612472565b602082019050919050565b5f6020820190508181035f8301526124d38161249a565b9050919050565b7f4e6f2062616c616e636520746f207769746864726177000000000000000000005f82015250565b5f61250e601683611fd0565b9150612519826124da565b602082019050919050565b5f6020820190508181035f83015261253b81612502565b9050919050565b7f4e487b71000000000000000000000000000000000000000000000000000000005f52603260045260245ffd5b7f4e487b71000000000000000000000000000000000000000000000000000000005f52601160045260245ffd5b5f6125a682611cf7565b91506125b183611cf7565b92508282039050818111156125c9576125c861256f565b5b92915050565b7f4e487b71000000000000000000000000000000000000000000000000000000005f52603160045260245ffd5b5f61260682611cf7565b91507fffffffffffffffffffffffffffffffffffffffffffffffffffffffffffffffff82036126385761263761256f565b5b600182019050919050565b7f4e487b71000000000000000000000000000000000000000000000000000000005f52602260045260245ffd5b5f600282049050600182168061268757607f821691505b60208210810361269a57612699612643565b5b50919050565b7f4f6e6c79206f776e65722063616e2066696e616c697a650000000000000000005f82015250565b5f6126d4601783611fd0565b91506126df826126a0565b602082019050919050565b5f6020820190508181035f830152612701816126c8565b9050919050565b7f416c72656164792066696e616c697a65640000000000000000000000000000005f82015250565b5f61273c601183611fd0565b915061274782612708565b602082019050919050565b5f6020820190508181035f83015261276981612730565b9050919050565b7f4e6f206f666665727320617661696c61626c65000000000000000000000000005f82015250565b5f6127a4601383611fd0565b91506127af82612770565b602082019050919050565b5f6020820190508181035f8301526127d181612798565b9050919050565b7f4e6f207061727469636970616e747300000000000000000000000000000000005f82015250565b5f61280c600f83611fd0565b9150612817826127d8565b602082019050919050565b5f6020820190508181035f83015261283981612800565b9050919050565b5f61284a82611cf7565b915061285583611cf7565b925082820261286381611cf7565b9150828204841483151761287a5761287961256f565b5b5092915050565b7f4e487b71000000000000000000000000000000000000000000000000000000005f52601260045260245ffd5b5f6128b882611cf7565b91506128c383611cf7565b9250826128d3576128d2612881565b5b828204905092915050565b7f4d7573742073656e642065786163742063616d706169676e20707269636500005f82015250565b5f612912601e83611fd0565b915061291d826128de565b602082019050919050565b5f6020820190508181035f83015261293f81612906565b9050919050565b7f4d6178696d756d207061727469636970616e74206c696d6974207265616368655f8201527f6400000000000000000000000000000000000000000000000000000000000000602082015250565b5f6129a0602183611fd0565b91506129ab82612946565b604082019050919050565b5f6020820190508181035f8301526129cd81612994565b9050919050565b7f43616d706169676e2068617320656e64656400000000000000000000000000005f82015250565b5f612a08601283611fd0565b9150612a13826129d4565b602082019050919050565b5f6020820190508181035f830152612a35816129fc565b9050919050565b7f43616d706169676e2068617320657870697265640000000000000000000000005f82015250565b5f612a70601483611fd0565b9150612a7b82612a3c565b602082019050919050565b5f6020820190508181035f830152612a9d81612a64565b9050919050565b7f596f75206861766520616c7265616479207061727469636970617465640000005f82015250565b5f612ad8601d83611fd0565b9150612ae382612aa4565b602082019050919050565b5f6020820190508181035f830152612b0581612acc565b9050919050565b5f612b1682611cf7565b9150612b2183611cf7565b9250828201905080821115612b3957612b3861256f565b5b92915050565b7f4f66666572207375626d697373696f6e20706572696f642068617320656e64655f8201527f6400000000000000000000000000000000000000000000000000000000000000602082015250565b5f612b99602183611fd0565b9150612ba482612b3f565b604082019050919050565b5f6020820190508181035f830152612bc681612b8d565b9050919050565b5f819050815f5260205f209050919050565b5f6020601f8301049050919050565b5f82821b905092915050565b5f60088302612c297fffffffffffffffffffffffffffffffffffffffffffffffffffffffffffffffff82612bee565b612c338683612bee565b95508019841693508086168417925050509392505050565b5f819050919050565b5f612c6e612c69612c6484611cf7565b612c4b565b611cf7565b9050919050565b5f819050919050565b612c8783612c54565b612c9b612c9382612c75565b848454612bfa565b825550505050565b5f90565b612caf612ca3565b612cba818484612c7e565b505050565b5b81811015612cdd57612cd25f82612ca7565b600181019050612cc0565b5050565b601f821115612d2257612cf381612bcd565b612cfc84612bdf565b81016020851015612d0b578190505b612d1f612d1785612bdf565b830182612cbf565b50505b505050565b5f82821c905092915050565b5f612d425f1984600802612d27565b1980831691505092915050565b5f612d5a8383612d33565b9150826002028217905092915050565b612d7382611e1e565b67ffffffffffffffff811115612d8c57612d8b6121aa565b5b612d968254612670565b612da1828285612ce1565b5f60209050601f831160018114612dd2575f8415612dc0578287015190505b612dca8582612d4f565b865550612e31565b601f198416612de086612bcd565b5f5b82811015612e0757848901518255600182019150602085019450602081019050612de2565b86831015612e245784890151612e20601f891682612d33565b8355505b6001600288020188555050505b505050505050565b5f612e4382611cf7565b9150612e4e83611cf7565b925082612e5e57612e5d612881565b5b828206905092915050565b5f81905092915050565b5f612e7d82611e1e565b612e878185612e69565b9350612e97818560208601611e38565b80840191505092915050565b7f2e000000000000000000000000000000000000000000000000000000000000005f82015250565b5f612ed7600183612e69565b9150612ee282612ea3565b600182019050919050565b7f20455448000000000000000000000000000000000000000000000000000000005f82015250565b5f612f21600483612e69565b9150612f2c82612eed565b600482019050919050565b5f612f428285612e73565b9150612f4d82612ecb565b9150612f598284612e73565b9150612f6482612f15565b91508190509392505050565b7f30300000000000000000000000000000000000000000000000000000000000005f82015250565b5f612fa4600283612e69565b9150612faf82612f70565b600282019050919050565b5f612fc482612f98565b9150612fd08284612e73565b915081905092915050565b7f30000000000000000000000000000000000000000000000000000000000000005f82015250565b5f61300f600183612e69565b915061301a82612fdb565b600182019050919050565b5f61302f82613003565b915061303b8284612e73565b91508190509291505056fea2646970667358221220c90d06127bde7da2ded1d224a496cbfcf23c138f82c74f2d4885d39cf5f0f38564736f6c63430008140033",
  "linkReferences": {},
  "deployedLinkReferences": {},
  "immutableReferences": {},
  "inputSourceName": "project/contracts/BuyItem.sol",
  "buildInfoId": "solc-0_8_20-02ad15fc6d98928a557298be94021dcd87203dda"
}