{
  "_format": "hh3-artifact-1",
  "contractName": "BuyItem",
  "sourceName": "contracts/BuyItem.sol",
  "abi": [
    {
      "inputs": [
        {
          "internalType": "uint256",
          "name": "_maxParticipantCount",
          "type": "uint256"
        },
        {
          "internalType": "uint256",
          "name": "_price",
          "type": "uint256"
        },
        {
          "internalType": "string",
          "name": "_title",
          "type": "string"
        },
        {
          "internalType": "string",
          "name": "_description",
          "type": "string"
        }
      ],
      "stateMutability": "payable",
      "type": "constructor"
    },
    {
      "inputs": [
        {
          "internalType": "address",
          "name": "",
          "type": "address"
        }
      ],
      "name": "deposits",
      "outputs": [
        {
          "internalType": "uint256",
          "name": "",
          "type": "uint256"
        }
      ],
      "stateMutability": "view",
      "type": "function"
    },
    {
      "inputs": [],
      "name": "description",
      "outputs": [
        {
          "internalType": "string",
          "name": "",
          "type": "string"
        }
      ],
      "stateMutability": "view",
      "type": "function"
    },
    {
      "inputs": [],
      "name": "endDate",
      "outputs": [
        {
          "internalType": "uint256",
          "name": "",
          "type": "uint256"
        }
      ],
      "stateMutability": "view",
      "type": "function"
    },
    {
      "inputs": [],
      "name": "finalPrice",
      "outputs": [
        {
          "internalType": "uint256",
          "name": "",
          "type": "uint256"
        }
      ],
      "stateMutability": "view",
      "type": "function"
    },
    {
      "inputs": [],
      "name": "finalize",
      "outputs": [],
      "stateMutability": "nonpayable",
      "type": "function"
    },
    {
      "inputs": [],
      "name": "getBalance",
      "outputs": [
        {
          "internalType": "uint256",
          "name": "",
          "type": "uint256"
        }
      ],
      "stateMutability": "view",
      "type": "function"
    },
    {
      "inputs": [],
      "name": "getOffers",
      "outputs": [
        {
          "components": [
            {
              "internalType": "uint256",
              "name": "price",
              "type": "uint256"
            },
            {
              "internalType": "string",
              "name": "productName",
              "type": "string"
            },
            {
              "internalType": "string",
              "name": "productLink",
              "type": "string"
            },
            {
              "internalType": "address",
              "name": "walletAddress",
              "type": "address"
            }
          ],
          "internalType": "struct BuyItem.Offer[]",
          "name": "",
          "type": "tuple[]"
        }
      ],
      "stateMutability": "view",
      "type": "function"
    },
    {
      "inputs": [],
      "name": "getOffersCount",
      "outputs": [
        {
          "internalType": "uint256",
          "name": "",
          "type": "uint256"
        }
      ],
      "stateMutability": "view",
      "type": "function"
    },
    {
      "inputs": [],
      "name": "getParticipantInfo",
      "outputs": [
        {
          "internalType": "uint256",
          "name": "currentParticipants",
          "type": "uint256"
        },
        {
          "internalType": "uint256",
          "name": "maxParticipants",
          "type": "uint256"
        },
        {
          "internalType": "uint256",
          "name": "contractEndDate",
          "type": "uint256"
        },
        {
          "internalType": "string",
          "name": "priceETH",
          "type": "string"
        },
        {
          "internalType": "string",
          "name": "contractTitle",
          "type": "string"
        },
        {
          "internalType": "string",
          "name": "contractDescription",
          "type": "string"
        },
        {
          "internalType": "address",
          "name": "contractSenderCompany",
          "type": "address"
        },
        {
          "internalType": "bool",
          "name": "contractIsFinalized",
          "type": "bool"
        }
      ],
      "stateMutability": "view",
      "type": "function"
    },
    {
      "inputs": [
        {
          "internalType": "address",
          "name": "",
          "type": "address"
        }
      ],
      "name": "hasParticipated",
      "outputs": [
        {
          "internalType": "bool",
          "name": "",
          "type": "bool"
        }
      ],
      "stateMutability": "view",
      "type": "function"
    },
    {
      "inputs": [],
      "name": "isFinalized",
      "outputs": [
        {
          "internalType": "bool",
          "name": "",
          "type": "bool"
        }
      ],
      "stateMutability": "view",
      "type": "function"
    },
    {
      "inputs": [],
      "name": "maxParticipantCount",
      "outputs": [
        {
          "internalType": "uint256",
          "name": "",
          "type": "uint256"
        }
      ],
      "stateMutability": "view",
      "type": "function"
    },
    {
      "inputs": [
        {
          "internalType": "uint256",
          "name": "",
          "type": "uint256"
        }
      ],
      "name": "offers",
      "outputs": [
        {
          "internalType": "uint256",
          "name": "price",
          "type": "uint256"
        },
        {
          "internalType": "string",
          "name": "productName",
          "type": "string"
        },
        {
          "internalType": "string",
          "name": "productLink",
          "type": "string"
        },
        {
          "internalType": "address",
          "name": "walletAddress",
          "type": "address"
        }
      ],
      "stateMutability": "view",
      "type": "function"
    },
    {
      "inputs": [],
      "name": "owner",
      "outputs": [
        {
          "internalType": "address",
          "name": "",
          "type": "address"
        }
      ],
      "stateMutability": "view",
      "type": "function"
    },
    {
      "inputs": [
        {
          "internalType": "uint256",
          "name": "",
          "type": "uint256"
        }
      ],
      "name": "participants",
      "outputs": [
        {
          "internalType": "address",
          "name": "",
          "type": "address"
        }
      ],
      "stateMutability": "view",
      "type": "function"
    },
    {
      "inputs": [],
      "name": "price",
      "outputs": [
        {
          "internalType": "uint256",
          "name": "",
          "type": "uint256"
        }
      ],
      "stateMutability": "view",
      "type": "function"
    },
    {
      "inputs": [],
      "name": "purchase",
      "outputs": [],
      "stateMutability": "payable",
      "type": "function"
    },
    {
      "inputs": [],
      "name": "senderCompany",
      "outputs": [
        {
          "internalType": "address",
          "name": "",
          "type": "address"
        }
      ],
      "stateMutability": "view",
      "type": "function"
    },
    {
      "inputs": [
        {
          "internalType": "uint256",
          "name": "_price",
          "type": "uint256"
        },
        {
          "internalType": "string",
          "name": "_productName",
          "type": "string"
        },
        {
          "internalType": "string",
          "name": "_productLink",
          "type": "string"
        }
      ],
      "name": "submitOffer",
      "outputs": [],
      "stateMutability": "nonpayable",
      "type": "function"
    },
    {
      "inputs": [],
      "name": "title",
      "outputs": [
        {
          "internalType": "string",
          "name": "",
          "type": "string"
        }
      ],
      "stateMutability": "view",
      "type": "function"
    },
    {
      "inputs": [],
      "name": "withdraw",
      "outputs": [],
      "stateMutability": "nonpayable",
      "type": "function"
    }
  ],
  "bytecode": "0x608060405260405162003651380380620036518339818101604052810190620000299190620004be565b5f84116200006e576040517f08c379a00000000000000000000000000000000000000000000000000000000081526004016200006590620005ef565b60405180910390fd5b5f8311620000b3576040517f08c379a0000000000000000000000000000000000000000000000000000000008152600401620000aa906200065d565b60405180910390fd5b823414620000f8576040517f08c379a0000000000000000000000000000000000000000000000000000000008152600401620000ef90620006cb565b60405180910390fd5b62093a804262000109919062000718565b5f81905550836001819055508260028190555081600690816200012d919062000980565b5080600790816200013f919062000980565b505f60035f6101000a81548160ff02191690831515021790555073eb4df82103ec493614c15f96ccd2be93c69cf09960055f6101000a81548173ffffffffffffffffffffffffffffffffffffffff021916908373ffffffffffffffffffffffffffffffffffffffff1602179055505f60085f6101000a81548173ffffffffffffffffffffffffffffffffffffffff021916908373ffffffffffffffffffffffffffffffffffffffff1602179055506001600c5f3373ffffffffffffffffffffffffffffffffffffffff1673ffffffffffffffffffffffffffffffffffffffff1681526020019081526020015f205f6101000a81548160ff021916908315150217905550600a33908060018154018082558091505060019003905f5260205f20015f9091909190916101000a81548173ffffffffffffffffffffffffffffffffffffffff021916908373ffffffffffffffffffffffffffffffffffffffff16021790555034600b5f3373ffffffffffffffffffffffffffffffffffffffff1673ffffffffffffffffffffffffffffffffffffffff1681526020019081526020015f205f828254620002f0919062000718565b925050819055505050505062000a64565b5f604051905090565b5f80fd5b5f80fd5b5f819050919050565b620003268162000312565b811462000331575f80fd5b50565b5f8151905062000344816200031b565b92915050565b5f80fd5b5f80fd5b5f601f19601f8301169050919050565b7f4e487b71000000000000000000000000000000000000000000000000000000005f52604160045260245ffd5b6200039a8262000352565b810181811067ffffffffffffffff82111715620003bc57620003bb62000362565b5b80604052505050565b5f620003d062000301565b9050620003de82826200038f565b919050565b5f67ffffffffffffffff8211156200040057620003ff62000362565b5b6200040b8262000352565b9050602081019050919050565b5f5b83811015620004375780820151818401526020810190506200041a565b5f8484015250505050565b5f620004586200045284620003e3565b620003c5565b9050828152602081018484840111156200047757620004766200034e565b5b6200048484828562000418565b509392505050565b5f82601f830112620004a357620004a26200034a565b5b8151620004b584826020860162000442565b91505092915050565b5f805f8060808587031215620004d957620004d86200030a565b5b5f620004e88782880162000334565b9450506020620004fb8782880162000334565b935050604085015167ffffffffffffffff8111156200051f576200051e6200030e565b5b6200052d878288016200048c565b925050606085015167ffffffffffffffff8111156200055157620005506200030e565b5b6200055f878288016200048c565b91505092959194509250565b5f82825260208201905092915050565b7f4d6178207061727469636970616e7420636f756e74206d7573742062652067725f8201527f6561746572207468616e20300000000000000000000000000000000000000000602082015250565b5f620005d7602c836200056b565b9150620005e4826200057b565b604082019050919050565b5f6020820190508181035f8301526200060881620005c9565b9050919050565b7f5072696365206d7573742062652067726561746572207468616e2030000000005f82015250565b5f62000645601c836200056b565b915062000652826200060f565b602082019050919050565b5f6020820190508181035f830152620006768162000637565b9050919050565b7f4d7573742073656e6420657861637420707269636520616d6f756e74000000005f82015250565b5f620006b3601c836200056b565b9150620006c0826200067d565b602082019050919050565b5f6020820190508181035f830152620006e481620006a5565b9050919050565b7f4e487b71000000000000000000000000000000000000000000000000000000005f52601160045260245ffd5b5f620007248262000312565b9150620007318362000312565b92508282019050808211156200074c576200074b620006eb565b5b92915050565b5f81519050919050565b7f4e487b71000000000000000000000000000000000000000000000000000000005f52602260045260245ffd5b5f6002820490506001821680620007a157607f821691505b602082108103620007b757620007b66200075c565b5b50919050565b5f819050815f5260205f209050919050565b5f6020601f8301049050919050565b5f82821b905092915050565b5f600883026200081b7fffffffffffffffffffffffffffffffffffffffffffffffffffffffffffffffff82620007de565b620008278683620007de565b95508019841693508086168417925050509392505050565b5f819050919050565b5f62000868620008626200085c8462000312565b6200083f565b62000312565b9050919050565b5f819050919050565b620008838362000848565b6200089b62000892826200086f565b848454620007ea565b825550505050565b5f90565b620008b1620008a3565b620008be81848462000878565b505050565b5b81811015620008e557620008d95f82620008a7565b600181019050620008c4565b5050565b601f8211156200093457620008fe81620007bd565b6200090984620007cf565b8101602085101562000919578190505b620009316200092885620007cf565b830182620008c3565b50505b505050565b5f82821c905092915050565b5f620009565f198460080262000939565b1980831691505092915050565b5f62000970838362000945565b9150826002028217905092915050565b6200098b8262000752565b67ffffffffffffffff811115620009a757620009a662000362565b5b620009b3825462000789565b620009c0828285620008e9565b5f60209050601f831160018114620009f6575f8415620009e1578287015190505b620009ed858262000963565b86555062000a5c565b601f19841662000a0686620007bd565b5f5b8281101562000a2f5784890151825560018201915060208501945060208101905062000a08565b8683101562000a4f578489015162000a4b601f89168262000945565b8355505b6001600288020188555050505b505050505050565b612bdf8062000a725f395ff3fe608060405260043610610129575f3560e01c80638a72ea6a116100aa578063a035b1fe1161006e578063a035b1fe14610387578063a6b513ee146103b1578063b4fb3ee3146103db578063c24a0f8b14610417578063c462a40814610441578063fc7e286d1461046b57610129565b80638a72ea6a146102a25780638d4e4083146102e15780638da5cb5b1461030b578063903dd9ed146103355780639bbd24c81461035f57610129565b80634a79d50c116100f15780634a79d50c146101fd5780634bb278f31461022757806364edfbf01461023d5780636bd45552146102475780637284e4161461027857610129565b806312065fe01461012d5780632f2e7b751461015757806335c1d349146101815780633ccfd60b146101bd5780633ee992ee146101d3575b5f80fd5b348015610138575f80fd5b506101416104a7565b60405161014e91906119d0565b60405180910390f35b348015610162575f80fd5b5061016b6104ae565b60405161017891906119d0565b60405180910390f35b34801561018c575f80fd5b506101a760048036038101906101a29190611a24565b6104ba565b6040516101b49190611a8e565b60405180910390f35b3480156101c8575f80fd5b506101d16104f5565b005b3480156101de575f80fd5b506101e76108f1565b6040516101f49190611c71565b60405180910390f35b348015610208575f80fd5b50610211610acb565b60405161021e9190611cd9565b60405180910390f35b348015610232575f80fd5b5061023b610b57565b005b610245611026565b005b348015610252575f80fd5b5061025b61125b565b60405161026f989796959493929190611d13565b60405180910390f35b348015610283575f80fd5b5061028c6113e3565b6040516102999190611cd9565b60405180910390f35b3480156102ad575f80fd5b506102c860048036038101906102c39190611a24565b61146f565b6040516102d89493929190611da4565b60405180910390f35b3480156102ec575f80fd5b506102f56115d5565b6040516103029190611df5565b60405180910390f35b348015610316575f80fd5b5061031f6115e7565b60405161032c9190611a8e565b60405180910390f35b348015610340575f80fd5b5061034961160c565b6040516103569190611a8e565b60405180910390f35b34801561036a575f80fd5b5061038560048036038101906103809190611f3a565b611631565b005b348015610392575f80fd5b5061039b611711565b6040516103a891906119d0565b60405180910390f35b3480156103bc575f80fd5b506103c5611717565b6040516103d291906119d0565b60405180910390f35b3480156103e6575f80fd5b5061040160048036038101906103fc9190611fec565b61171d565b60405161040e9190611df5565b60405180910390f35b348015610422575f80fd5b5061042b61173a565b60405161043891906119d0565b60405180910390f35b34801561044c575f80fd5b5061045561173f565b60405161046291906119d0565b60405180910390f35b348015610476575f80fd5b50610491600480360381019061048c9190611fec565b611745565b60405161049e91906119d0565b60405180910390f35b5f47905090565b5f600980549050905090565b600a81815481106104c9575f80fd5b905f5260205f20015f915054906101000a900473ffffffffffffffffffffffffffffffffffffffff1681565b5f54421115610539576040517f08c379a000000000000000000000000000000000000000000000000000000000815260040161053090612087565b60405180910390fd5b60035f9054906101000a900460ff1615610588576040517f08c379a000000000000000000000000000000000000000000000000000000000815260040161057f90612115565b60405180910390fd5b600c5f3373ffffffffffffffffffffffffffffffffffffffff1673ffffffffffffffffffffffffffffffffffffffff1681526020019081526020015f205f9054906101000a900460ff16610611576040517f08c379a00000000000000000000000000000000000000000000000000000000081526004016106089061217d565b60405180910390fd5b5f600b5f3373ffffffffffffffffffffffffffffffffffffffff1673ffffffffffffffffffffffffffffffffffffffff1681526020019081526020015f205490505f8111610694576040517f08c379a000000000000000000000000000000000000000000000000000000000815260040161068b906121e5565b60405180910390fd5b5f600c5f3373ffffffffffffffffffffffffffffffffffffffff1673ffffffffffffffffffffffffffffffffffffffff1681526020019081526020015f205f6101000a81548160ff0219169083151502179055505f5b600a80549050811015610867573373ffffffffffffffffffffffffffffffffffffffff16600a828154811061072257610721612203565b5b905f5260205f20015f9054906101000a900473ffffffffffffffffffffffffffffffffffffffff1673ffffffffffffffffffffffffffffffffffffffff160361085457600a6001600a80549050610779919061225d565b8154811061078a57610789612203565b5b905f5260205f20015f9054906101000a900473ffffffffffffffffffffffffffffffffffffffff16600a82815481106107c6576107c5612203565b5b905f5260205f20015f6101000a81548173ffffffffffffffffffffffffffffffffffffffff021916908373ffffffffffffffffffffffffffffffffffffffff160217905550600a80548061081d5761081c612290565b5b600190038181905f5260205f20015f6101000a81549073ffffffffffffffffffffffffffffffffffffffff02191690559055610867565b808061085f906122bd565b9150506106ea565b505f600b5f3373ffffffffffffffffffffffffffffffffffffffff1673ffffffffffffffffffffffffffffffffffffffff1681526020019081526020015f20819055503373ffffffffffffffffffffffffffffffffffffffff166108fc8290811502906040515f60405180830381858888f193505050501580156108ed573d5f803e3d5ffd5b5050565b60606009805480602002602001604051908101604052809291908181526020015f905b82821015610ac2578382905f5260205f2090600402016040518060800160405290815f820154815260200160018201805461094e90612331565b80601f016020809104026020016040519081016040528092919081815260200182805461097a90612331565b80156109c55780601f1061099c576101008083540402835291602001916109c5565b820191905f5260205f20905b8154815290600101906020018083116109a857829003601f168201915b505050505081526020016002820180546109de90612331565b80601f0160208091040260200160405190810160405280929190818152602001828054610a0a90612331565b8015610a555780601f10610a2c57610100808354040283529160200191610a55565b820191905f5260205f20905b815481529060010190602001808311610a3857829003601f168201915b50505050508152602001600382015f9054906101000a900473ffffffffffffffffffffffffffffffffffffffff1673ffffffffffffffffffffffffffffffffffffffff1673ffffffffffffffffffffffffffffffffffffffff168152505081526020019060010190610914565b50505050905090565b60068054610ad890612331565b80601f0160208091040260200160405190810160405280929190818152602001828054610b0490612331565b8015610b4f5780601f10610b2657610100808354040283529160200191610b4f565b820191905f5260205f20905b815481529060010190602001808311610b3257829003601f168201915b505050505081565b60055f9054906101000a900473ffffffffffffffffffffffffffffffffffffffff1673ffffffffffffffffffffffffffffffffffffffff163373ffffffffffffffffffffffffffffffffffffffff1614610be6576040517f08c379a0000000000000000000000000000000000000000000000000000000008152600401610bdd906123ab565b60405180910390fd5b60035f9054906101000a900460ff1615610c35576040517f08c379a0000000000000000000000000000000000000000000000000000000008152600401610c2c90612413565b60405180910390fd5b5f60098054905011610c7c576040517f08c379a0000000000000000000000000000000000000000000000000000000008152600401610c739061247b565b60405180910390fd5b5f600a8054905011610cc3576040517f08c379a0000000000000000000000000000000000000000000000000000000008152600401610cba906124e3565b60405180910390fd5b5f60095f81548110610cd857610cd7612203565b5b905f5260205f2090600402015f015490505f60095f81548110610cfe57610cfd612203565b5b905f5260205f2090600402016003015f9054906101000a900473ffffffffffffffffffffffffffffffffffffffff1690505f600190505b600980549050811015610dea578260098281548110610d5757610d56612203565b5b905f5260205f2090600402015f01541015610dd75760098181548110610d8057610d7f612203565b5b905f5260205f2090600402015f0154925060098181548110610da557610da4612203565b5b905f5260205f2090600402016003015f9054906101000a900473ffffffffffffffffffffffffffffffffffffffff1691505b8080610de2906122bd565b915050610d35565b50816004819055508060085f6101000a81548173ffffffffffffffffffffffffffffffffffffffff021916908373ffffffffffffffffffffffffffffffffffffffff160217905550600160035f6101000a81548160ff0219169083151502179055505f600a80549050600454610e609190612501565b90505f6064600a83610e729190612501565b610e7c919061256f565b90505f8183610e8b919061225d565b90505f600a80549050600454600254610ea4919061225d565b610eae9190612501565b90505f600a8054905082610ec2919061256f565b90505f5b600a80549050811015610f73575f600a8281548110610ee857610ee7612203565b5b905f5260205f20015f9054906101000a900473ffffffffffffffffffffffffffffffffffffffff1690505f831115610f5f578073ffffffffffffffffffffffffffffffffffffffff166108fc8490811502906040515f60405180830381858888f19350505050158015610f5d573d5f803e3d5ffd5b505b508080610f6b906122bd565b915050610ec6565b5060055f9054906101000a900473ffffffffffffffffffffffffffffffffffffffff1673ffffffffffffffffffffffffffffffffffffffff166108fc8590811502906040515f60405180830381858888f19350505050158015610fd8573d5f803e3d5ffd5b508573ffffffffffffffffffffffffffffffffffffffff166108fc8490811502906040515f60405180830381858888f1935050505015801561101c573d5f803e3d5ffd5b5050505050505050565b600254341461106a576040517f08c379a0000000000000000000000000000000000000000000000000000000008152600401611061906125e9565b60405180910390fd5b600154600a80549050106110b3576040517f08c379a00000000000000000000000000000000000000000000000000000000081526004016110aa90612677565b60405180910390fd5b60035f9054906101000a900460ff1615611102576040517f08c379a00000000000000000000000000000000000000000000000000000000081526004016110f9906126df565b60405180910390fd5b600c5f3373ffffffffffffffffffffffffffffffffffffffff1673ffffffffffffffffffffffffffffffffffffffff1681526020019081526020015f205f9054906101000a900460ff16611206576001600c5f3373ffffffffffffffffffffffffffffffffffffffff1673ffffffffffffffffffffffffffffffffffffffff1681526020019081526020015f205f6101000a81548160ff021916908315150217905550600a33908060018154018082558091505060019003905f5260205f20015f9091909190916101000a81548173ffffffffffffffffffffffffffffffffffffffff021916908373ffffffffffffffffffffffffffffffffffffffff1602179055505b34600b5f3373ffffffffffffffffffffffffffffffffffffffff1673ffffffffffffffffffffffffffffffffffffffff1681526020019081526020015f205f82825461125291906126fd565b92505081905550565b5f805f60608060605f805f61127160025461175a565b9050600a805490506001545f54836006600760085f9054906101000a900473ffffffffffffffffffffffffffffffffffffffff1660035f9054906101000a900460ff168380546112c090612331565b80601f01602080910402602001604051908101604052809291908181526020018280546112ec90612331565b80156113375780601f1061130e57610100808354040283529160200191611337565b820191905f5260205f20905b81548152906001019060200180831161131a57829003601f168201915b5050505050935082805461134a90612331565b80601f016020809104026020016040519081016040528092919081815260200182805461137690612331565b80156113c15780601f10611398576101008083540402835291602001916113c1565b820191905f5260205f20905b8154815290600101906020018083116113a457829003601f168201915b5050505050925098509850985098509850985098509850509091929394959697565b600780546113f090612331565b80601f016020809104026020016040519081016040528092919081815260200182805461141c90612331565b80156114675780601f1061143e57610100808354040283529160200191611467565b820191905f5260205f20905b81548152906001019060200180831161144a57829003601f168201915b505050505081565b6009818154811061147e575f80fd5b905f5260205f2090600402015f91509050805f0154908060010180546114a390612331565b80601f01602080910402602001604051908101604052809291908181526020018280546114cf90612331565b801561151a5780601f106114f15761010080835404028352916020019161151a565b820191905f5260205f20905b8154815290600101906020018083116114fd57829003601f168201915b50505050509080600201805461152f90612331565b80601f016020809104026020016040519081016040528092919081815260200182805461155b90612331565b80156115a65780601f1061157d576101008083540402835291602001916115a6565b820191905f5260205f20905b81548152906001019060200180831161158957829003601f168201915b505050505090806003015f9054906101000a900473ffffffffffffffffffffffffffffffffffffffff16905084565b60035f9054906101000a900460ff1681565b60055f9054906101000a900473ffffffffffffffffffffffffffffffffffffffff1681565b60085f9054906101000a900473ffffffffffffffffffffffffffffffffffffffff1681565b600960405180608001604052808581526020018481526020018381526020013373ffffffffffffffffffffffffffffffffffffffff16815250908060018154018082558091505060019003905f5260205f2090600402015f909190919091505f820151815f015560208201518160010190816116ad91906128cd565b5060408201518160020190816116c391906128cd565b506060820151816003015f6101000a81548173ffffffffffffffffffffffffffffffffffffffff021916908373ffffffffffffffffffffffffffffffffffffffff1602179055505050505050565b60025481565b60045481565b600c602052805f5260405f205f915054906101000a900460ff1681565b5f5481565b60015481565b600b602052805f5260405f205f915090505481565b60605f670de0b6b3a764000083611771919061256f565b90505f670de0b6b3a764000084611788919061299c565b90505f66038d7ea4c680008261179e919061256f565b90506117a9836117dc565b6117b282611935565b6040516020016117c3929190612a9a565b6040516020818303038152906040529350505050919050565b60605f8203611822576040518060400160405280600181526020017f30000000000000000000000000000000000000000000000000000000000000008152509050611930565b5f8290505f5b5f821461185157808061183a906122bd565b915050600a8261184a919061256f565b9150611828565b5f8167ffffffffffffffff81111561186c5761186b611e16565b5b6040519080825280601f01601f19166020018201604052801561189e5781602001600182028036833780820191505090505b5090505b5f8514611929576001826118b6919061225d565b9150600a856118c5919061299c565b60306118d191906126fd565b60f81b8183815181106118e7576118e6612203565b5b60200101907effffffffffffffffffffffffffffffffffffffffffffffffffffffffffffff191690815f1a905350600a85611922919061256f565b94506118a2565b8093505050505b919050565b6060600a82101561196f57611949826117dc565b6040516020016119599190612b1d565b60405160208183030381529060405290506119b3565b60648210156119a757611981826117dc565b6040516020016119919190612b88565b60405160208183030381529060405290506119b3565b6119b0826117dc565b90505b919050565b5f819050919050565b6119ca816119b8565b82525050565b5f6020820190506119e35f8301846119c1565b92915050565b5f604051905090565b5f80fd5b5f80fd5b611a03816119b8565b8114611a0d575f80fd5b50565b5f81359050611a1e816119fa565b92915050565b5f60208284031215611a3957611a386119f2565b5b5f611a4684828501611a10565b91505092915050565b5f73ffffffffffffffffffffffffffffffffffffffff82169050919050565b5f611a7882611a4f565b9050919050565b611a8881611a6e565b82525050565b5f602082019050611aa15f830184611a7f565b92915050565b5f81519050919050565b5f82825260208201905092915050565b5f819050602082019050919050565b611ad9816119b8565b82525050565b5f81519050919050565b5f82825260208201905092915050565b5f5b83811015611b16578082015181840152602081019050611afb565b5f8484015250505050565b5f601f19601f8301169050919050565b5f611b3b82611adf565b611b458185611ae9565b9350611b55818560208601611af9565b611b5e81611b21565b840191505092915050565b611b7281611a6e565b82525050565b5f608083015f830151611b8d5f860182611ad0565b5060208301518482036020860152611ba58282611b31565b91505060408301518482036040860152611bbf8282611b31565b9150506060830151611bd46060860182611b69565b508091505092915050565b5f611bea8383611b78565b905092915050565b5f602082019050919050565b5f611c0882611aa7565b611c128185611ab1565b935083602082028501611c2485611ac1565b805f5b85811015611c5f5784840389528151611c408582611bdf565b9450611c4b83611bf2565b925060208a01995050600181019050611c27565b50829750879550505050505092915050565b5f6020820190508181035f830152611c898184611bfe565b905092915050565b5f82825260208201905092915050565b5f611cab82611adf565b611cb58185611c91565b9350611cc5818560208601611af9565b611cce81611b21565b840191505092915050565b5f6020820190508181035f830152611cf18184611ca1565b905092915050565b5f8115159050919050565b611d0d81611cf9565b82525050565b5f61010082019050611d275f83018b6119c1565b611d34602083018a6119c1565b611d4160408301896119c1565b8181036060830152611d538188611ca1565b90508181036080830152611d678187611ca1565b905081810360a0830152611d7b8186611ca1565b9050611d8a60c0830185611a7f565b611d9760e0830184611d04565b9998505050505050505050565b5f608082019050611db75f8301876119c1565b8181036020830152611dc98186611ca1565b90508181036040830152611ddd8185611ca1565b9050611dec6060830184611a7f565b95945050505050565b5f602082019050611e085f830184611d04565b92915050565b5f80fd5b5f80fd5b7f4e487b71000000000000000000000000000000000000000000000000000000005f52604160045260245ffd5b611e4c82611b21565b810181811067ffffffffffffffff82111715611e6b57611e6a611e16565b5b80604052505050565b5f611e7d6119e9565b9050611e898282611e43565b919050565b5f67ffffffffffffffff821115611ea857611ea7611e16565b5b611eb182611b21565b9050602081019050919050565b828183375f83830152505050565b5f611ede611ed984611e8e565b611e74565b905082815260208101848484011115611efa57611ef9611e12565b5b611f05848285611ebe565b509392505050565b5f82601f830112611f2157611f20611e0e565b5b8135611f31848260208601611ecc565b91505092915050565b5f805f60608486031215611f5157611f506119f2565b5b5f611f5e86828701611a10565b935050602084013567ffffffffffffffff811115611f7f57611f7e6119f6565b5b611f8b86828701611f0d565b925050604084013567ffffffffffffffff811115611fac57611fab6119f6565b5b611fb886828701611f0d565b9150509250925092565b611fcb81611a6e565b8114611fd5575f80fd5b50565b5f81359050611fe681611fc2565b92915050565b5f60208284031215612001576120006119f2565b5b5f61200e84828501611fd8565b91505092915050565b7f5769746864726177616c732061726520636c6f73656420616674657220656e645f8201527f4461746500000000000000000000000000000000000000000000000000000000602082015250565b5f612071602483611c91565b915061207c82612017565b604082019050919050565b5f6020820190508181035f83015261209e81612065565b9050919050565b7f43616e6e6f742077697468647261772061667465722066696e616c697a6174695f8201527f6f6e000000000000000000000000000000000000000000000000000000000000602082015250565b5f6120ff602283611c91565b915061210a826120a5565b604082019050919050565b5f6020820190508181035f83015261212c816120f3565b9050919050565b7f596f7520617265206e6f742061207061727469636970616e74000000000000005f82015250565b5f612167601983611c91565b915061217282612133565b602082019050919050565b5f6020820190508181035f8301526121948161215b565b9050919050565b7f4e6f2062616c616e636520746f207769746864726177000000000000000000005f82015250565b5f6121cf601683611c91565b91506121da8261219b565b602082019050919050565b5f6020820190508181035f8301526121fc816121c3565b9050919050565b7f4e487b71000000000000000000000000000000000000000000000000000000005f52603260045260245ffd5b7f4e487b71000000000000000000000000000000000000000000000000000000005f52601160045260245ffd5b5f612267826119b8565b9150612272836119b8565b925082820390508181111561228a57612289612230565b5b92915050565b7f4e487b71000000000000000000000000000000000000000000000000000000005f52603160045260245ffd5b5f6122c7826119b8565b91507fffffffffffffffffffffffffffffffffffffffffffffffffffffffffffffffff82036122f9576122f8612230565b5b600182019050919050565b7f4e487b71000000000000000000000000000000000000000000000000000000005f52602260045260245ffd5b5f600282049050600182168061234857607f821691505b60208210810361235b5761235a612304565b5b50919050565b7f4f6e6c79206f776e65722063616e2066696e616c697a650000000000000000005f82015250565b5f612395601783611c91565b91506123a082612361565b602082019050919050565b5f6020820190508181035f8301526123c281612389565b9050919050565b7f416c72656164792066696e616c697a65640000000000000000000000000000005f82015250565b5f6123fd601183611c91565b9150612408826123c9565b602082019050919050565b5f6020820190508181035f83015261242a816123f1565b9050919050565b7f4e6f206f666665727320617661696c61626c65000000000000000000000000005f82015250565b5f612465601383611c91565b915061247082612431565b602082019050919050565b5f6020820190508181035f83015261249281612459565b9050919050565b7f4e6f207061727469636970616e747300000000000000000000000000000000005f82015250565b5f6124cd600f83611c91565b91506124d882612499565b602082019050919050565b5f6020820190508181035f8301526124fa816124c1565b9050919050565b5f61250b826119b8565b9150612516836119b8565b9250828202612524816119b8565b9150828204841483151761253b5761253a612230565b5b5092915050565b7f4e487b71000000000000000000000000000000000000000000000000000000005f52601260045260245ffd5b5f612579826119b8565b9150612584836119b8565b92508261259457612593612542565b5b828204905092915050565b7f53656e7420455448206d75737420657175616c207072696365000000000000005f82015250565b5f6125d3601983611c91565b91506125de8261259f565b602082019050919050565b5f6020820190508181035f830152612600816125c7565b9050919050565b7f4d6178696d756d207061727469636970616e74206c696d6974207265616368655f8201527f6400000000000000000000000000000000000000000000000000000000000000602082015250565b5f612661602183611c91565b915061266c82612607565b604082019050919050565b5f6020820190508181035f83015261268e81612655565b9050919050565b7f507572636861736520706572696f642068617320656e646564000000000000005f82015250565b5f6126c9601983611c91565b91506126d482612695565b602082019050919050565b5f6020820190508181035f8301526126f6816126bd565b9050919050565b5f612707826119b8565b9150612712836119b8565b925082820190508082111561272a57612729612230565b5b92915050565b5f819050815f5260205f209050919050565b5f6020601f8301049050919050565b5f82821b905092915050565b5f6008830261278c7fffffffffffffffffffffffffffffffffffffffffffffffffffffffffffffffff82612751565b6127968683612751565b95508019841693508086168417925050509392505050565b5f819050919050565b5f6127d16127cc6127c7846119b8565b6127ae565b6119b8565b9050919050565b5f819050919050565b6127ea836127b7565b6127fe6127f6826127d8565b84845461275d565b825550505050565b5f90565b612812612806565b61281d8184846127e1565b505050565b5b81811015612840576128355f8261280a565b600181019050612823565b5050565b601f8211156128855761285681612730565b61285f84612742565b8101602085101561286e578190505b61288261287a85612742565b830182612822565b50505b505050565b5f82821c905092915050565b5f6128a55f198460080261288a565b1980831691505092915050565b5f6128bd8383612896565b9150826002028217905092915050565b6128d682611adf565b67ffffffffffffffff8111156128ef576128ee611e16565b5b6128f98254612331565b612904828285612844565b5f60209050601f831160018114612935575f8415612923578287015190505b61292d85826128b2565b865550612994565b601f19841661294386612730565b5f5b8281101561296a57848901518255600182019150602085019450602081019050612945565b868310156129875784890151612983601f891682612896565b8355505b6001600288020188555050505b505050505050565b5f6129a6826119b8565b91506129b1836119b8565b9250826129c1576129c0612542565b5b828206905092915050565b5f81905092915050565b5f6129e082611adf565b6129ea81856129cc565b93506129fa818560208601611af9565b80840191505092915050565b7f2e000000000000000000000000000000000000000000000000000000000000005f82015250565b5f612a3a6001836129cc565b9150612a4582612a06565b600182019050919050565b7f20455448000000000000000000000000000000000000000000000000000000005f82015250565b5f612a846004836129cc565b9150612a8f82612a50565b600482019050919050565b5f612aa582856129d6565b9150612ab082612a2e565b9150612abc82846129d6565b9150612ac782612a78565b91508190509392505050565b7f30300000000000000000000000000000000000000000000000000000000000005f82015250565b5f612b076002836129cc565b9150612b1282612ad3565b600282019050919050565b5f612b2782612afb565b9150612b3382846129d6565b915081905092915050565b7f30000000000000000000000000000000000000000000000000000000000000005f82015250565b5f612b726001836129cc565b9150612b7d82612b3e565b600182019050919050565b5f612b9282612b66565b9150612b9e82846129d6565b91508190509291505056fea26469706673582212201737ddf55fc75261ffb52bc04c472f0c88d6d5f3c25a851bb2db8766d665dee664736f6c63430008140033",
  "linkReferences": {},
  "deployedLinkReferences": {},
  "immutableReferences": {},
  "inputSourceName": "project/contracts/BuyItem.sol",
  "buildInfoId": "solc-0_8_20-94bdfbbc6027a7a090405413b989991ced45f2ad"
}